{
	"solTask1/codeRoman.sol": {
		"BinarySearch": {
			"abi": [
				{
					"inputs": [
						{
							"internalType": "uint256[]",
							"name": "array",
							"type": "uint256[]"
						},
						{
							"internalType": "uint256",
							"name": "target",
							"type": "uint256"
						}
					],
					"name": "binarySearchWithIndex",
					"outputs": [
						{
							"internalType": "int256",
							"name": "",
							"type": "int256"
						}
					],
					"stateMutability": "pure",
					"type": "function"
				}
			],
			"devdoc": {
				"kind": "dev",
				"methods": {},
				"version": 1
			},
			"evm": {
				"assembly": "    /* \"solTask1/codeRoman.sol\":5871:6514  contract BinarySearch {... */\n  mstore(0x40, 0x80)\n  callvalue\n  dup1\n  iszero\n  tag_1\n  jumpi\n  revert(0x00, 0x00)\ntag_1:\n  pop\n  dataSize(sub_0)\n  dup1\n  dataOffset(sub_0)\n  0x00\n  codecopy\n  0x00\n  return\nstop\n\nsub_0: assembly {\n        /* \"solTask1/codeRoman.sol\":5871:6514  contract BinarySearch {... */\n      mstore(0x40, 0x80)\n      callvalue\n      dup1\n      iszero\n      tag_1\n      jumpi\n      revert(0x00, 0x00)\n    tag_1:\n      pop\n      jumpi(tag_2, lt(calldatasize, 0x04))\n      shr(0xe0, calldataload(0x00))\n      dup1\n      0x21352d8a\n      eq\n      tag_3\n      jumpi\n    tag_2:\n      revert(0x00, 0x00)\n        /* \"solTask1/codeRoman.sol\":5902:6511  function binarySearchWithIndex(... */\n    tag_3:\n      tag_4\n      0x04\n      dup1\n      calldatasize\n      sub\n      dup2\n      add\n      swap1\n      tag_5\n      swap2\n      swap1\n      tag_6\n      jump\t// in\n    tag_5:\n      tag_7\n      jump\t// in\n    tag_4:\n      mload(0x40)\n      tag_8\n      swap2\n      swap1\n      tag_9\n      jump\t// in\n    tag_8:\n      mload(0x40)\n      dup1\n      swap2\n      sub\n      swap1\n      return\n    tag_7:\n        /* \"solTask1/codeRoman.sol\":6013:6016  int */\n      0x00\n        /* \"solTask1/codeRoman.sol\":6029:6038  uint left */\n      0x00\n        /* \"solTask1/codeRoman.sol\":6041:6042  0 */\n      0x00\n        /* \"solTask1/codeRoman.sol\":6029:6042  uint left = 0 */\n      swap1\n      pop\n        /* \"solTask1/codeRoman.sol\":6053:6063  uint right */\n      0x00\n        /* \"solTask1/codeRoman.sol\":6066:6071  array */\n      dup5\n        /* \"solTask1/codeRoman.sol\":6066:6078  array.length */\n      mload\n        /* \"solTask1/codeRoman.sol\":6053:6078  uint right = array.length */\n      swap1\n      pop\n        /* \"solTask1/codeRoman.sol\":6099:6450  while (left < right) {... */\n    tag_11:\n        /* \"solTask1/codeRoman.sol\":6113:6118  right */\n      dup1\n        /* \"solTask1/codeRoman.sol\":6106:6110  left */\n      dup3\n        /* \"solTask1/codeRoman.sol\":6106:6118  left < right */\n      lt\n        /* \"solTask1/codeRoman.sol\":6099:6450  while (left < right) {... */\n      iszero\n      tag_12\n      jumpi\n        /* \"solTask1/codeRoman.sol\":6135:6143  uint mid */\n      0x00\n        /* \"solTask1/codeRoman.sol\":6170:6171  2 */\n      0x02\n        /* \"solTask1/codeRoman.sol\":6162:6166  left */\n      dup4\n        /* \"solTask1/codeRoman.sol\":6154:6159  right */\n      dup4\n        /* \"solTask1/codeRoman.sol\":6154:6166  right - left */\n      tag_13\n      swap2\n      swap1\n      tag_14\n      jump\t// in\n    tag_13:\n        /* \"solTask1/codeRoman.sol\":6153:6171  (right - left) / 2 */\n      tag_15\n      swap2\n      swap1\n      tag_16\n      jump\t// in\n    tag_15:\n        /* \"solTask1/codeRoman.sol\":6146:6150  left */\n      dup4\n        /* \"solTask1/codeRoman.sol\":6146:6171  left + (right - left) / 2 */\n      tag_17\n      swap2\n      swap1\n      tag_18\n      jump\t// in\n    tag_17:\n        /* \"solTask1/codeRoman.sol\":6135:6171  uint mid = left + (right - left) / 2 */\n      swap1\n      pop\n        /* \"solTask1/codeRoman.sol\":6218:6224  target */\n      dup5\n        /* \"solTask1/codeRoman.sol\":6204:6209  array */\n      dup7\n        /* \"solTask1/codeRoman.sol\":6210:6213  mid */\n      dup3\n        /* \"solTask1/codeRoman.sol\":6204:6214  array[mid] */\n      dup2\n      mload\n      dup2\n      lt\n      tag_19\n      jumpi\n      tag_20\n      tag_21\n      jump\t// in\n    tag_20:\n    tag_19:\n      0x20\n      mul\n      0x20\n      add\n      add\n      mload\n        /* \"solTask1/codeRoman.sol\":6204:6224  array[mid] == target */\n      sub\n        /* \"solTask1/codeRoman.sol\":6200:6439  if (array[mid] == target) {... */\n      tag_22\n      jumpi\n        /* \"solTask1/codeRoman.sol\":6256:6259  mid */\n      dup1\n        /* \"solTask1/codeRoman.sol\":6245:6260  return int(mid) */\n      swap4\n      pop\n      pop\n      pop\n      pop\n      jump(tag_10)\n        /* \"solTask1/codeRoman.sol\":6200:6439  if (array[mid] == target) {... */\n    tag_22:\n        /* \"solTask1/codeRoman.sol\":6330:6336  target */\n      dup5\n        /* \"solTask1/codeRoman.sol\":6317:6322  array */\n      dup7\n        /* \"solTask1/codeRoman.sol\":6323:6326  mid */\n      dup3\n        /* \"solTask1/codeRoman.sol\":6317:6327  array[mid] */\n      dup2\n      mload\n      dup2\n      lt\n      tag_24\n      jumpi\n      tag_25\n      tag_21\n      jump\t// in\n    tag_25:\n    tag_24:\n      0x20\n      mul\n      0x20\n      add\n      add\n      mload\n        /* \"solTask1/codeRoman.sol\":6317:6336  array[mid] < target */\n      lt\n        /* \"solTask1/codeRoman.sol\":6313:6439  if (array[mid] < target) {... */\n      iszero\n      tag_26\n      jumpi\n        /* \"solTask1/codeRoman.sol\":6370:6371  1 */\n      0x01\n        /* \"solTask1/codeRoman.sol\":6364:6367  mid */\n      dup2\n        /* \"solTask1/codeRoman.sol\":6364:6371  mid + 1 */\n      tag_27\n      swap2\n      swap1\n      tag_18\n      jump\t// in\n    tag_27:\n        /* \"solTask1/codeRoman.sol\":6357:6371  left = mid + 1 */\n      swap3\n      pop\n        /* \"solTask1/codeRoman.sol\":6313:6439  if (array[mid] < target) {... */\n      jump(tag_28)\n    tag_26:\n        /* \"solTask1/codeRoman.sol\":6420:6423  mid */\n      dup1\n        /* \"solTask1/codeRoman.sol\":6412:6423  right = mid */\n      swap2\n      pop\n        /* \"solTask1/codeRoman.sol\":6313:6439  if (array[mid] < target) {... */\n    tag_28:\n        /* \"solTask1/codeRoman.sol\":6120:6450  {... */\n      pop\n        /* \"solTask1/codeRoman.sol\":6099:6450  while (left < right) {... */\n      jump(tag_11)\n    tag_12:\n        /* \"solTask1/codeRoman.sol\":6477:6479  -1 */\n      0xffffffffffffffffffffffffffffffffffffffffffffffffffffffffffffffff\n        /* \"solTask1/codeRoman.sol\":6470:6479  return -1 */\n      swap3\n      pop\n      pop\n      pop\n        /* \"solTask1/codeRoman.sol\":5902:6511  function binarySearchWithIndex(... */\n    tag_10:\n      swap3\n      swap2\n      pop\n      pop\n      jump\t// out\n        /* \"#utility.yul\":7:82   */\n    tag_29:\n        /* \"#utility.yul\":40:46   */\n      0x00\n        /* \"#utility.yul\":73:75   */\n      0x40\n        /* \"#utility.yul\":67:76   */\n      mload\n        /* \"#utility.yul\":57:76   */\n      swap1\n      pop\n        /* \"#utility.yul\":7:82   */\n      swap1\n      jump\t// out\n        /* \"#utility.yul\":88:205   */\n    tag_30:\n        /* \"#utility.yul\":197:198   */\n      0x00\n        /* \"#utility.yul\":194:195   */\n      0x00\n        /* \"#utility.yul\":187:199   */\n      revert\n        /* \"#utility.yul\":211:328   */\n    tag_31:\n        /* \"#utility.yul\":320:321   */\n      0x00\n        /* \"#utility.yul\":317:318   */\n      0x00\n        /* \"#utility.yul\":310:322   */\n      revert\n        /* \"#utility.yul\":334:451   */\n    tag_32:\n        /* \"#utility.yul\":443:444   */\n      0x00\n        /* \"#utility.yul\":440:441   */\n      0x00\n        /* \"#utility.yul\":433:445   */\n      revert\n        /* \"#utility.yul\":457:559   */\n    tag_33:\n        /* \"#utility.yul\":498:504   */\n      0x00\n        /* \"#utility.yul\":549:551   */\n      0x1f\n        /* \"#utility.yul\":545:552   */\n      not\n        /* \"#utility.yul\":540:542   */\n      0x1f\n        /* \"#utility.yul\":533:538   */\n      dup4\n        /* \"#utility.yul\":529:543   */\n      add\n        /* \"#utility.yul\":525:553   */\n      and\n        /* \"#utility.yul\":515:553   */\n      swap1\n      pop\n        /* \"#utility.yul\":457:559   */\n      swap2\n      swap1\n      pop\n      jump\t// out\n        /* \"#utility.yul\":565:745   */\n    tag_34:\n        /* \"#utility.yul\":613:690   */\n      0x4e487b7100000000000000000000000000000000000000000000000000000000\n        /* \"#utility.yul\":610:611   */\n      0x00\n        /* \"#utility.yul\":603:691   */\n      mstore\n        /* \"#utility.yul\":710:714   */\n      0x41\n        /* \"#utility.yul\":707:708   */\n      0x04\n        /* \"#utility.yul\":700:715   */\n      mstore\n        /* \"#utility.yul\":734:738   */\n      0x24\n        /* \"#utility.yul\":731:732   */\n      0x00\n        /* \"#utility.yul\":724:739   */\n      revert\n        /* \"#utility.yul\":751:1032   */\n    tag_35:\n        /* \"#utility.yul\":834:861   */\n      tag_56\n        /* \"#utility.yul\":856:860   */\n      dup3\n        /* \"#utility.yul\":834:861   */\n      tag_33\n      jump\t// in\n    tag_56:\n        /* \"#utility.yul\":826:832   */\n      dup2\n        /* \"#utility.yul\":822:862   */\n      add\n        /* \"#utility.yul\":964:970   */\n      dup2\n        /* \"#utility.yul\":952:962   */\n      dup2\n        /* \"#utility.yul\":949:971   */\n      lt\n        /* \"#utility.yul\":928:946   */\n      0xffffffffffffffff\n        /* \"#utility.yul\":916:926   */\n      dup3\n        /* \"#utility.yul\":913:947   */\n      gt\n        /* \"#utility.yul\":910:972   */\n      or\n        /* \"#utility.yul\":907:995   */\n      iszero\n      tag_57\n      jumpi\n        /* \"#utility.yul\":975:993   */\n      tag_58\n      tag_34\n      jump\t// in\n    tag_58:\n        /* \"#utility.yul\":907:995   */\n    tag_57:\n        /* \"#utility.yul\":1015:1025   */\n      dup1\n        /* \"#utility.yul\":1011:1013   */\n      0x40\n        /* \"#utility.yul\":1004:1026   */\n      mstore\n        /* \"#utility.yul\":794:1032   */\n      pop\n        /* \"#utility.yul\":751:1032   */\n      pop\n      pop\n      jump\t// out\n        /* \"#utility.yul\":1038:1167   */\n    tag_36:\n        /* \"#utility.yul\":1072:1078   */\n      0x00\n        /* \"#utility.yul\":1099:1119   */\n      tag_60\n      tag_29\n      jump\t// in\n    tag_60:\n        /* \"#utility.yul\":1089:1119   */\n      swap1\n      pop\n        /* \"#utility.yul\":1128:1161   */\n      tag_61\n        /* \"#utility.yul\":1156:1160   */\n      dup3\n        /* \"#utility.yul\":1148:1154   */\n      dup3\n        /* \"#utility.yul\":1128:1161   */\n      tag_35\n      jump\t// in\n    tag_61:\n        /* \"#utility.yul\":1038:1167   */\n      swap2\n      swap1\n      pop\n      jump\t// out\n        /* \"#utility.yul\":1173:1484   */\n    tag_37:\n        /* \"#utility.yul\":1250:1254   */\n      0x00\n        /* \"#utility.yul\":1340:1358   */\n      0xffffffffffffffff\n        /* \"#utility.yul\":1332:1338   */\n      dup3\n        /* \"#utility.yul\":1329:1359   */\n      gt\n        /* \"#utility.yul\":1326:1382   */\n      iszero\n      tag_63\n      jumpi\n        /* \"#utility.yul\":1362:1380   */\n      tag_64\n      tag_34\n      jump\t// in\n    tag_64:\n        /* \"#utility.yul\":1326:1382   */\n    tag_63:\n        /* \"#utility.yul\":1412:1416   */\n      0x20\n        /* \"#utility.yul\":1404:1410   */\n      dup3\n        /* \"#utility.yul\":1400:1417   */\n      mul\n        /* \"#utility.yul\":1392:1417   */\n      swap1\n      pop\n        /* \"#utility.yul\":1472:1476   */\n      0x20\n        /* \"#utility.yul\":1466:1470   */\n      dup2\n        /* \"#utility.yul\":1462:1477   */\n      add\n        /* \"#utility.yul\":1454:1477   */\n      swap1\n      pop\n        /* \"#utility.yul\":1173:1484   */\n      swap2\n      swap1\n      pop\n      jump\t// out\n        /* \"#utility.yul\":1490:1607   */\n    tag_38:\n        /* \"#utility.yul\":1599:1600   */\n      0x00\n        /* \"#utility.yul\":1596:1597   */\n      0x00\n        /* \"#utility.yul\":1589:1601   */\n      revert\n        /* \"#utility.yul\":1613:1690   */\n    tag_39:\n        /* \"#utility.yul\":1650:1657   */\n      0x00\n        /* \"#utility.yul\":1679:1684   */\n      dup2\n        /* \"#utility.yul\":1668:1684   */\n      swap1\n      pop\n        /* \"#utility.yul\":1613:1690   */\n      swap2\n      swap1\n      pop\n      jump\t// out\n        /* \"#utility.yul\":1696:1818   */\n    tag_40:\n        /* \"#utility.yul\":1769:1793   */\n      tag_68\n        /* \"#utility.yul\":1787:1792   */\n      dup2\n        /* \"#utility.yul\":1769:1793   */\n      tag_39\n      jump\t// in\n    tag_68:\n        /* \"#utility.yul\":1762:1767   */\n      dup2\n        /* \"#utility.yul\":1759:1794   */\n      eq\n        /* \"#utility.yul\":1749:1812   */\n      tag_69\n      jumpi\n        /* \"#utility.yul\":1808:1809   */\n      0x00\n        /* \"#utility.yul\":1805:1806   */\n      0x00\n        /* \"#utility.yul\":1798:1810   */\n      revert\n        /* \"#utility.yul\":1749:1812   */\n    tag_69:\n        /* \"#utility.yul\":1696:1818   */\n      pop\n      jump\t// out\n        /* \"#utility.yul\":1824:1963   */\n    tag_41:\n        /* \"#utility.yul\":1870:1875   */\n      0x00\n        /* \"#utility.yul\":1908:1914   */\n      dup2\n        /* \"#utility.yul\":1895:1915   */\n      calldataload\n        /* \"#utility.yul\":1886:1915   */\n      swap1\n      pop\n        /* \"#utility.yul\":1924:1957   */\n      tag_71\n        /* \"#utility.yul\":1951:1956   */\n      dup2\n        /* \"#utility.yul\":1924:1957   */\n      tag_40\n      jump\t// in\n    tag_71:\n        /* \"#utility.yul\":1824:1963   */\n      swap3\n      swap2\n      pop\n      pop\n      jump\t// out\n        /* \"#utility.yul\":1986:2696   */\n    tag_42:\n        /* \"#utility.yul\":2082:2087   */\n      0x00\n        /* \"#utility.yul\":2107:2188   */\n      tag_73\n        /* \"#utility.yul\":2123:2187   */\n      tag_74\n        /* \"#utility.yul\":2180:2186   */\n      dup5\n        /* \"#utility.yul\":2123:2187   */\n      tag_37\n      jump\t// in\n    tag_74:\n        /* \"#utility.yul\":2107:2188   */\n      tag_36\n      jump\t// in\n    tag_73:\n        /* \"#utility.yul\":2098:2188   */\n      swap1\n      pop\n        /* \"#utility.yul\":2208:2213   */\n      dup1\n        /* \"#utility.yul\":2237:2243   */\n      dup4\n        /* \"#utility.yul\":2230:2235   */\n      dup3\n        /* \"#utility.yul\":2223:2244   */\n      mstore\n        /* \"#utility.yul\":2271:2275   */\n      0x20\n        /* \"#utility.yul\":2264:2269   */\n      dup3\n        /* \"#utility.yul\":2260:2276   */\n      add\n        /* \"#utility.yul\":2253:2276   */\n      swap1\n      pop\n        /* \"#utility.yul\":2324:2328   */\n      0x20\n        /* \"#utility.yul\":2316:2322   */\n      dup5\n        /* \"#utility.yul\":2312:2329   */\n      mul\n        /* \"#utility.yul\":2304:2310   */\n      dup4\n        /* \"#utility.yul\":2300:2330   */\n      add\n        /* \"#utility.yul\":2353:2356   */\n      dup6\n        /* \"#utility.yul\":2345:2351   */\n      dup2\n        /* \"#utility.yul\":2342:2357   */\n      gt\n        /* \"#utility.yul\":2339:2461   */\n      iszero\n      tag_75\n      jumpi\n        /* \"#utility.yul\":2372:2451   */\n      tag_76\n      tag_38\n      jump\t// in\n    tag_76:\n        /* \"#utility.yul\":2339:2461   */\n    tag_75:\n        /* \"#utility.yul\":2487:2493   */\n      dup4\n        /* \"#utility.yul\":2470:2690   */\n    tag_77:\n        /* \"#utility.yul\":2504:2510   */\n      dup2\n        /* \"#utility.yul\":2499:2502   */\n      dup2\n        /* \"#utility.yul\":2496:2511   */\n      lt\n        /* \"#utility.yul\":2470:2690   */\n      iszero\n      tag_79\n      jumpi\n        /* \"#utility.yul\":2579:2582   */\n      dup1\n        /* \"#utility.yul\":2608:2645   */\n      tag_80\n        /* \"#utility.yul\":2641:2644   */\n      dup9\n        /* \"#utility.yul\":2629:2639   */\n      dup3\n        /* \"#utility.yul\":2608:2645   */\n      tag_41\n      jump\t// in\n    tag_80:\n        /* \"#utility.yul\":2603:2606   */\n      dup5\n        /* \"#utility.yul\":2596:2646   */\n      mstore\n        /* \"#utility.yul\":2675:2679   */\n      0x20\n        /* \"#utility.yul\":2670:2673   */\n      dup5\n        /* \"#utility.yul\":2666:2680   */\n      add\n        /* \"#utility.yul\":2659:2680   */\n      swap4\n      pop\n        /* \"#utility.yul\":2546:2690   */\n      pop\n        /* \"#utility.yul\":2530:2534   */\n      0x20\n        /* \"#utility.yul\":2525:2528   */\n      dup2\n        /* \"#utility.yul\":2521:2535   */\n      add\n        /* \"#utility.yul\":2514:2535   */\n      swap1\n      pop\n        /* \"#utility.yul\":2470:2690   */\n      jump(tag_77)\n    tag_79:\n        /* \"#utility.yul\":2474:2495   */\n      pop\n        /* \"#utility.yul\":2088:2696   */\n      pop\n      pop\n        /* \"#utility.yul\":1986:2696   */\n      swap4\n      swap3\n      pop\n      pop\n      pop\n      jump\t// out\n        /* \"#utility.yul\":2719:3089   */\n    tag_43:\n        /* \"#utility.yul\":2790:2795   */\n      0x00\n        /* \"#utility.yul\":2839:2842   */\n      dup3\n        /* \"#utility.yul\":2832:2836   */\n      0x1f\n        /* \"#utility.yul\":2824:2830   */\n      dup4\n        /* \"#utility.yul\":2820:2837   */\n      add\n        /* \"#utility.yul\":2816:2843   */\n      slt\n        /* \"#utility.yul\":2806:2928   */\n      tag_82\n      jumpi\n        /* \"#utility.yul\":2847:2926   */\n      tag_83\n      tag_32\n      jump\t// in\n    tag_83:\n        /* \"#utility.yul\":2806:2928   */\n    tag_82:\n        /* \"#utility.yul\":2964:2970   */\n      dup2\n        /* \"#utility.yul\":2951:2971   */\n      calldataload\n        /* \"#utility.yul\":2989:3083   */\n      tag_84\n        /* \"#utility.yul\":3079:3082   */\n      dup5\n        /* \"#utility.yul\":3071:3077   */\n      dup3\n        /* \"#utility.yul\":3064:3068   */\n      0x20\n        /* \"#utility.yul\":3056:3062   */\n      dup7\n        /* \"#utility.yul\":3052:3069   */\n      add\n        /* \"#utility.yul\":2989:3083   */\n      tag_42\n      jump\t// in\n    tag_84:\n        /* \"#utility.yul\":2980:3083   */\n      swap2\n      pop\n        /* \"#utility.yul\":2796:3089   */\n      pop\n        /* \"#utility.yul\":2719:3089   */\n      swap3\n      swap2\n      pop\n      pop\n      jump\t// out\n        /* \"#utility.yul\":3095:3779   */\n    tag_6:\n        /* \"#utility.yul\":3188:3194   */\n      0x00\n        /* \"#utility.yul\":3196:3202   */\n      0x00\n        /* \"#utility.yul\":3245:3247   */\n      0x40\n        /* \"#utility.yul\":3233:3242   */\n      dup4\n        /* \"#utility.yul\":3224:3231   */\n      dup6\n        /* \"#utility.yul\":3220:3243   */\n      sub\n        /* \"#utility.yul\":3216:3248   */\n      slt\n        /* \"#utility.yul\":3213:3332   */\n      iszero\n      tag_86\n      jumpi\n        /* \"#utility.yul\":3251:3330   */\n      tag_87\n      tag_30\n      jump\t// in\n    tag_87:\n        /* \"#utility.yul\":3213:3332   */\n    tag_86:\n        /* \"#utility.yul\":3399:3400   */\n      0x00\n        /* \"#utility.yul\":3388:3397   */\n      dup4\n        /* \"#utility.yul\":3384:3401   */\n      add\n        /* \"#utility.yul\":3371:3402   */\n      calldataload\n        /* \"#utility.yul\":3429:3447   */\n      0xffffffffffffffff\n        /* \"#utility.yul\":3421:3427   */\n      dup2\n        /* \"#utility.yul\":3418:3448   */\n      gt\n        /* \"#utility.yul\":3415:3532   */\n      iszero\n      tag_88\n      jumpi\n        /* \"#utility.yul\":3451:3530   */\n      tag_89\n      tag_31\n      jump\t// in\n    tag_89:\n        /* \"#utility.yul\":3415:3532   */\n    tag_88:\n        /* \"#utility.yul\":3556:3634   */\n      tag_90\n        /* \"#utility.yul\":3626:3633   */\n      dup6\n        /* \"#utility.yul\":3617:3623   */\n      dup3\n        /* \"#utility.yul\":3606:3615   */\n      dup7\n        /* \"#utility.yul\":3602:3624   */\n      add\n        /* \"#utility.yul\":3556:3634   */\n      tag_43\n      jump\t// in\n    tag_90:\n        /* \"#utility.yul\":3546:3634   */\n      swap3\n      pop\n        /* \"#utility.yul\":3342:3644   */\n      pop\n        /* \"#utility.yul\":3683:3685   */\n      0x20\n        /* \"#utility.yul\":3709:3762   */\n      tag_91\n        /* \"#utility.yul\":3754:3761   */\n      dup6\n        /* \"#utility.yul\":3745:3751   */\n      dup3\n        /* \"#utility.yul\":3734:3743   */\n      dup7\n        /* \"#utility.yul\":3730:3752   */\n      add\n        /* \"#utility.yul\":3709:3762   */\n      tag_41\n      jump\t// in\n    tag_91:\n        /* \"#utility.yul\":3699:3762   */\n      swap2\n      pop\n        /* \"#utility.yul\":3654:3772   */\n      pop\n        /* \"#utility.yul\":3095:3779   */\n      swap3\n      pop\n      swap3\n      swap1\n      pop\n      jump\t// out\n        /* \"#utility.yul\":3785:3861   */\n    tag_44:\n        /* \"#utility.yul\":3821:3828   */\n      0x00\n        /* \"#utility.yul\":3850:3855   */\n      dup2\n        /* \"#utility.yul\":3839:3855   */\n      swap1\n      pop\n        /* \"#utility.yul\":3785:3861   */\n      swap2\n      swap1\n      pop\n      jump\t// out\n        /* \"#utility.yul\":3867:3982   */\n    tag_45:\n        /* \"#utility.yul\":3952:3975   */\n      tag_94\n        /* \"#utility.yul\":3969:3974   */\n      dup2\n        /* \"#utility.yul\":3952:3975   */\n      tag_44\n      jump\t// in\n    tag_94:\n        /* \"#utility.yul\":3947:3950   */\n      dup3\n        /* \"#utility.yul\":3940:3976   */\n      mstore\n        /* \"#utility.yul\":3867:3982   */\n      pop\n      pop\n      jump\t// out\n        /* \"#utility.yul\":3988:4206   */\n    tag_9:\n        /* \"#utility.yul\":4079:4083   */\n      0x00\n        /* \"#utility.yul\":4117:4119   */\n      0x20\n        /* \"#utility.yul\":4106:4115   */\n      dup3\n        /* \"#utility.yul\":4102:4120   */\n      add\n        /* \"#utility.yul\":4094:4120   */\n      swap1\n      pop\n        /* \"#utility.yul\":4130:4199   */\n      tag_96\n        /* \"#utility.yul\":4196:4197   */\n      0x00\n        /* \"#utility.yul\":4185:4194   */\n      dup4\n        /* \"#utility.yul\":4181:4198   */\n      add\n        /* \"#utility.yul\":4172:4178   */\n      dup5\n        /* \"#utility.yul\":4130:4199   */\n      tag_45\n      jump\t// in\n    tag_96:\n        /* \"#utility.yul\":3988:4206   */\n      swap3\n      swap2\n      pop\n      pop\n      jump\t// out\n        /* \"#utility.yul\":4212:4392   */\n    tag_46:\n        /* \"#utility.yul\":4260:4337   */\n      0x4e487b7100000000000000000000000000000000000000000000000000000000\n        /* \"#utility.yul\":4257:4258   */\n      0x00\n        /* \"#utility.yul\":4250:4338   */\n      mstore\n        /* \"#utility.yul\":4357:4361   */\n      0x11\n        /* \"#utility.yul\":4354:4355   */\n      0x04\n        /* \"#utility.yul\":4347:4362   */\n      mstore\n        /* \"#utility.yul\":4381:4385   */\n      0x24\n        /* \"#utility.yul\":4378:4379   */\n      0x00\n        /* \"#utility.yul\":4371:4386   */\n      revert\n        /* \"#utility.yul\":4398:4592   */\n    tag_14:\n        /* \"#utility.yul\":4438:4442   */\n      0x00\n        /* \"#utility.yul\":4458:4478   */\n      tag_99\n        /* \"#utility.yul\":4476:4477   */\n      dup3\n        /* \"#utility.yul\":4458:4478   */\n      tag_39\n      jump\t// in\n    tag_99:\n        /* \"#utility.yul\":4453:4478   */\n      swap2\n      pop\n        /* \"#utility.yul\":4492:4512   */\n      tag_100\n        /* \"#utility.yul\":4510:4511   */\n      dup4\n        /* \"#utility.yul\":4492:4512   */\n      tag_39\n      jump\t// in\n    tag_100:\n        /* \"#utility.yul\":4487:4512   */\n      swap3\n      pop\n        /* \"#utility.yul\":4536:4537   */\n      dup3\n        /* \"#utility.yul\":4533:4534   */\n      dup3\n        /* \"#utility.yul\":4529:4538   */\n      sub\n        /* \"#utility.yul\":4521:4538   */\n      swap1\n      pop\n        /* \"#utility.yul\":4560:4561   */\n      dup2\n        /* \"#utility.yul\":4554:4558   */\n      dup2\n        /* \"#utility.yul\":4551:4562   */\n      gt\n        /* \"#utility.yul\":4548:4585   */\n      iszero\n      tag_101\n      jumpi\n        /* \"#utility.yul\":4565:4583   */\n      tag_102\n      tag_46\n      jump\t// in\n    tag_102:\n        /* \"#utility.yul\":4548:4585   */\n    tag_101:\n        /* \"#utility.yul\":4398:4592   */\n      swap3\n      swap2\n      pop\n      pop\n      jump\t// out\n        /* \"#utility.yul\":4598:4778   */\n    tag_47:\n        /* \"#utility.yul\":4646:4723   */\n      0x4e487b7100000000000000000000000000000000000000000000000000000000\n        /* \"#utility.yul\":4643:4644   */\n      0x00\n        /* \"#utility.yul\":4636:4724   */\n      mstore\n        /* \"#utility.yul\":4743:4747   */\n      0x12\n        /* \"#utility.yul\":4740:4741   */\n      0x04\n        /* \"#utility.yul\":4733:4748   */\n      mstore\n        /* \"#utility.yul\":4767:4771   */\n      0x24\n        /* \"#utility.yul\":4764:4765   */\n      0x00\n        /* \"#utility.yul\":4757:4772   */\n      revert\n        /* \"#utility.yul\":4784:4969   */\n    tag_16:\n        /* \"#utility.yul\":4824:4825   */\n      0x00\n        /* \"#utility.yul\":4841:4861   */\n      tag_105\n        /* \"#utility.yul\":4859:4860   */\n      dup3\n        /* \"#utility.yul\":4841:4861   */\n      tag_39\n      jump\t// in\n    tag_105:\n        /* \"#utility.yul\":4836:4861   */\n      swap2\n      pop\n        /* \"#utility.yul\":4875:4895   */\n      tag_106\n        /* \"#utility.yul\":4893:4894   */\n      dup4\n        /* \"#utility.yul\":4875:4895   */\n      tag_39\n      jump\t// in\n    tag_106:\n        /* \"#utility.yul\":4870:4895   */\n      swap3\n      pop\n        /* \"#utility.yul\":4914:4915   */\n      dup3\n        /* \"#utility.yul\":4904:4939   */\n      tag_107\n      jumpi\n        /* \"#utility.yul\":4919:4937   */\n      tag_108\n      tag_47\n      jump\t// in\n    tag_108:\n        /* \"#utility.yul\":4904:4939   */\n    tag_107:\n        /* \"#utility.yul\":4961:4962   */\n      dup3\n        /* \"#utility.yul\":4958:4959   */\n      dup3\n        /* \"#utility.yul\":4954:4963   */\n      div\n        /* \"#utility.yul\":4949:4963   */\n      swap1\n      pop\n        /* \"#utility.yul\":4784:4969   */\n      swap3\n      swap2\n      pop\n      pop\n      jump\t// out\n        /* \"#utility.yul\":4975:5166   */\n    tag_18:\n        /* \"#utility.yul\":5015:5018   */\n      0x00\n        /* \"#utility.yul\":5034:5054   */\n      tag_110\n        /* \"#utility.yul\":5052:5053   */\n      dup3\n        /* \"#utility.yul\":5034:5054   */\n      tag_39\n      jump\t// in\n    tag_110:\n        /* \"#utility.yul\":5029:5054   */\n      swap2\n      pop\n        /* \"#utility.yul\":5068:5088   */\n      tag_111\n        /* \"#utility.yul\":5086:5087   */\n      dup4\n        /* \"#utility.yul\":5068:5088   */\n      tag_39\n      jump\t// in\n    tag_111:\n        /* \"#utility.yul\":5063:5088   */\n      swap3\n      pop\n        /* \"#utility.yul\":5111:5112   */\n      dup3\n        /* \"#utility.yul\":5108:5109   */\n      dup3\n        /* \"#utility.yul\":5104:5113   */\n      add\n        /* \"#utility.yul\":5097:5113   */\n      swap1\n      pop\n        /* \"#utility.yul\":5132:5135   */\n      dup1\n        /* \"#utility.yul\":5129:5130   */\n      dup3\n        /* \"#utility.yul\":5126:5136   */\n      gt\n        /* \"#utility.yul\":5123:5159   */\n      iszero\n      tag_112\n      jumpi\n        /* \"#utility.yul\":5139:5157   */\n      tag_113\n      tag_46\n      jump\t// in\n    tag_113:\n        /* \"#utility.yul\":5123:5159   */\n    tag_112:\n        /* \"#utility.yul\":4975:5166   */\n      swap3\n      swap2\n      pop\n      pop\n      jump\t// out\n        /* \"#utility.yul\":5172:5352   */\n    tag_21:\n        /* \"#utility.yul\":5220:5297   */\n      0x4e487b7100000000000000000000000000000000000000000000000000000000\n        /* \"#utility.yul\":5217:5218   */\n      0x00\n        /* \"#utility.yul\":5210:5298   */\n      mstore\n        /* \"#utility.yul\":5317:5321   */\n      0x32\n        /* \"#utility.yul\":5314:5315   */\n      0x04\n        /* \"#utility.yul\":5307:5322   */\n      mstore\n        /* \"#utility.yul\":5341:5345   */\n      0x24\n        /* \"#utility.yul\":5338:5339   */\n      0x00\n        /* \"#utility.yul\":5331:5346   */\n      revert\n\n    auxdata: 0xa264697066735822122036c7f0dbc43fd9d47006f4ee39e627874e30ea4f359f85965e7e533d16036c1864736f6c634300081e0033\n}\n",
				"bytecode": {
					"linkReferences": {},
					"object": "6080604052348015600e575f5ffd5b506104a08061001c5f395ff3fe608060405234801561000f575f5ffd5b5060043610610029575f3560e01c806321352d8a1461002d575b5f5ffd5b610047600480360381019061004291906102c2565b61005d565b6040516100549190610334565b60405180910390f35b5f5f5f90505f845190505b80821015610102575f6002838361007f919061037a565b61008991906103da565b83610094919061040a565b9050848682815181106100aa576100a961043d565b5b6020026020010151036100c257809350505050610128565b848682815181106100d6576100d561043d565b5b602002602001015110156100f8576001816100f1919061040a565b92506100fc565b8091505b50610068565b7fffffffffffffffffffffffffffffffffffffffffffffffffffffffffffffffff925050505b92915050565b5f604051905090565b5f5ffd5b5f5ffd5b5f5ffd5b5f601f19601f8301169050919050565b7f4e487b71000000000000000000000000000000000000000000000000000000005f52604160045260245ffd5b61018982610143565b810181811067ffffffffffffffff821117156101a8576101a7610153565b5b80604052505050565b5f6101ba61012e565b90506101c68282610180565b919050565b5f67ffffffffffffffff8211156101e5576101e4610153565b5b602082029050602081019050919050565b5f5ffd5b5f819050919050565b61020c816101fa565b8114610216575f5ffd5b50565b5f8135905061022781610203565b92915050565b5f61023f61023a846101cb565b6101b1565b90508083825260208201905060208402830185811115610262576102616101f6565b5b835b8181101561028b57806102778882610219565b845260208401935050602081019050610264565b5050509392505050565b5f82601f8301126102a9576102a861013f565b5b81356102b984826020860161022d565b91505092915050565b5f5f604083850312156102d8576102d7610137565b5b5f83013567ffffffffffffffff8111156102f5576102f461013b565b5b61030185828601610295565b925050602061031285828601610219565b9150509250929050565b5f819050919050565b61032e8161031c565b82525050565b5f6020820190506103475f830184610325565b92915050565b7f4e487b71000000000000000000000000000000000000000000000000000000005f52601160045260245ffd5b5f610384826101fa565b915061038f836101fa565b92508282039050818111156103a7576103a661034d565b5b92915050565b7f4e487b71000000000000000000000000000000000000000000000000000000005f52601260045260245ffd5b5f6103e4826101fa565b91506103ef836101fa565b9250826103ff576103fe6103ad565b5b828204905092915050565b5f610414826101fa565b915061041f836101fa565b92508282019050808211156104375761043661034d565b5b92915050565b7f4e487b71000000000000000000000000000000000000000000000000000000005f52603260045260245ffdfea264697066735822122036c7f0dbc43fd9d47006f4ee39e627874e30ea4f359f85965e7e533d16036c1864736f6c634300081e0033",
					"opcodes": "PUSH1 0x80 PUSH1 0x40 MSTORE CALLVALUE DUP1 ISZERO PUSH1 0xE JUMPI PUSH0 PUSH0 REVERT JUMPDEST POP PUSH2 0x4A0 DUP1 PUSH2 0x1C PUSH0 CODECOPY PUSH0 RETURN INVALID PUSH1 0x80 PUSH1 0x40 MSTORE CALLVALUE DUP1 ISZERO PUSH2 0xF JUMPI PUSH0 PUSH0 REVERT JUMPDEST POP PUSH1 0x4 CALLDATASIZE LT PUSH2 0x29 JUMPI PUSH0 CALLDATALOAD PUSH1 0xE0 SHR DUP1 PUSH4 0x21352D8A EQ PUSH2 0x2D JUMPI JUMPDEST PUSH0 PUSH0 REVERT JUMPDEST PUSH2 0x47 PUSH1 0x4 DUP1 CALLDATASIZE SUB DUP2 ADD SWAP1 PUSH2 0x42 SWAP2 SWAP1 PUSH2 0x2C2 JUMP JUMPDEST PUSH2 0x5D JUMP JUMPDEST PUSH1 0x40 MLOAD PUSH2 0x54 SWAP2 SWAP1 PUSH2 0x334 JUMP JUMPDEST PUSH1 0x40 MLOAD DUP1 SWAP2 SUB SWAP1 RETURN JUMPDEST PUSH0 PUSH0 PUSH0 SWAP1 POP PUSH0 DUP5 MLOAD SWAP1 POP JUMPDEST DUP1 DUP3 LT ISZERO PUSH2 0x102 JUMPI PUSH0 PUSH1 0x2 DUP4 DUP4 PUSH2 0x7F SWAP2 SWAP1 PUSH2 0x37A JUMP JUMPDEST PUSH2 0x89 SWAP2 SWAP1 PUSH2 0x3DA JUMP JUMPDEST DUP4 PUSH2 0x94 SWAP2 SWAP1 PUSH2 0x40A JUMP JUMPDEST SWAP1 POP DUP5 DUP7 DUP3 DUP2 MLOAD DUP2 LT PUSH2 0xAA JUMPI PUSH2 0xA9 PUSH2 0x43D JUMP JUMPDEST JUMPDEST PUSH1 0x20 MUL PUSH1 0x20 ADD ADD MLOAD SUB PUSH2 0xC2 JUMPI DUP1 SWAP4 POP POP POP POP PUSH2 0x128 JUMP JUMPDEST DUP5 DUP7 DUP3 DUP2 MLOAD DUP2 LT PUSH2 0xD6 JUMPI PUSH2 0xD5 PUSH2 0x43D JUMP JUMPDEST JUMPDEST PUSH1 0x20 MUL PUSH1 0x20 ADD ADD MLOAD LT ISZERO PUSH2 0xF8 JUMPI PUSH1 0x1 DUP2 PUSH2 0xF1 SWAP2 SWAP1 PUSH2 0x40A JUMP JUMPDEST SWAP3 POP PUSH2 0xFC JUMP JUMPDEST DUP1 SWAP2 POP JUMPDEST POP PUSH2 0x68 JUMP JUMPDEST PUSH32 0xFFFFFFFFFFFFFFFFFFFFFFFFFFFFFFFFFFFFFFFFFFFFFFFFFFFFFFFFFFFFFFFF SWAP3 POP POP POP JUMPDEST SWAP3 SWAP2 POP POP JUMP JUMPDEST PUSH0 PUSH1 0x40 MLOAD SWAP1 POP SWAP1 JUMP JUMPDEST PUSH0 PUSH0 REVERT JUMPDEST PUSH0 PUSH0 REVERT JUMPDEST PUSH0 PUSH0 REVERT JUMPDEST PUSH0 PUSH1 0x1F NOT PUSH1 0x1F DUP4 ADD AND SWAP1 POP SWAP2 SWAP1 POP JUMP JUMPDEST PUSH32 0x4E487B7100000000000000000000000000000000000000000000000000000000 PUSH0 MSTORE PUSH1 0x41 PUSH1 0x4 MSTORE PUSH1 0x24 PUSH0 REVERT JUMPDEST PUSH2 0x189 DUP3 PUSH2 0x143 JUMP JUMPDEST DUP2 ADD DUP2 DUP2 LT PUSH8 0xFFFFFFFFFFFFFFFF DUP3 GT OR ISZERO PUSH2 0x1A8 JUMPI PUSH2 0x1A7 PUSH2 0x153 JUMP JUMPDEST JUMPDEST DUP1 PUSH1 0x40 MSTORE POP POP POP JUMP JUMPDEST PUSH0 PUSH2 0x1BA PUSH2 0x12E JUMP JUMPDEST SWAP1 POP PUSH2 0x1C6 DUP3 DUP3 PUSH2 0x180 JUMP JUMPDEST SWAP2 SWAP1 POP JUMP JUMPDEST PUSH0 PUSH8 0xFFFFFFFFFFFFFFFF DUP3 GT ISZERO PUSH2 0x1E5 JUMPI PUSH2 0x1E4 PUSH2 0x153 JUMP JUMPDEST JUMPDEST PUSH1 0x20 DUP3 MUL SWAP1 POP PUSH1 0x20 DUP2 ADD SWAP1 POP SWAP2 SWAP1 POP JUMP JUMPDEST PUSH0 PUSH0 REVERT JUMPDEST PUSH0 DUP2 SWAP1 POP SWAP2 SWAP1 POP JUMP JUMPDEST PUSH2 0x20C DUP2 PUSH2 0x1FA JUMP JUMPDEST DUP2 EQ PUSH2 0x216 JUMPI PUSH0 PUSH0 REVERT JUMPDEST POP JUMP JUMPDEST PUSH0 DUP2 CALLDATALOAD SWAP1 POP PUSH2 0x227 DUP2 PUSH2 0x203 JUMP JUMPDEST SWAP3 SWAP2 POP POP JUMP JUMPDEST PUSH0 PUSH2 0x23F PUSH2 0x23A DUP5 PUSH2 0x1CB JUMP JUMPDEST PUSH2 0x1B1 JUMP JUMPDEST SWAP1 POP DUP1 DUP4 DUP3 MSTORE PUSH1 0x20 DUP3 ADD SWAP1 POP PUSH1 0x20 DUP5 MUL DUP4 ADD DUP6 DUP2 GT ISZERO PUSH2 0x262 JUMPI PUSH2 0x261 PUSH2 0x1F6 JUMP JUMPDEST JUMPDEST DUP4 JUMPDEST DUP2 DUP2 LT ISZERO PUSH2 0x28B JUMPI DUP1 PUSH2 0x277 DUP9 DUP3 PUSH2 0x219 JUMP JUMPDEST DUP5 MSTORE PUSH1 0x20 DUP5 ADD SWAP4 POP POP PUSH1 0x20 DUP2 ADD SWAP1 POP PUSH2 0x264 JUMP JUMPDEST POP POP POP SWAP4 SWAP3 POP POP POP JUMP JUMPDEST PUSH0 DUP3 PUSH1 0x1F DUP4 ADD SLT PUSH2 0x2A9 JUMPI PUSH2 0x2A8 PUSH2 0x13F JUMP JUMPDEST JUMPDEST DUP2 CALLDATALOAD PUSH2 0x2B9 DUP5 DUP3 PUSH1 0x20 DUP7 ADD PUSH2 0x22D JUMP JUMPDEST SWAP2 POP POP SWAP3 SWAP2 POP POP JUMP JUMPDEST PUSH0 PUSH0 PUSH1 0x40 DUP4 DUP6 SUB SLT ISZERO PUSH2 0x2D8 JUMPI PUSH2 0x2D7 PUSH2 0x137 JUMP JUMPDEST JUMPDEST PUSH0 DUP4 ADD CALLDATALOAD PUSH8 0xFFFFFFFFFFFFFFFF DUP2 GT ISZERO PUSH2 0x2F5 JUMPI PUSH2 0x2F4 PUSH2 0x13B JUMP JUMPDEST JUMPDEST PUSH2 0x301 DUP6 DUP3 DUP7 ADD PUSH2 0x295 JUMP JUMPDEST SWAP3 POP POP PUSH1 0x20 PUSH2 0x312 DUP6 DUP3 DUP7 ADD PUSH2 0x219 JUMP JUMPDEST SWAP2 POP POP SWAP3 POP SWAP3 SWAP1 POP JUMP JUMPDEST PUSH0 DUP2 SWAP1 POP SWAP2 SWAP1 POP JUMP JUMPDEST PUSH2 0x32E DUP2 PUSH2 0x31C JUMP JUMPDEST DUP3 MSTORE POP POP JUMP JUMPDEST PUSH0 PUSH1 0x20 DUP3 ADD SWAP1 POP PUSH2 0x347 PUSH0 DUP4 ADD DUP5 PUSH2 0x325 JUMP JUMPDEST SWAP3 SWAP2 POP POP JUMP JUMPDEST PUSH32 0x4E487B7100000000000000000000000000000000000000000000000000000000 PUSH0 MSTORE PUSH1 0x11 PUSH1 0x4 MSTORE PUSH1 0x24 PUSH0 REVERT JUMPDEST PUSH0 PUSH2 0x384 DUP3 PUSH2 0x1FA JUMP JUMPDEST SWAP2 POP PUSH2 0x38F DUP4 PUSH2 0x1FA JUMP JUMPDEST SWAP3 POP DUP3 DUP3 SUB SWAP1 POP DUP2 DUP2 GT ISZERO PUSH2 0x3A7 JUMPI PUSH2 0x3A6 PUSH2 0x34D JUMP JUMPDEST JUMPDEST SWAP3 SWAP2 POP POP JUMP JUMPDEST PUSH32 0x4E487B7100000000000000000000000000000000000000000000000000000000 PUSH0 MSTORE PUSH1 0x12 PUSH1 0x4 MSTORE PUSH1 0x24 PUSH0 REVERT JUMPDEST PUSH0 PUSH2 0x3E4 DUP3 PUSH2 0x1FA JUMP JUMPDEST SWAP2 POP PUSH2 0x3EF DUP4 PUSH2 0x1FA JUMP JUMPDEST SWAP3 POP DUP3 PUSH2 0x3FF JUMPI PUSH2 0x3FE PUSH2 0x3AD JUMP JUMPDEST JUMPDEST DUP3 DUP3 DIV SWAP1 POP SWAP3 SWAP2 POP POP JUMP JUMPDEST PUSH0 PUSH2 0x414 DUP3 PUSH2 0x1FA JUMP JUMPDEST SWAP2 POP PUSH2 0x41F DUP4 PUSH2 0x1FA JUMP JUMPDEST SWAP3 POP DUP3 DUP3 ADD SWAP1 POP DUP1 DUP3 GT ISZERO PUSH2 0x437 JUMPI PUSH2 0x436 PUSH2 0x34D JUMP JUMPDEST JUMPDEST SWAP3 SWAP2 POP POP JUMP JUMPDEST PUSH32 0x4E487B7100000000000000000000000000000000000000000000000000000000 PUSH0 MSTORE PUSH1 0x32 PUSH1 0x4 MSTORE PUSH1 0x24 PUSH0 REVERT INVALID LOG2 PUSH5 0x6970667358 0x22 SLT KECCAK256 CALLDATASIZE 0xC7 CREATE 0xDB 0xC4 EXTCODEHASH 0xD9 0xD4 PUSH17 0x6F4EE39E627874E30EA4F359F85965E7E MSTORE8 RETURNDATASIZE AND SUB PUSH13 0x1864736F6C634300081E003300 "
				},
				"gasEstimates": {
					"creation": {
						"codeDepositCost": "236800",
						"executionCost": "273",
						"totalCost": "237073"
					},
					"external": {
						"binarySearchWithIndex(uint256[],uint256)": "infinite"
					}
				},
				"methodIdentifiers": {
					"binarySearchWithIndex(uint256[],uint256)": "21352d8a"
				}
			},
			"storageLayout": {
				"storage": [],
				"types": null
			},
			"userdoc": {
				"kind": "user",
				"methods": {},
				"version": 1
			}
		}
	}
}