{
	"solTask1/codeRoman.sol": {
		"MergerDemo": {
			"abi": [
				{
					"inputs": [],
					"name": "demonstrateMerge",
					"outputs": [
						{
							"internalType": "uint256[]",
							"name": "",
							"type": "uint256[]"
						}
					],
					"stateMutability": "pure",
					"type": "function"
				},
				{
					"inputs": [
						{
							"internalType": "uint256[]",
							"name": "arr1",
							"type": "uint256[]"
						},
						{
							"internalType": "uint256[]",
							"name": "arr2",
							"type": "uint256[]"
						}
					],
					"name": "mergeAndReturnNewArray",
					"outputs": [
						{
							"internalType": "uint256[]",
							"name": "",
							"type": "uint256[]"
						}
					],
					"stateMutability": "pure",
					"type": "function"
				}
			],
			"devdoc": {
				"kind": "dev",
				"methods": {
					"mergeAndReturnNewArray(uint256[],uint256[])": {
						"details": "合并两个有序数组并返回新数组",
						"params": {
							"arr1": "第一个有序数组",
							"arr2": "第二个有序数组"
						},
						"returns": {
							"_0": "合并后的新有序数组"
						}
					}
				},
				"version": 1
			},
			"evm": {
				"assembly": "    /* \"solTask1/codeRoman.sol\":5386:5867  contract MergerDemo is SortedArrayMerger {... */\n  mstore(0x40, 0x80)\n  callvalue\n  dup1\n  iszero\n  tag_1\n  jumpi\n  revert(0x00, 0x00)\ntag_1:\n  pop\n  dataSize(sub_0)\n  dup1\n  dataOffset(sub_0)\n  0x00\n  codecopy\n  0x00\n  return\nstop\n\nsub_0: assembly {\n        /* \"solTask1/codeRoman.sol\":5386:5867  contract MergerDemo is SortedArrayMerger {... */\n      mstore(0x40, 0x80)\n      callvalue\n      dup1\n      iszero\n      tag_1\n      jumpi\n      revert(0x00, 0x00)\n    tag_1:\n      pop\n      jumpi(tag_2, lt(calldatasize, 0x04))\n      shr(0xe0, calldataload(0x00))\n      dup1\n      0x0bb5ea40\n      eq\n      tag_3\n      jumpi\n      dup1\n      0x7bbfb8e8\n      eq\n      tag_4\n      jumpi\n    tag_2:\n      revert(0x00, 0x00)\n        /* \"solTask1/codeRoman.sol\":5434:5864  function demonstrateMerge() public pure returns (uint[] memory) {... */\n    tag_3:\n      tag_5\n      tag_6\n      jump\t// in\n    tag_5:\n      mload(0x40)\n      tag_7\n      swap2\n      swap1\n      tag_8\n      jump\t// in\n    tag_7:\n      mload(0x40)\n      dup1\n      swap2\n      sub\n      swap1\n      return\n        /* \"solTask1/codeRoman.sol\":4443:5381  function mergeAndReturnNewArray(... */\n    tag_4:\n      tag_9\n      0x04\n      dup1\n      calldatasize\n      sub\n      dup2\n      add\n      swap1\n      tag_10\n      swap2\n      swap1\n      tag_11\n      jump\t// in\n    tag_10:\n      tag_12\n      jump\t// in\n    tag_9:\n      mload(0x40)\n      tag_13\n      swap2\n      swap1\n      tag_8\n      jump\t// in\n    tag_13:\n      mload(0x40)\n      dup1\n      swap2\n      sub\n      swap1\n      return\n        /* \"solTask1/codeRoman.sol\":5434:5864  function demonstrateMerge() public pure returns (uint[] memory) {... */\n    tag_6:\n        /* \"solTask1/codeRoman.sol\":5483:5496  uint[] memory */\n      0x60\n        /* \"solTask1/codeRoman.sol\":5509:5527  uint[] memory arr1 */\n      0x00\n        /* \"solTask1/codeRoman.sol\":5541:5542  3 */\n      0x03\n        /* \"solTask1/codeRoman.sol\":5530:5543  new uint[](3) */\n      0xffffffffffffffff\n      dup2\n      gt\n      iszero\n      tag_15\n      jumpi\n      tag_16\n      tag_17\n      jump\t// in\n    tag_16:\n    tag_15:\n      mload(0x40)\n      swap1\n      dup1\n      dup3\n      mstore\n      dup1\n      0x20\n      mul\n      0x20\n      add\n      dup3\n      add\n      0x40\n      mstore\n      dup1\n      iszero\n      tag_18\n      jumpi\n      dup2\n      0x20\n      add\n      0x20\n      dup3\n      mul\n      dup1\n      calldatasize\n      dup4\n      calldatacopy\n      dup1\n      dup3\n      add\n      swap2\n      pop\n      pop\n      swap1\n      pop\n    tag_18:\n      pop\n        /* \"solTask1/codeRoman.sol\":5509:5543  uint[] memory arr1 = new uint[](3) */\n      swap1\n      pop\n        /* \"solTask1/codeRoman.sol\":5564:5565  1 */\n      0x01\n        /* \"solTask1/codeRoman.sol\":5554:5558  arr1 */\n      dup2\n        /* \"solTask1/codeRoman.sol\":5559:5560  0 */\n      0x00\n        /* \"solTask1/codeRoman.sol\":5554:5561  arr1[0] */\n      dup2\n      mload\n      dup2\n      lt\n      tag_19\n      jumpi\n      tag_20\n      tag_21\n      jump\t// in\n    tag_20:\n    tag_19:\n      0x20\n      mul\n      0x20\n      add\n      add\n        /* \"solTask1/codeRoman.sol\":5554:5565  arr1[0] = 1 */\n      dup2\n      dup2\n      mstore\n      pop\n      pop\n        /* \"solTask1/codeRoman.sol\":5586:5587  3 */\n      0x03\n        /* \"solTask1/codeRoman.sol\":5576:5580  arr1 */\n      dup2\n        /* \"solTask1/codeRoman.sol\":5581:5582  1 */\n      0x01\n        /* \"solTask1/codeRoman.sol\":5576:5583  arr1[1] */\n      dup2\n      mload\n      dup2\n      lt\n      tag_22\n      jumpi\n      tag_23\n      tag_21\n      jump\t// in\n    tag_23:\n    tag_22:\n      0x20\n      mul\n      0x20\n      add\n      add\n        /* \"solTask1/codeRoman.sol\":5576:5587  arr1[1] = 3 */\n      dup2\n      dup2\n      mstore\n      pop\n      pop\n        /* \"solTask1/codeRoman.sol\":5608:5609  5 */\n      0x05\n        /* \"solTask1/codeRoman.sol\":5598:5602  arr1 */\n      dup2\n        /* \"solTask1/codeRoman.sol\":5603:5604  2 */\n      0x02\n        /* \"solTask1/codeRoman.sol\":5598:5605  arr1[2] */\n      dup2\n      mload\n      dup2\n      lt\n      tag_24\n      jumpi\n      tag_25\n      tag_21\n      jump\t// in\n    tag_25:\n    tag_24:\n      0x20\n      mul\n      0x20\n      add\n      add\n        /* \"solTask1/codeRoman.sol\":5598:5609  arr1[2] = 5 */\n      dup2\n      dup2\n      mstore\n      pop\n      pop\n        /* \"solTask1/codeRoman.sol\":5630:5648  uint[] memory arr2 */\n      0x00\n        /* \"solTask1/codeRoman.sol\":5662:5663  4 */\n      0x04\n        /* \"solTask1/codeRoman.sol\":5651:5664  new uint[](4) */\n      0xffffffffffffffff\n      dup2\n      gt\n      iszero\n      tag_26\n      jumpi\n      tag_27\n      tag_17\n      jump\t// in\n    tag_27:\n    tag_26:\n      mload(0x40)\n      swap1\n      dup1\n      dup3\n      mstore\n      dup1\n      0x20\n      mul\n      0x20\n      add\n      dup3\n      add\n      0x40\n      mstore\n      dup1\n      iszero\n      tag_28\n      jumpi\n      dup2\n      0x20\n      add\n      0x20\n      dup3\n      mul\n      dup1\n      calldatasize\n      dup4\n      calldatacopy\n      dup1\n      dup3\n      add\n      swap2\n      pop\n      pop\n      swap1\n      pop\n    tag_28:\n      pop\n        /* \"solTask1/codeRoman.sol\":5630:5664  uint[] memory arr2 = new uint[](4) */\n      swap1\n      pop\n        /* \"solTask1/codeRoman.sol\":5685:5686  2 */\n      0x02\n        /* \"solTask1/codeRoman.sol\":5675:5679  arr2 */\n      dup2\n        /* \"solTask1/codeRoman.sol\":5680:5681  0 */\n      0x00\n        /* \"solTask1/codeRoman.sol\":5675:5682  arr2[0] */\n      dup2\n      mload\n      dup2\n      lt\n      tag_29\n      jumpi\n      tag_30\n      tag_21\n      jump\t// in\n    tag_30:\n    tag_29:\n      0x20\n      mul\n      0x20\n      add\n      add\n        /* \"solTask1/codeRoman.sol\":5675:5686  arr2[0] = 2 */\n      dup2\n      dup2\n      mstore\n      pop\n      pop\n        /* \"solTask1/codeRoman.sol\":5707:5708  4 */\n      0x04\n        /* \"solTask1/codeRoman.sol\":5697:5701  arr2 */\n      dup2\n        /* \"solTask1/codeRoman.sol\":5702:5703  1 */\n      0x01\n        /* \"solTask1/codeRoman.sol\":5697:5704  arr2[1] */\n      dup2\n      mload\n      dup2\n      lt\n      tag_31\n      jumpi\n      tag_32\n      tag_21\n      jump\t// in\n    tag_32:\n    tag_31:\n      0x20\n      mul\n      0x20\n      add\n      add\n        /* \"solTask1/codeRoman.sol\":5697:5708  arr2[1] = 4 */\n      dup2\n      dup2\n      mstore\n      pop\n      pop\n        /* \"solTask1/codeRoman.sol\":5729:5730  6 */\n      0x06\n        /* \"solTask1/codeRoman.sol\":5719:5723  arr2 */\n      dup2\n        /* \"solTask1/codeRoman.sol\":5724:5725  2 */\n      0x02\n        /* \"solTask1/codeRoman.sol\":5719:5726  arr2[2] */\n      dup2\n      mload\n      dup2\n      lt\n      tag_33\n      jumpi\n      tag_34\n      tag_21\n      jump\t// in\n    tag_34:\n    tag_33:\n      0x20\n      mul\n      0x20\n      add\n      add\n        /* \"solTask1/codeRoman.sol\":5719:5730  arr2[2] = 6 */\n      dup2\n      dup2\n      mstore\n      pop\n      pop\n        /* \"solTask1/codeRoman.sol\":5751:5752  8 */\n      0x08\n        /* \"solTask1/codeRoman.sol\":5741:5745  arr2 */\n      dup2\n        /* \"solTask1/codeRoman.sol\":5746:5747  3 */\n      0x03\n        /* \"solTask1/codeRoman.sol\":5741:5748  arr2[3] */\n      dup2\n      mload\n      dup2\n      lt\n      tag_35\n      jumpi\n      tag_36\n      tag_21\n      jump\t// in\n    tag_36:\n    tag_35:\n      0x20\n      mul\n      0x20\n      add\n      add\n        /* \"solTask1/codeRoman.sol\":5741:5752  arr2[3] = 8 */\n      dup2\n      dup2\n      mstore\n      pop\n      pop\n        /* \"solTask1/codeRoman.sol\":5780:5814  mergeAndReturnNewArray(arr1, arr2) */\n      tag_37\n        /* \"solTask1/codeRoman.sol\":5803:5807  arr1 */\n      dup3\n        /* \"solTask1/codeRoman.sol\":5809:5813  arr2 */\n      dup3\n        /* \"solTask1/codeRoman.sol\":5780:5802  mergeAndReturnNewArray */\n      tag_12\n        /* \"solTask1/codeRoman.sol\":5780:5814  mergeAndReturnNewArray(arr1, arr2) */\n      jump\t// in\n    tag_37:\n        /* \"solTask1/codeRoman.sol\":5773:5814  return mergeAndReturnNewArray(arr1, arr2) */\n      swap3\n      pop\n      pop\n      pop\n        /* \"solTask1/codeRoman.sol\":5434:5864  function demonstrateMerge() public pure returns (uint[] memory) {... */\n      swap1\n      jump\t// out\n        /* \"solTask1/codeRoman.sol\":4443:5381  function mergeAndReturnNewArray(... */\n    tag_12:\n        /* \"solTask1/codeRoman.sol\":4561:4574  uint[] memory */\n      0x60\n        /* \"solTask1/codeRoman.sol\":4587:4593  uint m */\n      0x00\n        /* \"solTask1/codeRoman.sol\":4596:4600  arr1 */\n      dup4\n        /* \"solTask1/codeRoman.sol\":4596:4607  arr1.length */\n      mload\n        /* \"solTask1/codeRoman.sol\":4587:4607  uint m = arr1.length */\n      swap1\n      pop\n        /* \"solTask1/codeRoman.sol\":4618:4624  uint n */\n      0x00\n        /* \"solTask1/codeRoman.sol\":4627:4631  arr2 */\n      dup4\n        /* \"solTask1/codeRoman.sol\":4627:4638  arr2.length */\n      mload\n        /* \"solTask1/codeRoman.sol\":4618:4638  uint n = arr2.length */\n      swap1\n      pop\n        /* \"solTask1/codeRoman.sol\":4649:4669  uint[] memory merged */\n      0x00\n        /* \"solTask1/codeRoman.sol\":4687:4688  n */\n      dup2\n        /* \"solTask1/codeRoman.sol\":4683:4684  m */\n      dup4\n        /* \"solTask1/codeRoman.sol\":4683:4688  m + n */\n      tag_39\n      swap2\n      swap1\n      tag_40\n      jump\t// in\n    tag_39:\n        /* \"solTask1/codeRoman.sol\":4672:4689  new uint[](m + n) */\n      0xffffffffffffffff\n      dup2\n      gt\n      iszero\n      tag_41\n      jumpi\n      tag_42\n      tag_17\n      jump\t// in\n    tag_42:\n    tag_41:\n      mload(0x40)\n      swap1\n      dup1\n      dup3\n      mstore\n      dup1\n      0x20\n      mul\n      0x20\n      add\n      dup3\n      add\n      0x40\n      mstore\n      dup1\n      iszero\n      tag_43\n      jumpi\n      dup2\n      0x20\n      add\n      0x20\n      dup3\n      mul\n      dup1\n      calldatasize\n      dup4\n      calldatacopy\n      dup1\n      dup3\n      add\n      swap2\n      pop\n      pop\n      swap1\n      pop\n    tag_43:\n      pop\n        /* \"solTask1/codeRoman.sol\":4649:4689  uint[] memory merged = new uint[](m + n) */\n      swap1\n      pop\n        /* \"solTask1/codeRoman.sol\":4710:4716  uint i */\n      0x00\n        /* \"solTask1/codeRoman.sol\":4719:4720  0 */\n      0x00\n        /* \"solTask1/codeRoman.sol\":4710:4720  uint i = 0 */\n      swap1\n      pop\n        /* \"solTask1/codeRoman.sol\":4746:4752  uint j */\n      0x00\n        /* \"solTask1/codeRoman.sol\":4755:4756  0 */\n      0x00\n        /* \"solTask1/codeRoman.sol\":4746:4756  uint j = 0 */\n      swap1\n      pop\n        /* \"solTask1/codeRoman.sol\":4782:4788  uint k */\n      0x00\n        /* \"solTask1/codeRoman.sol\":4791:4792  0 */\n      0x00\n        /* \"solTask1/codeRoman.sol\":4782:4792  uint k = 0 */\n      swap1\n      pop\n        /* \"solTask1/codeRoman.sol\":4853:5101  while (i < m && j < n) {... */\n    tag_44:\n        /* \"solTask1/codeRoman.sol\":4864:4865  m */\n      dup6\n        /* \"solTask1/codeRoman.sol\":4860:4861  i */\n      dup4\n        /* \"solTask1/codeRoman.sol\":4860:4865  i < m */\n      lt\n        /* \"solTask1/codeRoman.sol\":4860:4874  i < m && j < n */\n      dup1\n      iszero\n      tag_46\n      jumpi\n      pop\n        /* \"solTask1/codeRoman.sol\":4873:4874  n */\n      dup5\n        /* \"solTask1/codeRoman.sol\":4869:4870  j */\n      dup3\n        /* \"solTask1/codeRoman.sol\":4869:4874  j < n */\n      lt\n        /* \"solTask1/codeRoman.sol\":4860:4874  i < m && j < n */\n    tag_46:\n        /* \"solTask1/codeRoman.sol\":4853:5101  while (i < m && j < n) {... */\n      iszero\n      tag_45\n      jumpi\n        /* \"solTask1/codeRoman.sol\":4905:4909  arr2 */\n      dup8\n        /* \"solTask1/codeRoman.sol\":4910:4911  j */\n      dup3\n        /* \"solTask1/codeRoman.sol\":4905:4912  arr2[j] */\n      dup2\n      mload\n      dup2\n      lt\n      tag_47\n      jumpi\n      tag_48\n      tag_21\n      jump\t// in\n    tag_48:\n    tag_47:\n      0x20\n      mul\n      0x20\n      add\n      add\n      mload\n        /* \"solTask1/codeRoman.sol\":4895:4899  arr1 */\n      dup10\n        /* \"solTask1/codeRoman.sol\":4900:4901  i */\n      dup5\n        /* \"solTask1/codeRoman.sol\":4895:4902  arr1[i] */\n      dup2\n      mload\n      dup2\n      lt\n      tag_49\n      jumpi\n      tag_50\n      tag_21\n      jump\t// in\n    tag_50:\n    tag_49:\n      0x20\n      mul\n      0x20\n      add\n      add\n      mload\n        /* \"solTask1/codeRoman.sol\":4895:4912  arr1[i] < arr2[j] */\n      lt\n        /* \"solTask1/codeRoman.sol\":4891:5072  if (arr1[i] < arr2[j]) {... */\n      iszero\n      tag_51\n      jumpi\n        /* \"solTask1/codeRoman.sol\":4945:4949  arr1 */\n      dup9\n        /* \"solTask1/codeRoman.sol\":4950:4951  i */\n      dup4\n        /* \"solTask1/codeRoman.sol\":4945:4952  arr1[i] */\n      dup2\n      mload\n      dup2\n      lt\n      tag_52\n      jumpi\n      tag_53\n      tag_21\n      jump\t// in\n    tag_53:\n    tag_52:\n      0x20\n      mul\n      0x20\n      add\n      add\n      mload\n        /* \"solTask1/codeRoman.sol\":4933:4939  merged */\n      dup5\n        /* \"solTask1/codeRoman.sol\":4940:4941  k */\n      dup3\n        /* \"solTask1/codeRoman.sol\":4933:4942  merged[k] */\n      dup2\n      mload\n      dup2\n      lt\n      tag_54\n      jumpi\n      tag_55\n      tag_21\n      jump\t// in\n    tag_55:\n    tag_54:\n      0x20\n      mul\n      0x20\n      add\n      add\n        /* \"solTask1/codeRoman.sol\":4933:4952  merged[k] = arr1[i] */\n      dup2\n      dup2\n      mstore\n      pop\n      pop\n        /* \"solTask1/codeRoman.sol\":4971:4974  i++ */\n      dup3\n      dup1\n      tag_56\n      swap1\n      tag_57\n      jump\t// in\n    tag_56:\n      swap4\n      pop\n      pop\n        /* \"solTask1/codeRoman.sol\":4891:5072  if (arr1[i] < arr2[j]) {... */\n      jump(tag_58)\n    tag_51:\n        /* \"solTask1/codeRoman.sol\":5027:5031  arr2 */\n      dup8\n        /* \"solTask1/codeRoman.sol\":5032:5033  j */\n      dup3\n        /* \"solTask1/codeRoman.sol\":5027:5034  arr2[j] */\n      dup2\n      mload\n      dup2\n      lt\n      tag_59\n      jumpi\n      tag_60\n      tag_21\n      jump\t// in\n    tag_60:\n    tag_59:\n      0x20\n      mul\n      0x20\n      add\n      add\n      mload\n        /* \"solTask1/codeRoman.sol\":5015:5021  merged */\n      dup5\n        /* \"solTask1/codeRoman.sol\":5022:5023  k */\n      dup3\n        /* \"solTask1/codeRoman.sol\":5015:5024  merged[k] */\n      dup2\n      mload\n      dup2\n      lt\n      tag_61\n      jumpi\n      tag_62\n      tag_21\n      jump\t// in\n    tag_62:\n    tag_61:\n      0x20\n      mul\n      0x20\n      add\n      add\n        /* \"solTask1/codeRoman.sol\":5015:5034  merged[k] = arr2[j] */\n      dup2\n      dup2\n      mstore\n      pop\n      pop\n        /* \"solTask1/codeRoman.sol\":5053:5056  j++ */\n      dup2\n      dup1\n      tag_63\n      swap1\n      tag_57\n      jump\t// in\n    tag_63:\n      swap3\n      pop\n      pop\n        /* \"solTask1/codeRoman.sol\":4891:5072  if (arr1[i] < arr2[j]) {... */\n    tag_58:\n        /* \"solTask1/codeRoman.sol\":5086:5089  k++ */\n      dup1\n      dup1\n      tag_64\n      swap1\n      tag_57\n      jump\t// in\n    tag_64:\n      swap2\n      pop\n      pop\n        /* \"solTask1/codeRoman.sol\":4853:5101  while (i < m && j < n) {... */\n      jump(tag_44)\n    tag_45:\n        /* \"solTask1/codeRoman.sol\":5144:5240  while (i < m) {... */\n    tag_65:\n        /* \"solTask1/codeRoman.sol\":5155:5156  m */\n      dup6\n        /* \"solTask1/codeRoman.sol\":5151:5152  i */\n      dup4\n        /* \"solTask1/codeRoman.sol\":5151:5156  i < m */\n      lt\n        /* \"solTask1/codeRoman.sol\":5144:5240  while (i < m) {... */\n      iszero\n      tag_66\n      jumpi\n        /* \"solTask1/codeRoman.sol\":5185:5189  arr1 */\n      dup9\n        /* \"solTask1/codeRoman.sol\":5190:5191  i */\n      dup4\n        /* \"solTask1/codeRoman.sol\":5185:5192  arr1[i] */\n      dup2\n      mload\n      dup2\n      lt\n      tag_67\n      jumpi\n      tag_68\n      tag_21\n      jump\t// in\n    tag_68:\n    tag_67:\n      0x20\n      mul\n      0x20\n      add\n      add\n      mload\n        /* \"solTask1/codeRoman.sol\":5173:5179  merged */\n      dup5\n        /* \"solTask1/codeRoman.sol\":5180:5181  k */\n      dup3\n        /* \"solTask1/codeRoman.sol\":5173:5182  merged[k] */\n      dup2\n      mload\n      dup2\n      lt\n      tag_69\n      jumpi\n      tag_70\n      tag_21\n      jump\t// in\n    tag_70:\n    tag_69:\n      0x20\n      mul\n      0x20\n      add\n      add\n        /* \"solTask1/codeRoman.sol\":5173:5192  merged[k] = arr1[i] */\n      dup2\n      dup2\n      mstore\n      pop\n      pop\n        /* \"solTask1/codeRoman.sol\":5207:5210  i++ */\n      dup3\n      dup1\n      tag_71\n      swap1\n      tag_57\n      jump\t// in\n    tag_71:\n      swap4\n      pop\n      pop\n        /* \"solTask1/codeRoman.sol\":5225:5228  k++ */\n      dup1\n      dup1\n      tag_72\n      swap1\n      tag_57\n      jump\t// in\n    tag_72:\n      swap2\n      pop\n      pop\n        /* \"solTask1/codeRoman.sol\":5144:5240  while (i < m) {... */\n      jump(tag_65)\n    tag_66:\n        /* \"solTask1/codeRoman.sol\":5252:5348  while (j < n) {... */\n    tag_73:\n        /* \"solTask1/codeRoman.sol\":5263:5264  n */\n      dup5\n        /* \"solTask1/codeRoman.sol\":5259:5260  j */\n      dup3\n        /* \"solTask1/codeRoman.sol\":5259:5264  j < n */\n      lt\n        /* \"solTask1/codeRoman.sol\":5252:5348  while (j < n) {... */\n      iszero\n      tag_74\n      jumpi\n        /* \"solTask1/codeRoman.sol\":5293:5297  arr2 */\n      dup8\n        /* \"solTask1/codeRoman.sol\":5298:5299  j */\n      dup3\n        /* \"solTask1/codeRoman.sol\":5293:5300  arr2[j] */\n      dup2\n      mload\n      dup2\n      lt\n      tag_75\n      jumpi\n      tag_76\n      tag_21\n      jump\t// in\n    tag_76:\n    tag_75:\n      0x20\n      mul\n      0x20\n      add\n      add\n      mload\n        /* \"solTask1/codeRoman.sol\":5281:5287  merged */\n      dup5\n        /* \"solTask1/codeRoman.sol\":5288:5289  k */\n      dup3\n        /* \"solTask1/codeRoman.sol\":5281:5290  merged[k] */\n      dup2\n      mload\n      dup2\n      lt\n      tag_77\n      jumpi\n      tag_78\n      tag_21\n      jump\t// in\n    tag_78:\n    tag_77:\n      0x20\n      mul\n      0x20\n      add\n      add\n        /* \"solTask1/codeRoman.sol\":5281:5300  merged[k] = arr2[j] */\n      dup2\n      dup2\n      mstore\n      pop\n      pop\n        /* \"solTask1/codeRoman.sol\":5315:5318  j++ */\n      dup2\n      dup1\n      tag_79\n      swap1\n      tag_57\n      jump\t// in\n    tag_79:\n      swap3\n      pop\n      pop\n        /* \"solTask1/codeRoman.sol\":5333:5336  k++ */\n      dup1\n      dup1\n      tag_80\n      swap1\n      tag_57\n      jump\t// in\n    tag_80:\n      swap2\n      pop\n      pop\n        /* \"solTask1/codeRoman.sol\":5252:5348  while (j < n) {... */\n      jump(tag_73)\n    tag_74:\n        /* \"solTask1/codeRoman.sol\":5367:5373  merged */\n      dup4\n        /* \"solTask1/codeRoman.sol\":5360:5373  return merged */\n      swap7\n      pop\n      pop\n      pop\n      pop\n      pop\n      pop\n      pop\n        /* \"solTask1/codeRoman.sol\":4443:5381  function mergeAndReturnNewArray(... */\n      swap3\n      swap2\n      pop\n      pop\n      jump\t// out\n        /* \"#utility.yul\":7:121   */\n    tag_81:\n        /* \"#utility.yul\":74:80   */\n      0x00\n        /* \"#utility.yul\":108:113   */\n      dup2\n        /* \"#utility.yul\":102:114   */\n      mload\n        /* \"#utility.yul\":92:114   */\n      swap1\n      pop\n        /* \"#utility.yul\":7:121   */\n      swap2\n      swap1\n      pop\n      jump\t// out\n        /* \"#utility.yul\":127:311   */\n    tag_82:\n        /* \"#utility.yul\":226:237   */\n      0x00\n        /* \"#utility.yul\":260:266   */\n      dup3\n        /* \"#utility.yul\":255:258   */\n      dup3\n        /* \"#utility.yul\":248:267   */\n      mstore\n        /* \"#utility.yul\":300:304   */\n      0x20\n        /* \"#utility.yul\":295:298   */\n      dup3\n        /* \"#utility.yul\":291:305   */\n      add\n        /* \"#utility.yul\":276:305   */\n      swap1\n      pop\n        /* \"#utility.yul\":127:311   */\n      swap3\n      swap2\n      pop\n      pop\n      jump\t// out\n        /* \"#utility.yul\":317:449   */\n    tag_83:\n        /* \"#utility.yul\":384:388   */\n      0x00\n        /* \"#utility.yul\":407:410   */\n      dup2\n        /* \"#utility.yul\":399:410   */\n      swap1\n      pop\n        /* \"#utility.yul\":437:441   */\n      0x20\n        /* \"#utility.yul\":432:435   */\n      dup3\n        /* \"#utility.yul\":428:442   */\n      add\n        /* \"#utility.yul\":420:442   */\n      swap1\n      pop\n        /* \"#utility.yul\":317:449   */\n      swap2\n      swap1\n      pop\n      jump\t// out\n        /* \"#utility.yul\":455:532   */\n    tag_84:\n        /* \"#utility.yul\":492:499   */\n      0x00\n        /* \"#utility.yul\":521:526   */\n      dup2\n        /* \"#utility.yul\":510:526   */\n      swap1\n      pop\n        /* \"#utility.yul\":455:532   */\n      swap2\n      swap1\n      pop\n      jump\t// out\n        /* \"#utility.yul\":538:646   */\n    tag_85:\n        /* \"#utility.yul\":615:639   */\n      tag_109\n        /* \"#utility.yul\":633:638   */\n      dup2\n        /* \"#utility.yul\":615:639   */\n      tag_84\n      jump\t// in\n    tag_109:\n        /* \"#utility.yul\":610:613   */\n      dup3\n        /* \"#utility.yul\":603:640   */\n      mstore\n        /* \"#utility.yul\":538:646   */\n      pop\n      pop\n      jump\t// out\n        /* \"#utility.yul\":652:831   */\n    tag_86:\n        /* \"#utility.yul\":721:731   */\n      0x00\n        /* \"#utility.yul\":742:788   */\n      tag_111\n        /* \"#utility.yul\":784:787   */\n      dup4\n        /* \"#utility.yul\":776:782   */\n      dup4\n        /* \"#utility.yul\":742:788   */\n      tag_85\n      jump\t// in\n    tag_111:\n        /* \"#utility.yul\":820:824   */\n      0x20\n        /* \"#utility.yul\":815:818   */\n      dup4\n        /* \"#utility.yul\":811:825   */\n      add\n        /* \"#utility.yul\":797:825   */\n      swap1\n      pop\n        /* \"#utility.yul\":652:831   */\n      swap3\n      swap2\n      pop\n      pop\n      jump\t// out\n        /* \"#utility.yul\":837:950   */\n    tag_87:\n        /* \"#utility.yul\":907:911   */\n      0x00\n        /* \"#utility.yul\":939:943   */\n      0x20\n        /* \"#utility.yul\":934:937   */\n      dup3\n        /* \"#utility.yul\":930:944   */\n      add\n        /* \"#utility.yul\":922:944   */\n      swap1\n      pop\n        /* \"#utility.yul\":837:950   */\n      swap2\n      swap1\n      pop\n      jump\t// out\n        /* \"#utility.yul\":986:1718   */\n    tag_88:\n        /* \"#utility.yul\":1105:1108   */\n      0x00\n        /* \"#utility.yul\":1134:1188   */\n      tag_114\n        /* \"#utility.yul\":1182:1187   */\n      dup3\n        /* \"#utility.yul\":1134:1188   */\n      tag_81\n      jump\t// in\n    tag_114:\n        /* \"#utility.yul\":1204:1290   */\n      tag_115\n        /* \"#utility.yul\":1283:1289   */\n      dup2\n        /* \"#utility.yul\":1278:1281   */\n      dup6\n        /* \"#utility.yul\":1204:1290   */\n      tag_82\n      jump\t// in\n    tag_115:\n        /* \"#utility.yul\":1197:1290   */\n      swap4\n      pop\n        /* \"#utility.yul\":1314:1370   */\n      tag_116\n        /* \"#utility.yul\":1364:1369   */\n      dup4\n        /* \"#utility.yul\":1314:1370   */\n      tag_83\n      jump\t// in\n    tag_116:\n        /* \"#utility.yul\":1393:1400   */\n      dup1\n        /* \"#utility.yul\":1424:1425   */\n      0x00\n        /* \"#utility.yul\":1409:1693   */\n    tag_117:\n        /* \"#utility.yul\":1434:1440   */\n      dup4\n        /* \"#utility.yul\":1431:1432   */\n      dup2\n        /* \"#utility.yul\":1428:1441   */\n      lt\n        /* \"#utility.yul\":1409:1693   */\n      iszero\n      tag_119\n      jumpi\n        /* \"#utility.yul\":1510:1516   */\n      dup2\n        /* \"#utility.yul\":1504:1517   */\n      mload\n        /* \"#utility.yul\":1537:1600   */\n      tag_120\n        /* \"#utility.yul\":1596:1599   */\n      dup9\n        /* \"#utility.yul\":1581:1594   */\n      dup3\n        /* \"#utility.yul\":1537:1600   */\n      tag_86\n      jump\t// in\n    tag_120:\n        /* \"#utility.yul\":1530:1600   */\n      swap8\n      pop\n        /* \"#utility.yul\":1623:1683   */\n      tag_121\n        /* \"#utility.yul\":1676:1682   */\n      dup4\n        /* \"#utility.yul\":1623:1683   */\n      tag_87\n      jump\t// in\n    tag_121:\n        /* \"#utility.yul\":1613:1683   */\n      swap3\n      pop\n        /* \"#utility.yul\":1469:1693   */\n      pop\n        /* \"#utility.yul\":1456:1457   */\n      0x01\n        /* \"#utility.yul\":1453:1454   */\n      dup2\n        /* \"#utility.yul\":1449:1458   */\n      add\n        /* \"#utility.yul\":1444:1458   */\n      swap1\n      pop\n        /* \"#utility.yul\":1409:1693   */\n      jump(tag_117)\n    tag_119:\n        /* \"#utility.yul\":1413:1427   */\n      pop\n        /* \"#utility.yul\":1709:1712   */\n      dup6\n        /* \"#utility.yul\":1702:1712   */\n      swap4\n      pop\n        /* \"#utility.yul\":1110:1718   */\n      pop\n      pop\n      pop\n        /* \"#utility.yul\":986:1718   */\n      swap3\n      swap2\n      pop\n      pop\n      jump\t// out\n        /* \"#utility.yul\":1724:2097   */\n    tag_8:\n        /* \"#utility.yul\":1867:1871   */\n      0x00\n        /* \"#utility.yul\":1905:1907   */\n      0x20\n        /* \"#utility.yul\":1894:1903   */\n      dup3\n        /* \"#utility.yul\":1890:1908   */\n      add\n        /* \"#utility.yul\":1882:1908   */\n      swap1\n      pop\n        /* \"#utility.yul\":1954:1963   */\n      dup2\n        /* \"#utility.yul\":1948:1952   */\n      dup2\n        /* \"#utility.yul\":1944:1964   */\n      sub\n        /* \"#utility.yul\":1940:1941   */\n      0x00\n        /* \"#utility.yul\":1929:1938   */\n      dup4\n        /* \"#utility.yul\":1925:1942   */\n      add\n        /* \"#utility.yul\":1918:1965   */\n      mstore\n        /* \"#utility.yul\":1982:2090   */\n      tag_123\n        /* \"#utility.yul\":2085:2089   */\n      dup2\n        /* \"#utility.yul\":2076:2082   */\n      dup5\n        /* \"#utility.yul\":1982:2090   */\n      tag_88\n      jump\t// in\n    tag_123:\n        /* \"#utility.yul\":1974:2090   */\n      swap1\n      pop\n        /* \"#utility.yul\":1724:2097   */\n      swap3\n      swap2\n      pop\n      pop\n      jump\t// out\n        /* \"#utility.yul\":2103:2178   */\n    tag_89:\n        /* \"#utility.yul\":2136:2142   */\n      0x00\n        /* \"#utility.yul\":2169:2171   */\n      0x40\n        /* \"#utility.yul\":2163:2172   */\n      mload\n        /* \"#utility.yul\":2153:2172   */\n      swap1\n      pop\n        /* \"#utility.yul\":2103:2178   */\n      swap1\n      jump\t// out\n        /* \"#utility.yul\":2184:2301   */\n    tag_90:\n        /* \"#utility.yul\":2293:2294   */\n      0x00\n        /* \"#utility.yul\":2290:2291   */\n      0x00\n        /* \"#utility.yul\":2283:2295   */\n      revert\n        /* \"#utility.yul\":2307:2424   */\n    tag_91:\n        /* \"#utility.yul\":2416:2417   */\n      0x00\n        /* \"#utility.yul\":2413:2414   */\n      0x00\n        /* \"#utility.yul\":2406:2418   */\n      revert\n        /* \"#utility.yul\":2430:2547   */\n    tag_92:\n        /* \"#utility.yul\":2539:2540   */\n      0x00\n        /* \"#utility.yul\":2536:2537   */\n      0x00\n        /* \"#utility.yul\":2529:2541   */\n      revert\n        /* \"#utility.yul\":2553:2655   */\n    tag_93:\n        /* \"#utility.yul\":2594:2600   */\n      0x00\n        /* \"#utility.yul\":2645:2647   */\n      0x1f\n        /* \"#utility.yul\":2641:2648   */\n      not\n        /* \"#utility.yul\":2636:2638   */\n      0x1f\n        /* \"#utility.yul\":2629:2634   */\n      dup4\n        /* \"#utility.yul\":2625:2639   */\n      add\n        /* \"#utility.yul\":2621:2649   */\n      and\n        /* \"#utility.yul\":2611:2649   */\n      swap1\n      pop\n        /* \"#utility.yul\":2553:2655   */\n      swap2\n      swap1\n      pop\n      jump\t// out\n        /* \"#utility.yul\":2661:2841   */\n    tag_17:\n        /* \"#utility.yul\":2709:2786   */\n      0x4e487b7100000000000000000000000000000000000000000000000000000000\n        /* \"#utility.yul\":2706:2707   */\n      0x00\n        /* \"#utility.yul\":2699:2787   */\n      mstore\n        /* \"#utility.yul\":2806:2810   */\n      0x41\n        /* \"#utility.yul\":2803:2804   */\n      0x04\n        /* \"#utility.yul\":2796:2811   */\n      mstore\n        /* \"#utility.yul\":2830:2834   */\n      0x24\n        /* \"#utility.yul\":2827:2828   */\n      0x00\n        /* \"#utility.yul\":2820:2835   */\n      revert\n        /* \"#utility.yul\":2847:3128   */\n    tag_94:\n        /* \"#utility.yul\":2930:2957   */\n      tag_131\n        /* \"#utility.yul\":2952:2956   */\n      dup3\n        /* \"#utility.yul\":2930:2957   */\n      tag_93\n      jump\t// in\n    tag_131:\n        /* \"#utility.yul\":2922:2928   */\n      dup2\n        /* \"#utility.yul\":2918:2958   */\n      add\n        /* \"#utility.yul\":3060:3066   */\n      dup2\n        /* \"#utility.yul\":3048:3058   */\n      dup2\n        /* \"#utility.yul\":3045:3067   */\n      lt\n        /* \"#utility.yul\":3024:3042   */\n      0xffffffffffffffff\n        /* \"#utility.yul\":3012:3022   */\n      dup3\n        /* \"#utility.yul\":3009:3043   */\n      gt\n        /* \"#utility.yul\":3006:3068   */\n      or\n        /* \"#utility.yul\":3003:3091   */\n      iszero\n      tag_132\n      jumpi\n        /* \"#utility.yul\":3071:3089   */\n      tag_133\n      tag_17\n      jump\t// in\n    tag_133:\n        /* \"#utility.yul\":3003:3091   */\n    tag_132:\n        /* \"#utility.yul\":3111:3121   */\n      dup1\n        /* \"#utility.yul\":3107:3109   */\n      0x40\n        /* \"#utility.yul\":3100:3122   */\n      mstore\n        /* \"#utility.yul\":2890:3128   */\n      pop\n        /* \"#utility.yul\":2847:3128   */\n      pop\n      pop\n      jump\t// out\n        /* \"#utility.yul\":3134:3263   */\n    tag_95:\n        /* \"#utility.yul\":3168:3174   */\n      0x00\n        /* \"#utility.yul\":3195:3215   */\n      tag_135\n      tag_89\n      jump\t// in\n    tag_135:\n        /* \"#utility.yul\":3185:3215   */\n      swap1\n      pop\n        /* \"#utility.yul\":3224:3257   */\n      tag_136\n        /* \"#utility.yul\":3252:3256   */\n      dup3\n        /* \"#utility.yul\":3244:3250   */\n      dup3\n        /* \"#utility.yul\":3224:3257   */\n      tag_94\n      jump\t// in\n    tag_136:\n        /* \"#utility.yul\":3134:3263   */\n      swap2\n      swap1\n      pop\n      jump\t// out\n        /* \"#utility.yul\":3269:3580   */\n    tag_96:\n        /* \"#utility.yul\":3346:3350   */\n      0x00\n        /* \"#utility.yul\":3436:3454   */\n      0xffffffffffffffff\n        /* \"#utility.yul\":3428:3434   */\n      dup3\n        /* \"#utility.yul\":3425:3455   */\n      gt\n        /* \"#utility.yul\":3422:3478   */\n      iszero\n      tag_138\n      jumpi\n        /* \"#utility.yul\":3458:3476   */\n      tag_139\n      tag_17\n      jump\t// in\n    tag_139:\n        /* \"#utility.yul\":3422:3478   */\n    tag_138:\n        /* \"#utility.yul\":3508:3512   */\n      0x20\n        /* \"#utility.yul\":3500:3506   */\n      dup3\n        /* \"#utility.yul\":3496:3513   */\n      mul\n        /* \"#utility.yul\":3488:3513   */\n      swap1\n      pop\n        /* \"#utility.yul\":3568:3572   */\n      0x20\n        /* \"#utility.yul\":3562:3566   */\n      dup2\n        /* \"#utility.yul\":3558:3573   */\n      add\n        /* \"#utility.yul\":3550:3573   */\n      swap1\n      pop\n        /* \"#utility.yul\":3269:3580   */\n      swap2\n      swap1\n      pop\n      jump\t// out\n        /* \"#utility.yul\":3586:3703   */\n    tag_97:\n        /* \"#utility.yul\":3695:3696   */\n      0x00\n        /* \"#utility.yul\":3692:3693   */\n      0x00\n        /* \"#utility.yul\":3685:3697   */\n      revert\n        /* \"#utility.yul\":3709:3831   */\n    tag_98:\n        /* \"#utility.yul\":3782:3806   */\n      tag_142\n        /* \"#utility.yul\":3800:3805   */\n      dup2\n        /* \"#utility.yul\":3782:3806   */\n      tag_84\n      jump\t// in\n    tag_142:\n        /* \"#utility.yul\":3775:3780   */\n      dup2\n        /* \"#utility.yul\":3772:3807   */\n      eq\n        /* \"#utility.yul\":3762:3825   */\n      tag_143\n      jumpi\n        /* \"#utility.yul\":3821:3822   */\n      0x00\n        /* \"#utility.yul\":3818:3819   */\n      0x00\n        /* \"#utility.yul\":3811:3823   */\n      revert\n        /* \"#utility.yul\":3762:3825   */\n    tag_143:\n        /* \"#utility.yul\":3709:3831   */\n      pop\n      jump\t// out\n        /* \"#utility.yul\":3837:3976   */\n    tag_99:\n        /* \"#utility.yul\":3883:3888   */\n      0x00\n        /* \"#utility.yul\":3921:3927   */\n      dup2\n        /* \"#utility.yul\":3908:3928   */\n      calldataload\n        /* \"#utility.yul\":3899:3928   */\n      swap1\n      pop\n        /* \"#utility.yul\":3937:3970   */\n      tag_145\n        /* \"#utility.yul\":3964:3969   */\n      dup2\n        /* \"#utility.yul\":3937:3970   */\n      tag_98\n      jump\t// in\n    tag_145:\n        /* \"#utility.yul\":3837:3976   */\n      swap3\n      swap2\n      pop\n      pop\n      jump\t// out\n        /* \"#utility.yul\":3999:4709   */\n    tag_100:\n        /* \"#utility.yul\":4095:4100   */\n      0x00\n        /* \"#utility.yul\":4120:4201   */\n      tag_147\n        /* \"#utility.yul\":4136:4200   */\n      tag_148\n        /* \"#utility.yul\":4193:4199   */\n      dup5\n        /* \"#utility.yul\":4136:4200   */\n      tag_96\n      jump\t// in\n    tag_148:\n        /* \"#utility.yul\":4120:4201   */\n      tag_95\n      jump\t// in\n    tag_147:\n        /* \"#utility.yul\":4111:4201   */\n      swap1\n      pop\n        /* \"#utility.yul\":4221:4226   */\n      dup1\n        /* \"#utility.yul\":4250:4256   */\n      dup4\n        /* \"#utility.yul\":4243:4248   */\n      dup3\n        /* \"#utility.yul\":4236:4257   */\n      mstore\n        /* \"#utility.yul\":4284:4288   */\n      0x20\n        /* \"#utility.yul\":4277:4282   */\n      dup3\n        /* \"#utility.yul\":4273:4289   */\n      add\n        /* \"#utility.yul\":4266:4289   */\n      swap1\n      pop\n        /* \"#utility.yul\":4337:4341   */\n      0x20\n        /* \"#utility.yul\":4329:4335   */\n      dup5\n        /* \"#utility.yul\":4325:4342   */\n      mul\n        /* \"#utility.yul\":4317:4323   */\n      dup4\n        /* \"#utility.yul\":4313:4343   */\n      add\n        /* \"#utility.yul\":4366:4369   */\n      dup6\n        /* \"#utility.yul\":4358:4364   */\n      dup2\n        /* \"#utility.yul\":4355:4370   */\n      gt\n        /* \"#utility.yul\":4352:4474   */\n      iszero\n      tag_149\n      jumpi\n        /* \"#utility.yul\":4385:4464   */\n      tag_150\n      tag_97\n      jump\t// in\n    tag_150:\n        /* \"#utility.yul\":4352:4474   */\n    tag_149:\n        /* \"#utility.yul\":4500:4506   */\n      dup4\n        /* \"#utility.yul\":4483:4703   */\n    tag_151:\n        /* \"#utility.yul\":4517:4523   */\n      dup2\n        /* \"#utility.yul\":4512:4515   */\n      dup2\n        /* \"#utility.yul\":4509:4524   */\n      lt\n        /* \"#utility.yul\":4483:4703   */\n      iszero\n      tag_153\n      jumpi\n        /* \"#utility.yul\":4592:4595   */\n      dup1\n        /* \"#utility.yul\":4621:4658   */\n      tag_154\n        /* \"#utility.yul\":4654:4657   */\n      dup9\n        /* \"#utility.yul\":4642:4652   */\n      dup3\n        /* \"#utility.yul\":4621:4658   */\n      tag_99\n      jump\t// in\n    tag_154:\n        /* \"#utility.yul\":4616:4619   */\n      dup5\n        /* \"#utility.yul\":4609:4659   */\n      mstore\n        /* \"#utility.yul\":4688:4692   */\n      0x20\n        /* \"#utility.yul\":4683:4686   */\n      dup5\n        /* \"#utility.yul\":4679:4693   */\n      add\n        /* \"#utility.yul\":4672:4693   */\n      swap4\n      pop\n        /* \"#utility.yul\":4559:4703   */\n      pop\n        /* \"#utility.yul\":4543:4547   */\n      0x20\n        /* \"#utility.yul\":4538:4541   */\n      dup2\n        /* \"#utility.yul\":4534:4548   */\n      add\n        /* \"#utility.yul\":4527:4548   */\n      swap1\n      pop\n        /* \"#utility.yul\":4483:4703   */\n      jump(tag_151)\n    tag_153:\n        /* \"#utility.yul\":4487:4508   */\n      pop\n        /* \"#utility.yul\":4101:4709   */\n      pop\n      pop\n        /* \"#utility.yul\":3999:4709   */\n      swap4\n      swap3\n      pop\n      pop\n      pop\n      jump\t// out\n        /* \"#utility.yul\":4732:5102   */\n    tag_101:\n        /* \"#utility.yul\":4803:4808   */\n      0x00\n        /* \"#utility.yul\":4852:4855   */\n      dup3\n        /* \"#utility.yul\":4845:4849   */\n      0x1f\n        /* \"#utility.yul\":4837:4843   */\n      dup4\n        /* \"#utility.yul\":4833:4850   */\n      add\n        /* \"#utility.yul\":4829:4856   */\n      slt\n        /* \"#utility.yul\":4819:4941   */\n      tag_156\n      jumpi\n        /* \"#utility.yul\":4860:4939   */\n      tag_157\n      tag_92\n      jump\t// in\n    tag_157:\n        /* \"#utility.yul\":4819:4941   */\n    tag_156:\n        /* \"#utility.yul\":4977:4983   */\n      dup2\n        /* \"#utility.yul\":4964:4984   */\n      calldataload\n        /* \"#utility.yul\":5002:5096   */\n      tag_158\n        /* \"#utility.yul\":5092:5095   */\n      dup5\n        /* \"#utility.yul\":5084:5090   */\n      dup3\n        /* \"#utility.yul\":5077:5081   */\n      0x20\n        /* \"#utility.yul\":5069:5075   */\n      dup7\n        /* \"#utility.yul\":5065:5082   */\n      add\n        /* \"#utility.yul\":5002:5096   */\n      tag_100\n      jump\t// in\n    tag_158:\n        /* \"#utility.yul\":4993:5096   */\n      swap2\n      pop\n        /* \"#utility.yul\":4809:5102   */\n      pop\n        /* \"#utility.yul\":4732:5102   */\n      swap3\n      swap2\n      pop\n      pop\n      jump\t// out\n        /* \"#utility.yul\":5108:6002   */\n    tag_11:\n        /* \"#utility.yul\":5226:5232   */\n      0x00\n        /* \"#utility.yul\":5234:5240   */\n      0x00\n        /* \"#utility.yul\":5283:5285   */\n      0x40\n        /* \"#utility.yul\":5271:5280   */\n      dup4\n        /* \"#utility.yul\":5262:5269   */\n      dup6\n        /* \"#utility.yul\":5258:5281   */\n      sub\n        /* \"#utility.yul\":5254:5286   */\n      slt\n        /* \"#utility.yul\":5251:5370   */\n      iszero\n      tag_160\n      jumpi\n        /* \"#utility.yul\":5289:5368   */\n      tag_161\n      tag_90\n      jump\t// in\n    tag_161:\n        /* \"#utility.yul\":5251:5370   */\n    tag_160:\n        /* \"#utility.yul\":5437:5438   */\n      0x00\n        /* \"#utility.yul\":5426:5435   */\n      dup4\n        /* \"#utility.yul\":5422:5439   */\n      add\n        /* \"#utility.yul\":5409:5440   */\n      calldataload\n        /* \"#utility.yul\":5467:5485   */\n      0xffffffffffffffff\n        /* \"#utility.yul\":5459:5465   */\n      dup2\n        /* \"#utility.yul\":5456:5486   */\n      gt\n        /* \"#utility.yul\":5453:5570   */\n      iszero\n      tag_162\n      jumpi\n        /* \"#utility.yul\":5489:5568   */\n      tag_163\n      tag_91\n      jump\t// in\n    tag_163:\n        /* \"#utility.yul\":5453:5570   */\n    tag_162:\n        /* \"#utility.yul\":5594:5672   */\n      tag_164\n        /* \"#utility.yul\":5664:5671   */\n      dup6\n        /* \"#utility.yul\":5655:5661   */\n      dup3\n        /* \"#utility.yul\":5644:5653   */\n      dup7\n        /* \"#utility.yul\":5640:5662   */\n      add\n        /* \"#utility.yul\":5594:5672   */\n      tag_101\n      jump\t// in\n    tag_164:\n        /* \"#utility.yul\":5584:5672   */\n      swap3\n      pop\n        /* \"#utility.yul\":5380:5682   */\n      pop\n        /* \"#utility.yul\":5749:5751   */\n      0x20\n        /* \"#utility.yul\":5738:5747   */\n      dup4\n        /* \"#utility.yul\":5734:5752   */\n      add\n        /* \"#utility.yul\":5721:5753   */\n      calldataload\n        /* \"#utility.yul\":5780:5798   */\n      0xffffffffffffffff\n        /* \"#utility.yul\":5772:5778   */\n      dup2\n        /* \"#utility.yul\":5769:5799   */\n      gt\n        /* \"#utility.yul\":5766:5883   */\n      iszero\n      tag_165\n      jumpi\n        /* \"#utility.yul\":5802:5881   */\n      tag_166\n      tag_91\n      jump\t// in\n    tag_166:\n        /* \"#utility.yul\":5766:5883   */\n    tag_165:\n        /* \"#utility.yul\":5907:5985   */\n      tag_167\n        /* \"#utility.yul\":5977:5984   */\n      dup6\n        /* \"#utility.yul\":5968:5974   */\n      dup3\n        /* \"#utility.yul\":5957:5966   */\n      dup7\n        /* \"#utility.yul\":5953:5975   */\n      add\n        /* \"#utility.yul\":5907:5985   */\n      tag_101\n      jump\t// in\n    tag_167:\n        /* \"#utility.yul\":5897:5985   */\n      swap2\n      pop\n        /* \"#utility.yul\":5692:5995   */\n      pop\n        /* \"#utility.yul\":5108:6002   */\n      swap3\n      pop\n      swap3\n      swap1\n      pop\n      jump\t// out\n        /* \"#utility.yul\":6008:6188   */\n    tag_21:\n        /* \"#utility.yul\":6056:6133   */\n      0x4e487b7100000000000000000000000000000000000000000000000000000000\n        /* \"#utility.yul\":6053:6054   */\n      0x00\n        /* \"#utility.yul\":6046:6134   */\n      mstore\n        /* \"#utility.yul\":6153:6157   */\n      0x32\n        /* \"#utility.yul\":6150:6151   */\n      0x04\n        /* \"#utility.yul\":6143:6158   */\n      mstore\n        /* \"#utility.yul\":6177:6181   */\n      0x24\n        /* \"#utility.yul\":6174:6175   */\n      0x00\n        /* \"#utility.yul\":6167:6182   */\n      revert\n        /* \"#utility.yul\":6194:6374   */\n    tag_102:\n        /* \"#utility.yul\":6242:6319   */\n      0x4e487b7100000000000000000000000000000000000000000000000000000000\n        /* \"#utility.yul\":6239:6240   */\n      0x00\n        /* \"#utility.yul\":6232:6320   */\n      mstore\n        /* \"#utility.yul\":6339:6343   */\n      0x11\n        /* \"#utility.yul\":6336:6337   */\n      0x04\n        /* \"#utility.yul\":6329:6344   */\n      mstore\n        /* \"#utility.yul\":6363:6367   */\n      0x24\n        /* \"#utility.yul\":6360:6361   */\n      0x00\n        /* \"#utility.yul\":6353:6368   */\n      revert\n        /* \"#utility.yul\":6380:6571   */\n    tag_40:\n        /* \"#utility.yul\":6420:6423   */\n      0x00\n        /* \"#utility.yul\":6439:6459   */\n      tag_171\n        /* \"#utility.yul\":6457:6458   */\n      dup3\n        /* \"#utility.yul\":6439:6459   */\n      tag_84\n      jump\t// in\n    tag_171:\n        /* \"#utility.yul\":6434:6459   */\n      swap2\n      pop\n        /* \"#utility.yul\":6473:6493   */\n      tag_172\n        /* \"#utility.yul\":6491:6492   */\n      dup4\n        /* \"#utility.yul\":6473:6493   */\n      tag_84\n      jump\t// in\n    tag_172:\n        /* \"#utility.yul\":6468:6493   */\n      swap3\n      pop\n        /* \"#utility.yul\":6516:6517   */\n      dup3\n        /* \"#utility.yul\":6513:6514   */\n      dup3\n        /* \"#utility.yul\":6509:6518   */\n      add\n        /* \"#utility.yul\":6502:6518   */\n      swap1\n      pop\n        /* \"#utility.yul\":6537:6540   */\n      dup1\n        /* \"#utility.yul\":6534:6535   */\n      dup3\n        /* \"#utility.yul\":6531:6541   */\n      gt\n        /* \"#utility.yul\":6528:6564   */\n      iszero\n      tag_173\n      jumpi\n        /* \"#utility.yul\":6544:6562   */\n      tag_174\n      tag_102\n      jump\t// in\n    tag_174:\n        /* \"#utility.yul\":6528:6564   */\n    tag_173:\n        /* \"#utility.yul\":6380:6571   */\n      swap3\n      swap2\n      pop\n      pop\n      jump\t// out\n        /* \"#utility.yul\":6577:6810   */\n    tag_57:\n        /* \"#utility.yul\":6616:6619   */\n      0x00\n        /* \"#utility.yul\":6639:6663   */\n      tag_176\n        /* \"#utility.yul\":6657:6662   */\n      dup3\n        /* \"#utility.yul\":6639:6663   */\n      tag_84\n      jump\t// in\n    tag_176:\n        /* \"#utility.yul\":6630:6663   */\n      swap2\n      pop\n        /* \"#utility.yul\":6685:6751   */\n      0xffffffffffffffffffffffffffffffffffffffffffffffffffffffffffffffff\n        /* \"#utility.yul\":6678:6683   */\n      dup3\n        /* \"#utility.yul\":6675:6752   */\n      sub\n        /* \"#utility.yul\":6672:6775   */\n      tag_177\n      jumpi\n        /* \"#utility.yul\":6755:6773   */\n      tag_178\n      tag_102\n      jump\t// in\n    tag_178:\n        /* \"#utility.yul\":6672:6775   */\n    tag_177:\n        /* \"#utility.yul\":6802:6803   */\n      0x01\n        /* \"#utility.yul\":6795:6800   */\n      dup3\n        /* \"#utility.yul\":6791:6804   */\n      add\n        /* \"#utility.yul\":6784:6804   */\n      swap1\n      pop\n        /* \"#utility.yul\":6577:6810   */\n      swap2\n      swap1\n      pop\n      jump\t// out\n\n    auxdata: 0xa26469706673582212200ab45dbb638f47edff2049eab64820c86ff4d862e12a387e8b89cd6e7dddda0064736f6c634300081e0033\n}\n",
				"bytecode": {
					"linkReferences": {},
					"object": "6080604052348015600e575f5ffd5b506108498061001c5f395ff3fe608060405234801561000f575f5ffd5b5060043610610034575f3560e01c80630bb5ea40146100385780637bbfb8e814610056575b5f5ffd5b610040610086565b60405161004d919061051e565b60405180910390f35b610070600480360381019061006b91906106c9565b61021f565b60405161007d919061051e565b60405180910390f35b60605f600367ffffffffffffffff8111156100a4576100a3610563565b5b6040519080825280602002602001820160405280156100d25781602001602082028036833780820191505090505b5090506001815f815181106100ea576100e961073f565b5b60200260200101818152505060038160018151811061010c5761010b61073f565b5b60200260200101818152505060058160028151811061012e5761012d61073f565b5b6020026020010181815250505f600467ffffffffffffffff81111561015657610155610563565b5b6040519080825280602002602001820160405280156101845781602001602082028036833780820191505090505b5090506002815f8151811061019c5761019b61073f565b5b6020026020010181815250506004816001815181106101be576101bd61073f565b5b6020026020010181815250506006816002815181106101e0576101df61073f565b5b6020026020010181815250506008816003815181106102025761020161073f565b5b602002602001018181525050610218828261021f565b9250505090565b60605f835190505f835190505f81836102389190610799565b67ffffffffffffffff81111561025157610250610563565b5b60405190808252806020026020018201604052801561027f5781602001602082028036833780820191505090505b5090505f5f90505f5f90505f5f90505b858310801561029d57508482105b15610387578782815181106102b5576102b461073f565b5b60200260200101518984815181106102d0576102cf61073f565b5b6020026020010151101561032b578883815181106102f1576102f061073f565b5b602002602001015184828151811061030c5761030b61073f565b5b6020026020010181815250508280610323906107cc565b935050610374565b87828151811061033e5761033d61073f565b5b60200260200101518482815181106103595761035861073f565b5b6020026020010181815250508180610370906107cc565b9250505b808061037f906107cc565b91505061028f565b5b858310156103eb578883815181106103a3576103a261073f565b5b60200260200101518482815181106103be576103bd61073f565b5b60200260200101818152505082806103d5906107cc565b93505080806103e3906107cc565b915050610388565b5b8482101561044f578782815181106104075761040661073f565b5b60200260200101518482815181106104225761042161073f565b5b6020026020010181815250508180610439906107cc565b9250508080610447906107cc565b9150506103ec565b83965050505050505092915050565b5f81519050919050565b5f82825260208201905092915050565b5f819050602082019050919050565b5f819050919050565b61049981610487565b82525050565b5f6104aa8383610490565b60208301905092915050565b5f602082019050919050565b5f6104cc8261045e565b6104d68185610468565b93506104e183610478565b805f5b838110156105115781516104f8888261049f565b9750610503836104b6565b9250506001810190506104e4565b5085935050505092915050565b5f6020820190508181035f83015261053681846104c2565b905092915050565b5f604051905090565b5f5ffd5b5f5ffd5b5f5ffd5b5f601f19601f8301169050919050565b7f4e487b71000000000000000000000000000000000000000000000000000000005f52604160045260245ffd5b61059982610553565b810181811067ffffffffffffffff821117156105b8576105b7610563565b5b80604052505050565b5f6105ca61053e565b90506105d68282610590565b919050565b5f67ffffffffffffffff8211156105f5576105f4610563565b5b602082029050602081019050919050565b5f5ffd5b61061381610487565b811461061d575f5ffd5b50565b5f8135905061062e8161060a565b92915050565b5f610646610641846105db565b6105c1565b9050808382526020820190506020840283018581111561066957610668610606565b5b835b81811015610692578061067e8882610620565b84526020840193505060208101905061066b565b5050509392505050565b5f82601f8301126106b0576106af61054f565b5b81356106c0848260208601610634565b91505092915050565b5f5f604083850312156106df576106de610547565b5b5f83013567ffffffffffffffff8111156106fc576106fb61054b565b5b6107088582860161069c565b925050602083013567ffffffffffffffff8111156107295761072861054b565b5b6107358582860161069c565b9150509250929050565b7f4e487b71000000000000000000000000000000000000000000000000000000005f52603260045260245ffd5b7f4e487b71000000000000000000000000000000000000000000000000000000005f52601160045260245ffd5b5f6107a382610487565b91506107ae83610487565b92508282019050808211156107c6576107c561076c565b5b92915050565b5f6107d682610487565b91507fffffffffffffffffffffffffffffffffffffffffffffffffffffffffffffffff82036108085761080761076c565b5b60018201905091905056fea26469706673582212200ab45dbb638f47edff2049eab64820c86ff4d862e12a387e8b89cd6e7dddda0064736f6c634300081e0033",
					"opcodes": "PUSH1 0x80 PUSH1 0x40 MSTORE CALLVALUE DUP1 ISZERO PUSH1 0xE JUMPI PUSH0 PUSH0 REVERT JUMPDEST POP PUSH2 0x849 DUP1 PUSH2 0x1C PUSH0 CODECOPY PUSH0 RETURN INVALID PUSH1 0x80 PUSH1 0x40 MSTORE CALLVALUE DUP1 ISZERO PUSH2 0xF JUMPI PUSH0 PUSH0 REVERT JUMPDEST POP PUSH1 0x4 CALLDATASIZE LT PUSH2 0x34 JUMPI PUSH0 CALLDATALOAD PUSH1 0xE0 SHR DUP1 PUSH4 0xBB5EA40 EQ PUSH2 0x38 JUMPI DUP1 PUSH4 0x7BBFB8E8 EQ PUSH2 0x56 JUMPI JUMPDEST PUSH0 PUSH0 REVERT JUMPDEST PUSH2 0x40 PUSH2 0x86 JUMP JUMPDEST PUSH1 0x40 MLOAD PUSH2 0x4D SWAP2 SWAP1 PUSH2 0x51E JUMP JUMPDEST PUSH1 0x40 MLOAD DUP1 SWAP2 SUB SWAP1 RETURN JUMPDEST PUSH2 0x70 PUSH1 0x4 DUP1 CALLDATASIZE SUB DUP2 ADD SWAP1 PUSH2 0x6B SWAP2 SWAP1 PUSH2 0x6C9 JUMP JUMPDEST PUSH2 0x21F JUMP JUMPDEST PUSH1 0x40 MLOAD PUSH2 0x7D SWAP2 SWAP1 PUSH2 0x51E JUMP JUMPDEST PUSH1 0x40 MLOAD DUP1 SWAP2 SUB SWAP1 RETURN JUMPDEST PUSH1 0x60 PUSH0 PUSH1 0x3 PUSH8 0xFFFFFFFFFFFFFFFF DUP2 GT ISZERO PUSH2 0xA4 JUMPI PUSH2 0xA3 PUSH2 0x563 JUMP JUMPDEST JUMPDEST PUSH1 0x40 MLOAD SWAP1 DUP1 DUP3 MSTORE DUP1 PUSH1 0x20 MUL PUSH1 0x20 ADD DUP3 ADD PUSH1 0x40 MSTORE DUP1 ISZERO PUSH2 0xD2 JUMPI DUP2 PUSH1 0x20 ADD PUSH1 0x20 DUP3 MUL DUP1 CALLDATASIZE DUP4 CALLDATACOPY DUP1 DUP3 ADD SWAP2 POP POP SWAP1 POP JUMPDEST POP SWAP1 POP PUSH1 0x1 DUP2 PUSH0 DUP2 MLOAD DUP2 LT PUSH2 0xEA JUMPI PUSH2 0xE9 PUSH2 0x73F JUMP JUMPDEST JUMPDEST PUSH1 0x20 MUL PUSH1 0x20 ADD ADD DUP2 DUP2 MSTORE POP POP PUSH1 0x3 DUP2 PUSH1 0x1 DUP2 MLOAD DUP2 LT PUSH2 0x10C JUMPI PUSH2 0x10B PUSH2 0x73F JUMP JUMPDEST JUMPDEST PUSH1 0x20 MUL PUSH1 0x20 ADD ADD DUP2 DUP2 MSTORE POP POP PUSH1 0x5 DUP2 PUSH1 0x2 DUP2 MLOAD DUP2 LT PUSH2 0x12E JUMPI PUSH2 0x12D PUSH2 0x73F JUMP JUMPDEST JUMPDEST PUSH1 0x20 MUL PUSH1 0x20 ADD ADD DUP2 DUP2 MSTORE POP POP PUSH0 PUSH1 0x4 PUSH8 0xFFFFFFFFFFFFFFFF DUP2 GT ISZERO PUSH2 0x156 JUMPI PUSH2 0x155 PUSH2 0x563 JUMP JUMPDEST JUMPDEST PUSH1 0x40 MLOAD SWAP1 DUP1 DUP3 MSTORE DUP1 PUSH1 0x20 MUL PUSH1 0x20 ADD DUP3 ADD PUSH1 0x40 MSTORE DUP1 ISZERO PUSH2 0x184 JUMPI DUP2 PUSH1 0x20 ADD PUSH1 0x20 DUP3 MUL DUP1 CALLDATASIZE DUP4 CALLDATACOPY DUP1 DUP3 ADD SWAP2 POP POP SWAP1 POP JUMPDEST POP SWAP1 POP PUSH1 0x2 DUP2 PUSH0 DUP2 MLOAD DUP2 LT PUSH2 0x19C JUMPI PUSH2 0x19B PUSH2 0x73F JUMP JUMPDEST JUMPDEST PUSH1 0x20 MUL PUSH1 0x20 ADD ADD DUP2 DUP2 MSTORE POP POP PUSH1 0x4 DUP2 PUSH1 0x1 DUP2 MLOAD DUP2 LT PUSH2 0x1BE JUMPI PUSH2 0x1BD PUSH2 0x73F JUMP JUMPDEST JUMPDEST PUSH1 0x20 MUL PUSH1 0x20 ADD ADD DUP2 DUP2 MSTORE POP POP PUSH1 0x6 DUP2 PUSH1 0x2 DUP2 MLOAD DUP2 LT PUSH2 0x1E0 JUMPI PUSH2 0x1DF PUSH2 0x73F JUMP JUMPDEST JUMPDEST PUSH1 0x20 MUL PUSH1 0x20 ADD ADD DUP2 DUP2 MSTORE POP POP PUSH1 0x8 DUP2 PUSH1 0x3 DUP2 MLOAD DUP2 LT PUSH2 0x202 JUMPI PUSH2 0x201 PUSH2 0x73F JUMP JUMPDEST JUMPDEST PUSH1 0x20 MUL PUSH1 0x20 ADD ADD DUP2 DUP2 MSTORE POP POP PUSH2 0x218 DUP3 DUP3 PUSH2 0x21F JUMP JUMPDEST SWAP3 POP POP POP SWAP1 JUMP JUMPDEST PUSH1 0x60 PUSH0 DUP4 MLOAD SWAP1 POP PUSH0 DUP4 MLOAD SWAP1 POP PUSH0 DUP2 DUP4 PUSH2 0x238 SWAP2 SWAP1 PUSH2 0x799 JUMP JUMPDEST PUSH8 0xFFFFFFFFFFFFFFFF DUP2 GT ISZERO PUSH2 0x251 JUMPI PUSH2 0x250 PUSH2 0x563 JUMP JUMPDEST JUMPDEST PUSH1 0x40 MLOAD SWAP1 DUP1 DUP3 MSTORE DUP1 PUSH1 0x20 MUL PUSH1 0x20 ADD DUP3 ADD PUSH1 0x40 MSTORE DUP1 ISZERO PUSH2 0x27F JUMPI DUP2 PUSH1 0x20 ADD PUSH1 0x20 DUP3 MUL DUP1 CALLDATASIZE DUP4 CALLDATACOPY DUP1 DUP3 ADD SWAP2 POP POP SWAP1 POP JUMPDEST POP SWAP1 POP PUSH0 PUSH0 SWAP1 POP PUSH0 PUSH0 SWAP1 POP PUSH0 PUSH0 SWAP1 POP JUMPDEST DUP6 DUP4 LT DUP1 ISZERO PUSH2 0x29D JUMPI POP DUP5 DUP3 LT JUMPDEST ISZERO PUSH2 0x387 JUMPI DUP8 DUP3 DUP2 MLOAD DUP2 LT PUSH2 0x2B5 JUMPI PUSH2 0x2B4 PUSH2 0x73F JUMP JUMPDEST JUMPDEST PUSH1 0x20 MUL PUSH1 0x20 ADD ADD MLOAD DUP10 DUP5 DUP2 MLOAD DUP2 LT PUSH2 0x2D0 JUMPI PUSH2 0x2CF PUSH2 0x73F JUMP JUMPDEST JUMPDEST PUSH1 0x20 MUL PUSH1 0x20 ADD ADD MLOAD LT ISZERO PUSH2 0x32B JUMPI DUP9 DUP4 DUP2 MLOAD DUP2 LT PUSH2 0x2F1 JUMPI PUSH2 0x2F0 PUSH2 0x73F JUMP JUMPDEST JUMPDEST PUSH1 0x20 MUL PUSH1 0x20 ADD ADD MLOAD DUP5 DUP3 DUP2 MLOAD DUP2 LT PUSH2 0x30C JUMPI PUSH2 0x30B PUSH2 0x73F JUMP JUMPDEST JUMPDEST PUSH1 0x20 MUL PUSH1 0x20 ADD ADD DUP2 DUP2 MSTORE POP POP DUP3 DUP1 PUSH2 0x323 SWAP1 PUSH2 0x7CC JUMP JUMPDEST SWAP4 POP POP PUSH2 0x374 JUMP JUMPDEST DUP8 DUP3 DUP2 MLOAD DUP2 LT PUSH2 0x33E JUMPI PUSH2 0x33D PUSH2 0x73F JUMP JUMPDEST JUMPDEST PUSH1 0x20 MUL PUSH1 0x20 ADD ADD MLOAD DUP5 DUP3 DUP2 MLOAD DUP2 LT PUSH2 0x359 JUMPI PUSH2 0x358 PUSH2 0x73F JUMP JUMPDEST JUMPDEST PUSH1 0x20 MUL PUSH1 0x20 ADD ADD DUP2 DUP2 MSTORE POP POP DUP2 DUP1 PUSH2 0x370 SWAP1 PUSH2 0x7CC JUMP JUMPDEST SWAP3 POP POP JUMPDEST DUP1 DUP1 PUSH2 0x37F SWAP1 PUSH2 0x7CC JUMP JUMPDEST SWAP2 POP POP PUSH2 0x28F JUMP JUMPDEST JUMPDEST DUP6 DUP4 LT ISZERO PUSH2 0x3EB JUMPI DUP9 DUP4 DUP2 MLOAD DUP2 LT PUSH2 0x3A3 JUMPI PUSH2 0x3A2 PUSH2 0x73F JUMP JUMPDEST JUMPDEST PUSH1 0x20 MUL PUSH1 0x20 ADD ADD MLOAD DUP5 DUP3 DUP2 MLOAD DUP2 LT PUSH2 0x3BE JUMPI PUSH2 0x3BD PUSH2 0x73F JUMP JUMPDEST JUMPDEST PUSH1 0x20 MUL PUSH1 0x20 ADD ADD DUP2 DUP2 MSTORE POP POP DUP3 DUP1 PUSH2 0x3D5 SWAP1 PUSH2 0x7CC JUMP JUMPDEST SWAP4 POP POP DUP1 DUP1 PUSH2 0x3E3 SWAP1 PUSH2 0x7CC JUMP JUMPDEST SWAP2 POP POP PUSH2 0x388 JUMP JUMPDEST JUMPDEST DUP5 DUP3 LT ISZERO PUSH2 0x44F JUMPI DUP8 DUP3 DUP2 MLOAD DUP2 LT PUSH2 0x407 JUMPI PUSH2 0x406 PUSH2 0x73F JUMP JUMPDEST JUMPDEST PUSH1 0x20 MUL PUSH1 0x20 ADD ADD MLOAD DUP5 DUP3 DUP2 MLOAD DUP2 LT PUSH2 0x422 JUMPI PUSH2 0x421 PUSH2 0x73F JUMP JUMPDEST JUMPDEST PUSH1 0x20 MUL PUSH1 0x20 ADD ADD DUP2 DUP2 MSTORE POP POP DUP2 DUP1 PUSH2 0x439 SWAP1 PUSH2 0x7CC JUMP JUMPDEST SWAP3 POP POP DUP1 DUP1 PUSH2 0x447 SWAP1 PUSH2 0x7CC JUMP JUMPDEST SWAP2 POP POP PUSH2 0x3EC JUMP JUMPDEST DUP4 SWAP7 POP POP POP POP POP POP POP SWAP3 SWAP2 POP POP JUMP JUMPDEST PUSH0 DUP2 MLOAD SWAP1 POP SWAP2 SWAP1 POP JUMP JUMPDEST PUSH0 DUP3 DUP3 MSTORE PUSH1 0x20 DUP3 ADD SWAP1 POP SWAP3 SWAP2 POP POP JUMP JUMPDEST PUSH0 DUP2 SWAP1 POP PUSH1 0x20 DUP3 ADD SWAP1 POP SWAP2 SWAP1 POP JUMP JUMPDEST PUSH0 DUP2 SWAP1 POP SWAP2 SWAP1 POP JUMP JUMPDEST PUSH2 0x499 DUP2 PUSH2 0x487 JUMP JUMPDEST DUP3 MSTORE POP POP JUMP JUMPDEST PUSH0 PUSH2 0x4AA DUP4 DUP4 PUSH2 0x490 JUMP JUMPDEST PUSH1 0x20 DUP4 ADD SWAP1 POP SWAP3 SWAP2 POP POP JUMP JUMPDEST PUSH0 PUSH1 0x20 DUP3 ADD SWAP1 POP SWAP2 SWAP1 POP JUMP JUMPDEST PUSH0 PUSH2 0x4CC DUP3 PUSH2 0x45E JUMP JUMPDEST PUSH2 0x4D6 DUP2 DUP6 PUSH2 0x468 JUMP JUMPDEST SWAP4 POP PUSH2 0x4E1 DUP4 PUSH2 0x478 JUMP JUMPDEST DUP1 PUSH0 JUMPDEST DUP4 DUP2 LT ISZERO PUSH2 0x511 JUMPI DUP2 MLOAD PUSH2 0x4F8 DUP9 DUP3 PUSH2 0x49F JUMP JUMPDEST SWAP8 POP PUSH2 0x503 DUP4 PUSH2 0x4B6 JUMP JUMPDEST SWAP3 POP POP PUSH1 0x1 DUP2 ADD SWAP1 POP PUSH2 0x4E4 JUMP JUMPDEST POP DUP6 SWAP4 POP POP POP POP SWAP3 SWAP2 POP POP JUMP JUMPDEST PUSH0 PUSH1 0x20 DUP3 ADD SWAP1 POP DUP2 DUP2 SUB PUSH0 DUP4 ADD MSTORE PUSH2 0x536 DUP2 DUP5 PUSH2 0x4C2 JUMP JUMPDEST SWAP1 POP SWAP3 SWAP2 POP POP JUMP JUMPDEST PUSH0 PUSH1 0x40 MLOAD SWAP1 POP SWAP1 JUMP JUMPDEST PUSH0 PUSH0 REVERT JUMPDEST PUSH0 PUSH0 REVERT JUMPDEST PUSH0 PUSH0 REVERT JUMPDEST PUSH0 PUSH1 0x1F NOT PUSH1 0x1F DUP4 ADD AND SWAP1 POP SWAP2 SWAP1 POP JUMP JUMPDEST PUSH32 0x4E487B7100000000000000000000000000000000000000000000000000000000 PUSH0 MSTORE PUSH1 0x41 PUSH1 0x4 MSTORE PUSH1 0x24 PUSH0 REVERT JUMPDEST PUSH2 0x599 DUP3 PUSH2 0x553 JUMP JUMPDEST DUP2 ADD DUP2 DUP2 LT PUSH8 0xFFFFFFFFFFFFFFFF DUP3 GT OR ISZERO PUSH2 0x5B8 JUMPI PUSH2 0x5B7 PUSH2 0x563 JUMP JUMPDEST JUMPDEST DUP1 PUSH1 0x40 MSTORE POP POP POP JUMP JUMPDEST PUSH0 PUSH2 0x5CA PUSH2 0x53E JUMP JUMPDEST SWAP1 POP PUSH2 0x5D6 DUP3 DUP3 PUSH2 0x590 JUMP JUMPDEST SWAP2 SWAP1 POP JUMP JUMPDEST PUSH0 PUSH8 0xFFFFFFFFFFFFFFFF DUP3 GT ISZERO PUSH2 0x5F5 JUMPI PUSH2 0x5F4 PUSH2 0x563 JUMP JUMPDEST JUMPDEST PUSH1 0x20 DUP3 MUL SWAP1 POP PUSH1 0x20 DUP2 ADD SWAP1 POP SWAP2 SWAP1 POP JUMP JUMPDEST PUSH0 PUSH0 REVERT JUMPDEST PUSH2 0x613 DUP2 PUSH2 0x487 JUMP JUMPDEST DUP2 EQ PUSH2 0x61D JUMPI PUSH0 PUSH0 REVERT JUMPDEST POP JUMP JUMPDEST PUSH0 DUP2 CALLDATALOAD SWAP1 POP PUSH2 0x62E DUP2 PUSH2 0x60A JUMP JUMPDEST SWAP3 SWAP2 POP POP JUMP JUMPDEST PUSH0 PUSH2 0x646 PUSH2 0x641 DUP5 PUSH2 0x5DB JUMP JUMPDEST PUSH2 0x5C1 JUMP JUMPDEST SWAP1 POP DUP1 DUP4 DUP3 MSTORE PUSH1 0x20 DUP3 ADD SWAP1 POP PUSH1 0x20 DUP5 MUL DUP4 ADD DUP6 DUP2 GT ISZERO PUSH2 0x669 JUMPI PUSH2 0x668 PUSH2 0x606 JUMP JUMPDEST JUMPDEST DUP4 JUMPDEST DUP2 DUP2 LT ISZERO PUSH2 0x692 JUMPI DUP1 PUSH2 0x67E DUP9 DUP3 PUSH2 0x620 JUMP JUMPDEST DUP5 MSTORE PUSH1 0x20 DUP5 ADD SWAP4 POP POP PUSH1 0x20 DUP2 ADD SWAP1 POP PUSH2 0x66B JUMP JUMPDEST POP POP POP SWAP4 SWAP3 POP POP POP JUMP JUMPDEST PUSH0 DUP3 PUSH1 0x1F DUP4 ADD SLT PUSH2 0x6B0 JUMPI PUSH2 0x6AF PUSH2 0x54F JUMP JUMPDEST JUMPDEST DUP2 CALLDATALOAD PUSH2 0x6C0 DUP5 DUP3 PUSH1 0x20 DUP7 ADD PUSH2 0x634 JUMP JUMPDEST SWAP2 POP POP SWAP3 SWAP2 POP POP JUMP JUMPDEST PUSH0 PUSH0 PUSH1 0x40 DUP4 DUP6 SUB SLT ISZERO PUSH2 0x6DF JUMPI PUSH2 0x6DE PUSH2 0x547 JUMP JUMPDEST JUMPDEST PUSH0 DUP4 ADD CALLDATALOAD PUSH8 0xFFFFFFFFFFFFFFFF DUP2 GT ISZERO PUSH2 0x6FC JUMPI PUSH2 0x6FB PUSH2 0x54B JUMP JUMPDEST JUMPDEST PUSH2 0x708 DUP6 DUP3 DUP7 ADD PUSH2 0x69C JUMP JUMPDEST SWAP3 POP POP PUSH1 0x20 DUP4 ADD CALLDATALOAD PUSH8 0xFFFFFFFFFFFFFFFF DUP2 GT ISZERO PUSH2 0x729 JUMPI PUSH2 0x728 PUSH2 0x54B JUMP JUMPDEST JUMPDEST PUSH2 0x735 DUP6 DUP3 DUP7 ADD PUSH2 0x69C JUMP JUMPDEST SWAP2 POP POP SWAP3 POP SWAP3 SWAP1 POP JUMP JUMPDEST PUSH32 0x4E487B7100000000000000000000000000000000000000000000000000000000 PUSH0 MSTORE PUSH1 0x32 PUSH1 0x4 MSTORE PUSH1 0x24 PUSH0 REVERT JUMPDEST PUSH32 0x4E487B7100000000000000000000000000000000000000000000000000000000 PUSH0 MSTORE PUSH1 0x11 PUSH1 0x4 MSTORE PUSH1 0x24 PUSH0 REVERT JUMPDEST PUSH0 PUSH2 0x7A3 DUP3 PUSH2 0x487 JUMP JUMPDEST SWAP2 POP PUSH2 0x7AE DUP4 PUSH2 0x487 JUMP JUMPDEST SWAP3 POP DUP3 DUP3 ADD SWAP1 POP DUP1 DUP3 GT ISZERO PUSH2 0x7C6 JUMPI PUSH2 0x7C5 PUSH2 0x76C JUMP JUMPDEST JUMPDEST SWAP3 SWAP2 POP POP JUMP JUMPDEST PUSH0 PUSH2 0x7D6 DUP3 PUSH2 0x487 JUMP JUMPDEST SWAP2 POP PUSH32 0xFFFFFFFFFFFFFFFFFFFFFFFFFFFFFFFFFFFFFFFFFFFFFFFFFFFFFFFFFFFFFFFF DUP3 SUB PUSH2 0x808 JUMPI PUSH2 0x807 PUSH2 0x76C JUMP JUMPDEST JUMPDEST PUSH1 0x1 DUP3 ADD SWAP1 POP SWAP2 SWAP1 POP JUMP INVALID LOG2 PUSH5 0x6970667358 0x22 SLT KECCAK256 EXP 0xB4 TSTORE 0xBB PUSH4 0x8F47EDFF KECCAK256 BLOBHASH 0xEA 0xB6 BASEFEE KECCAK256 0xC8 PUSH16 0xF4D862E12A387E8B89CD6E7DDDDA0064 PUSH20 0x6F6C634300081E00330000000000000000000000 "
				},
				"gasEstimates": {
					"creation": {
						"codeDepositCost": "424200",
						"executionCost": "459",
						"totalCost": "424659"
					},
					"external": {
						"demonstrateMerge()": "infinite",
						"mergeAndReturnNewArray(uint256[],uint256[])": "infinite"
					}
				},
				"methodIdentifiers": {
					"demonstrateMerge()": "0bb5ea40",
					"mergeAndReturnNewArray(uint256[],uint256[])": "7bbfb8e8"
				}
			},
			"storageLayout": {
				"storage": [],
				"types": null
			},
			"userdoc": {
				"kind": "user",
				"methods": {},
				"version": 1
			}
		}
	}
}