{
	"solTask1/codeRoman.sol": {
		"Demo": {
			"abi": [
				{
					"inputs": [
						{
							"internalType": "uint256[]",
							"name": "array",
							"type": "uint256[]"
						},
						{
							"internalType": "uint256",
							"name": "target",
							"type": "uint256"
						}
					],
					"name": "binarySearchWithIndex",
					"outputs": [
						{
							"internalType": "int256",
							"name": "",
							"type": "int256"
						}
					],
					"stateMutability": "pure",
					"type": "function"
				},
				{
					"inputs": [],
					"name": "demonstrate",
					"outputs": [
						{
							"internalType": "int256",
							"name": "",
							"type": "int256"
						}
					],
					"stateMutability": "pure",
					"type": "function"
				}
			],
			"devdoc": {
				"kind": "dev",
				"methods": {},
				"version": 1
			},
			"evm": {
				"assembly": "    /* \"solTask1/codeRoman.sol\":6516:6819  contract Demo is BinarySearch {... */\n  mstore(0x40, 0x80)\n  callvalue\n  dup1\n  iszero\n  tag_1\n  jumpi\n  revert(0x00, 0x00)\ntag_1:\n  pop\n  dataSize(sub_0)\n  dup1\n  dataOffset(sub_0)\n  0x00\n  codecopy\n  0x00\n  return\nstop\n\nsub_0: assembly {\n        /* \"solTask1/codeRoman.sol\":6516:6819  contract Demo is BinarySearch {... */\n      mstore(0x40, 0x80)\n      callvalue\n      dup1\n      iszero\n      tag_1\n      jumpi\n      revert(0x00, 0x00)\n    tag_1:\n      pop\n      jumpi(tag_2, lt(calldatasize, 0x04))\n      shr(0xe0, calldataload(0x00))\n      dup1\n      0x21352d8a\n      eq\n      tag_3\n      jumpi\n      dup1\n      0x23e973e4\n      eq\n      tag_4\n      jumpi\n    tag_2:\n      revert(0x00, 0x00)\n        /* \"solTask1/codeRoman.sol\":5902:6511  function binarySearchWithIndex(... */\n    tag_3:\n      tag_5\n      0x04\n      dup1\n      calldatasize\n      sub\n      dup2\n      add\n      swap1\n      tag_6\n      swap2\n      swap1\n      tag_7\n      jump\t// in\n    tag_6:\n      tag_8\n      jump\t// in\n    tag_5:\n      mload(0x40)\n      tag_9\n      swap2\n      swap1\n      tag_10\n      jump\t// in\n    tag_9:\n      mload(0x40)\n      dup1\n      swap2\n      sub\n      swap1\n      return\n        /* \"solTask1/codeRoman.sol\":6554:6816  function demonstrate() public pure returns (int) {... */\n    tag_4:\n      tag_11\n      tag_12\n      jump\t// in\n    tag_11:\n      mload(0x40)\n      tag_13\n      swap2\n      swap1\n      tag_10\n      jump\t// in\n    tag_13:\n      mload(0x40)\n      dup1\n      swap2\n      sub\n      swap1\n      return\n        /* \"solTask1/codeRoman.sol\":5902:6511  function binarySearchWithIndex(... */\n    tag_8:\n        /* \"solTask1/codeRoman.sol\":6013:6016  int */\n      0x00\n        /* \"solTask1/codeRoman.sol\":6029:6038  uint left */\n      0x00\n        /* \"solTask1/codeRoman.sol\":6041:6042  0 */\n      0x00\n        /* \"solTask1/codeRoman.sol\":6029:6042  uint left = 0 */\n      swap1\n      pop\n        /* \"solTask1/codeRoman.sol\":6053:6063  uint right */\n      0x00\n        /* \"solTask1/codeRoman.sol\":6066:6071  array */\n      dup5\n        /* \"solTask1/codeRoman.sol\":6066:6078  array.length */\n      mload\n        /* \"solTask1/codeRoman.sol\":6053:6078  uint right = array.length */\n      swap1\n      pop\n        /* \"solTask1/codeRoman.sol\":6099:6450  while (left < right) {... */\n    tag_15:\n        /* \"solTask1/codeRoman.sol\":6113:6118  right */\n      dup1\n        /* \"solTask1/codeRoman.sol\":6106:6110  left */\n      dup3\n        /* \"solTask1/codeRoman.sol\":6106:6118  left < right */\n      lt\n        /* \"solTask1/codeRoman.sol\":6099:6450  while (left < right) {... */\n      iszero\n      tag_16\n      jumpi\n        /* \"solTask1/codeRoman.sol\":6135:6143  uint mid */\n      0x00\n        /* \"solTask1/codeRoman.sol\":6170:6171  2 */\n      0x02\n        /* \"solTask1/codeRoman.sol\":6162:6166  left */\n      dup4\n        /* \"solTask1/codeRoman.sol\":6154:6159  right */\n      dup4\n        /* \"solTask1/codeRoman.sol\":6154:6166  right - left */\n      tag_17\n      swap2\n      swap1\n      tag_18\n      jump\t// in\n    tag_17:\n        /* \"solTask1/codeRoman.sol\":6153:6171  (right - left) / 2 */\n      tag_19\n      swap2\n      swap1\n      tag_20\n      jump\t// in\n    tag_19:\n        /* \"solTask1/codeRoman.sol\":6146:6150  left */\n      dup4\n        /* \"solTask1/codeRoman.sol\":6146:6171  left + (right - left) / 2 */\n      tag_21\n      swap2\n      swap1\n      tag_22\n      jump\t// in\n    tag_21:\n        /* \"solTask1/codeRoman.sol\":6135:6171  uint mid = left + (right - left) / 2 */\n      swap1\n      pop\n        /* \"solTask1/codeRoman.sol\":6218:6224  target */\n      dup5\n        /* \"solTask1/codeRoman.sol\":6204:6209  array */\n      dup7\n        /* \"solTask1/codeRoman.sol\":6210:6213  mid */\n      dup3\n        /* \"solTask1/codeRoman.sol\":6204:6214  array[mid] */\n      dup2\n      mload\n      dup2\n      lt\n      tag_23\n      jumpi\n      tag_24\n      tag_25\n      jump\t// in\n    tag_24:\n    tag_23:\n      0x20\n      mul\n      0x20\n      add\n      add\n      mload\n        /* \"solTask1/codeRoman.sol\":6204:6224  array[mid] == target */\n      sub\n        /* \"solTask1/codeRoman.sol\":6200:6439  if (array[mid] == target) {... */\n      tag_26\n      jumpi\n        /* \"solTask1/codeRoman.sol\":6256:6259  mid */\n      dup1\n        /* \"solTask1/codeRoman.sol\":6245:6260  return int(mid) */\n      swap4\n      pop\n      pop\n      pop\n      pop\n      jump(tag_14)\n        /* \"solTask1/codeRoman.sol\":6200:6439  if (array[mid] == target) {... */\n    tag_26:\n        /* \"solTask1/codeRoman.sol\":6330:6336  target */\n      dup5\n        /* \"solTask1/codeRoman.sol\":6317:6322  array */\n      dup7\n        /* \"solTask1/codeRoman.sol\":6323:6326  mid */\n      dup3\n        /* \"solTask1/codeRoman.sol\":6317:6327  array[mid] */\n      dup2\n      mload\n      dup2\n      lt\n      tag_28\n      jumpi\n      tag_29\n      tag_25\n      jump\t// in\n    tag_29:\n    tag_28:\n      0x20\n      mul\n      0x20\n      add\n      add\n      mload\n        /* \"solTask1/codeRoman.sol\":6317:6336  array[mid] < target */\n      lt\n        /* \"solTask1/codeRoman.sol\":6313:6439  if (array[mid] < target) {... */\n      iszero\n      tag_30\n      jumpi\n        /* \"solTask1/codeRoman.sol\":6370:6371  1 */\n      0x01\n        /* \"solTask1/codeRoman.sol\":6364:6367  mid */\n      dup2\n        /* \"solTask1/codeRoman.sol\":6364:6371  mid + 1 */\n      tag_31\n      swap2\n      swap1\n      tag_22\n      jump\t// in\n    tag_31:\n        /* \"solTask1/codeRoman.sol\":6357:6371  left = mid + 1 */\n      swap3\n      pop\n        /* \"solTask1/codeRoman.sol\":6313:6439  if (array[mid] < target) {... */\n      jump(tag_32)\n    tag_30:\n        /* \"solTask1/codeRoman.sol\":6420:6423  mid */\n      dup1\n        /* \"solTask1/codeRoman.sol\":6412:6423  right = mid */\n      swap2\n      pop\n        /* \"solTask1/codeRoman.sol\":6313:6439  if (array[mid] < target) {... */\n    tag_32:\n        /* \"solTask1/codeRoman.sol\":6120:6450  {... */\n      pop\n        /* \"solTask1/codeRoman.sol\":6099:6450  while (left < right) {... */\n      jump(tag_15)\n    tag_16:\n        /* \"solTask1/codeRoman.sol\":6477:6479  -1 */\n      0xffffffffffffffffffffffffffffffffffffffffffffffffffffffffffffffff\n        /* \"solTask1/codeRoman.sol\":6470:6479  return -1 */\n      swap3\n      pop\n      pop\n      pop\n        /* \"solTask1/codeRoman.sol\":5902:6511  function binarySearchWithIndex(... */\n    tag_14:\n      swap3\n      swap2\n      pop\n      pop\n      jump\t// out\n        /* \"solTask1/codeRoman.sol\":6554:6816  function demonstrate() public pure returns (int) {... */\n    tag_12:\n        /* \"solTask1/codeRoman.sol\":6598:6601  int */\n      0x00\n        /* \"solTask1/codeRoman.sol\":6615:6632  uint[] memory arr */\n      0x00\n        /* \"solTask1/codeRoman.sol\":6646:6647  5 */\n      0x05\n        /* \"solTask1/codeRoman.sol\":6635:6648  new uint[](5) */\n      0xffffffffffffffff\n      dup2\n      gt\n      iszero\n      tag_34\n      jumpi\n      tag_35\n      tag_36\n      jump\t// in\n    tag_35:\n    tag_34:\n      mload(0x40)\n      swap1\n      dup1\n      dup3\n      mstore\n      dup1\n      0x20\n      mul\n      0x20\n      add\n      dup3\n      add\n      0x40\n      mstore\n      dup1\n      iszero\n      tag_37\n      jumpi\n      dup2\n      0x20\n      add\n      0x20\n      dup3\n      mul\n      dup1\n      calldatasize\n      dup4\n      calldatacopy\n      dup1\n      dup3\n      add\n      swap2\n      pop\n      pop\n      swap1\n      pop\n    tag_37:\n      pop\n        /* \"solTask1/codeRoman.sol\":6615:6648  uint[] memory arr = new uint[](5) */\n      swap1\n      pop\n        /* \"solTask1/codeRoman.sol\":6669:6670  2 */\n      0x02\n        /* \"solTask1/codeRoman.sol\":6660:6663  arr */\n      dup2\n        /* \"solTask1/codeRoman.sol\":6664:6665  0 */\n      0x00\n        /* \"solTask1/codeRoman.sol\":6660:6666  arr[0] */\n      dup2\n      mload\n      dup2\n      lt\n      tag_38\n      jumpi\n      tag_39\n      tag_25\n      jump\t// in\n    tag_39:\n    tag_38:\n      0x20\n      mul\n      0x20\n      add\n      add\n        /* \"solTask1/codeRoman.sol\":6660:6670  arr[0] = 2 */\n      dup2\n      dup2\n      mstore\n      pop\n      pop\n        /* \"solTask1/codeRoman.sol\":6691:6692  3 */\n      0x03\n        /* \"solTask1/codeRoman.sol\":6682:6685  arr */\n      dup2\n        /* \"solTask1/codeRoman.sol\":6686:6687  1 */\n      0x01\n        /* \"solTask1/codeRoman.sol\":6682:6688  arr[1] */\n      dup2\n      mload\n      dup2\n      lt\n      tag_40\n      jumpi\n      tag_41\n      tag_25\n      jump\t// in\n    tag_41:\n    tag_40:\n      0x20\n      mul\n      0x20\n      add\n      add\n        /* \"solTask1/codeRoman.sol\":6682:6692  arr[1] = 3 */\n      dup2\n      dup2\n      mstore\n      pop\n      pop\n        /* \"solTask1/codeRoman.sol\":6713:6714  4 */\n      0x04\n        /* \"solTask1/codeRoman.sol\":6704:6707  arr */\n      dup2\n        /* \"solTask1/codeRoman.sol\":6708:6709  2 */\n      0x02\n        /* \"solTask1/codeRoman.sol\":6704:6710  arr[2] */\n      dup2\n      mload\n      dup2\n      lt\n      tag_42\n      jumpi\n      tag_43\n      tag_25\n      jump\t// in\n    tag_43:\n    tag_42:\n      0x20\n      mul\n      0x20\n      add\n      add\n        /* \"solTask1/codeRoman.sol\":6704:6714  arr[2] = 4 */\n      dup2\n      dup2\n      mstore\n      pop\n      pop\n        /* \"solTask1/codeRoman.sol\":6735:6736  6 */\n      0x06\n        /* \"solTask1/codeRoman.sol\":6726:6729  arr */\n      dup2\n        /* \"solTask1/codeRoman.sol\":6730:6731  3 */\n      0x03\n        /* \"solTask1/codeRoman.sol\":6726:6732  arr[3] */\n      dup2\n      mload\n      dup2\n      lt\n      tag_44\n      jumpi\n      tag_45\n      tag_25\n      jump\t// in\n    tag_45:\n    tag_44:\n      0x20\n      mul\n      0x20\n      add\n      add\n        /* \"solTask1/codeRoman.sol\":6726:6736  arr[3] = 6 */\n      dup2\n      dup2\n      mstore\n      pop\n      pop\n        /* \"solTask1/codeRoman.sol\":6757:6758  7 */\n      0x07\n        /* \"solTask1/codeRoman.sol\":6748:6751  arr */\n      dup2\n        /* \"solTask1/codeRoman.sol\":6752:6753  4 */\n      0x04\n        /* \"solTask1/codeRoman.sol\":6748:6754  arr[4] */\n      dup2\n      mload\n      dup2\n      lt\n      tag_46\n      jumpi\n      tag_47\n      tag_25\n      jump\t// in\n    tag_47:\n    tag_46:\n      0x20\n      mul\n      0x20\n      add\n      add\n        /* \"solTask1/codeRoman.sol\":6748:6758  arr[4] = 7 */\n      dup2\n      dup2\n      mstore\n      pop\n      pop\n        /* \"solTask1/codeRoman.sol\":6776:6805  binarySearchWithIndex(arr, 6) */\n      tag_48\n        /* \"solTask1/codeRoman.sol\":6798:6801  arr */\n      dup2\n        /* \"solTask1/codeRoman.sol\":6803:6804  6 */\n      0x06\n        /* \"solTask1/codeRoman.sol\":6776:6797  binarySearchWithIndex */\n      tag_8\n        /* \"solTask1/codeRoman.sol\":6776:6805  binarySearchWithIndex(arr, 6) */\n      jump\t// in\n    tag_48:\n        /* \"solTask1/codeRoman.sol\":6769:6805  return binarySearchWithIndex(arr, 6) */\n      swap2\n      pop\n      pop\n        /* \"solTask1/codeRoman.sol\":6554:6816  function demonstrate() public pure returns (int) {... */\n      swap1\n      jump\t// out\n        /* \"#utility.yul\":7:82   */\n    tag_49:\n        /* \"#utility.yul\":40:46   */\n      0x00\n        /* \"#utility.yul\":73:75   */\n      0x40\n        /* \"#utility.yul\":67:76   */\n      mload\n        /* \"#utility.yul\":57:76   */\n      swap1\n      pop\n        /* \"#utility.yul\":7:82   */\n      swap1\n      jump\t// out\n        /* \"#utility.yul\":88:205   */\n    tag_50:\n        /* \"#utility.yul\":197:198   */\n      0x00\n        /* \"#utility.yul\":194:195   */\n      0x00\n        /* \"#utility.yul\":187:199   */\n      revert\n        /* \"#utility.yul\":211:328   */\n    tag_51:\n        /* \"#utility.yul\":320:321   */\n      0x00\n        /* \"#utility.yul\":317:318   */\n      0x00\n        /* \"#utility.yul\":310:322   */\n      revert\n        /* \"#utility.yul\":334:451   */\n    tag_52:\n        /* \"#utility.yul\":443:444   */\n      0x00\n        /* \"#utility.yul\":440:441   */\n      0x00\n        /* \"#utility.yul\":433:445   */\n      revert\n        /* \"#utility.yul\":457:559   */\n    tag_53:\n        /* \"#utility.yul\":498:504   */\n      0x00\n        /* \"#utility.yul\":549:551   */\n      0x1f\n        /* \"#utility.yul\":545:552   */\n      not\n        /* \"#utility.yul\":540:542   */\n      0x1f\n        /* \"#utility.yul\":533:538   */\n      dup4\n        /* \"#utility.yul\":529:543   */\n      add\n        /* \"#utility.yul\":525:553   */\n      and\n        /* \"#utility.yul\":515:553   */\n      swap1\n      pop\n        /* \"#utility.yul\":457:559   */\n      swap2\n      swap1\n      pop\n      jump\t// out\n        /* \"#utility.yul\":565:745   */\n    tag_36:\n        /* \"#utility.yul\":613:690   */\n      0x4e487b7100000000000000000000000000000000000000000000000000000000\n        /* \"#utility.yul\":610:611   */\n      0x00\n        /* \"#utility.yul\":603:691   */\n      mstore\n        /* \"#utility.yul\":710:714   */\n      0x41\n        /* \"#utility.yul\":707:708   */\n      0x04\n        /* \"#utility.yul\":700:715   */\n      mstore\n        /* \"#utility.yul\":734:738   */\n      0x24\n        /* \"#utility.yul\":731:732   */\n      0x00\n        /* \"#utility.yul\":724:739   */\n      revert\n        /* \"#utility.yul\":751:1032   */\n    tag_54:\n        /* \"#utility.yul\":834:861   */\n      tag_75\n        /* \"#utility.yul\":856:860   */\n      dup3\n        /* \"#utility.yul\":834:861   */\n      tag_53\n      jump\t// in\n    tag_75:\n        /* \"#utility.yul\":826:832   */\n      dup2\n        /* \"#utility.yul\":822:862   */\n      add\n        /* \"#utility.yul\":964:970   */\n      dup2\n        /* \"#utility.yul\":952:962   */\n      dup2\n        /* \"#utility.yul\":949:971   */\n      lt\n        /* \"#utility.yul\":928:946   */\n      0xffffffffffffffff\n        /* \"#utility.yul\":916:926   */\n      dup3\n        /* \"#utility.yul\":913:947   */\n      gt\n        /* \"#utility.yul\":910:972   */\n      or\n        /* \"#utility.yul\":907:995   */\n      iszero\n      tag_76\n      jumpi\n        /* \"#utility.yul\":975:993   */\n      tag_77\n      tag_36\n      jump\t// in\n    tag_77:\n        /* \"#utility.yul\":907:995   */\n    tag_76:\n        /* \"#utility.yul\":1015:1025   */\n      dup1\n        /* \"#utility.yul\":1011:1013   */\n      0x40\n        /* \"#utility.yul\":1004:1026   */\n      mstore\n        /* \"#utility.yul\":794:1032   */\n      pop\n        /* \"#utility.yul\":751:1032   */\n      pop\n      pop\n      jump\t// out\n        /* \"#utility.yul\":1038:1167   */\n    tag_55:\n        /* \"#utility.yul\":1072:1078   */\n      0x00\n        /* \"#utility.yul\":1099:1119   */\n      tag_79\n      tag_49\n      jump\t// in\n    tag_79:\n        /* \"#utility.yul\":1089:1119   */\n      swap1\n      pop\n        /* \"#utility.yul\":1128:1161   */\n      tag_80\n        /* \"#utility.yul\":1156:1160   */\n      dup3\n        /* \"#utility.yul\":1148:1154   */\n      dup3\n        /* \"#utility.yul\":1128:1161   */\n      tag_54\n      jump\t// in\n    tag_80:\n        /* \"#utility.yul\":1038:1167   */\n      swap2\n      swap1\n      pop\n      jump\t// out\n        /* \"#utility.yul\":1173:1484   */\n    tag_56:\n        /* \"#utility.yul\":1250:1254   */\n      0x00\n        /* \"#utility.yul\":1340:1358   */\n      0xffffffffffffffff\n        /* \"#utility.yul\":1332:1338   */\n      dup3\n        /* \"#utility.yul\":1329:1359   */\n      gt\n        /* \"#utility.yul\":1326:1382   */\n      iszero\n      tag_82\n      jumpi\n        /* \"#utility.yul\":1362:1380   */\n      tag_83\n      tag_36\n      jump\t// in\n    tag_83:\n        /* \"#utility.yul\":1326:1382   */\n    tag_82:\n        /* \"#utility.yul\":1412:1416   */\n      0x20\n        /* \"#utility.yul\":1404:1410   */\n      dup3\n        /* \"#utility.yul\":1400:1417   */\n      mul\n        /* \"#utility.yul\":1392:1417   */\n      swap1\n      pop\n        /* \"#utility.yul\":1472:1476   */\n      0x20\n        /* \"#utility.yul\":1466:1470   */\n      dup2\n        /* \"#utility.yul\":1462:1477   */\n      add\n        /* \"#utility.yul\":1454:1477   */\n      swap1\n      pop\n        /* \"#utility.yul\":1173:1484   */\n      swap2\n      swap1\n      pop\n      jump\t// out\n        /* \"#utility.yul\":1490:1607   */\n    tag_57:\n        /* \"#utility.yul\":1599:1600   */\n      0x00\n        /* \"#utility.yul\":1596:1597   */\n      0x00\n        /* \"#utility.yul\":1589:1601   */\n      revert\n        /* \"#utility.yul\":1613:1690   */\n    tag_58:\n        /* \"#utility.yul\":1650:1657   */\n      0x00\n        /* \"#utility.yul\":1679:1684   */\n      dup2\n        /* \"#utility.yul\":1668:1684   */\n      swap1\n      pop\n        /* \"#utility.yul\":1613:1690   */\n      swap2\n      swap1\n      pop\n      jump\t// out\n        /* \"#utility.yul\":1696:1818   */\n    tag_59:\n        /* \"#utility.yul\":1769:1793   */\n      tag_87\n        /* \"#utility.yul\":1787:1792   */\n      dup2\n        /* \"#utility.yul\":1769:1793   */\n      tag_58\n      jump\t// in\n    tag_87:\n        /* \"#utility.yul\":1762:1767   */\n      dup2\n        /* \"#utility.yul\":1759:1794   */\n      eq\n        /* \"#utility.yul\":1749:1812   */\n      tag_88\n      jumpi\n        /* \"#utility.yul\":1808:1809   */\n      0x00\n        /* \"#utility.yul\":1805:1806   */\n      0x00\n        /* \"#utility.yul\":1798:1810   */\n      revert\n        /* \"#utility.yul\":1749:1812   */\n    tag_88:\n        /* \"#utility.yul\":1696:1818   */\n      pop\n      jump\t// out\n        /* \"#utility.yul\":1824:1963   */\n    tag_60:\n        /* \"#utility.yul\":1870:1875   */\n      0x00\n        /* \"#utility.yul\":1908:1914   */\n      dup2\n        /* \"#utility.yul\":1895:1915   */\n      calldataload\n        /* \"#utility.yul\":1886:1915   */\n      swap1\n      pop\n        /* \"#utility.yul\":1924:1957   */\n      tag_90\n        /* \"#utility.yul\":1951:1956   */\n      dup2\n        /* \"#utility.yul\":1924:1957   */\n      tag_59\n      jump\t// in\n    tag_90:\n        /* \"#utility.yul\":1824:1963   */\n      swap3\n      swap2\n      pop\n      pop\n      jump\t// out\n        /* \"#utility.yul\":1986:2696   */\n    tag_61:\n        /* \"#utility.yul\":2082:2087   */\n      0x00\n        /* \"#utility.yul\":2107:2188   */\n      tag_92\n        /* \"#utility.yul\":2123:2187   */\n      tag_93\n        /* \"#utility.yul\":2180:2186   */\n      dup5\n        /* \"#utility.yul\":2123:2187   */\n      tag_56\n      jump\t// in\n    tag_93:\n        /* \"#utility.yul\":2107:2188   */\n      tag_55\n      jump\t// in\n    tag_92:\n        /* \"#utility.yul\":2098:2188   */\n      swap1\n      pop\n        /* \"#utility.yul\":2208:2213   */\n      dup1\n        /* \"#utility.yul\":2237:2243   */\n      dup4\n        /* \"#utility.yul\":2230:2235   */\n      dup3\n        /* \"#utility.yul\":2223:2244   */\n      mstore\n        /* \"#utility.yul\":2271:2275   */\n      0x20\n        /* \"#utility.yul\":2264:2269   */\n      dup3\n        /* \"#utility.yul\":2260:2276   */\n      add\n        /* \"#utility.yul\":2253:2276   */\n      swap1\n      pop\n        /* \"#utility.yul\":2324:2328   */\n      0x20\n        /* \"#utility.yul\":2316:2322   */\n      dup5\n        /* \"#utility.yul\":2312:2329   */\n      mul\n        /* \"#utility.yul\":2304:2310   */\n      dup4\n        /* \"#utility.yul\":2300:2330   */\n      add\n        /* \"#utility.yul\":2353:2356   */\n      dup6\n        /* \"#utility.yul\":2345:2351   */\n      dup2\n        /* \"#utility.yul\":2342:2357   */\n      gt\n        /* \"#utility.yul\":2339:2461   */\n      iszero\n      tag_94\n      jumpi\n        /* \"#utility.yul\":2372:2451   */\n      tag_95\n      tag_57\n      jump\t// in\n    tag_95:\n        /* \"#utility.yul\":2339:2461   */\n    tag_94:\n        /* \"#utility.yul\":2487:2493   */\n      dup4\n        /* \"#utility.yul\":2470:2690   */\n    tag_96:\n        /* \"#utility.yul\":2504:2510   */\n      dup2\n        /* \"#utility.yul\":2499:2502   */\n      dup2\n        /* \"#utility.yul\":2496:2511   */\n      lt\n        /* \"#utility.yul\":2470:2690   */\n      iszero\n      tag_98\n      jumpi\n        /* \"#utility.yul\":2579:2582   */\n      dup1\n        /* \"#utility.yul\":2608:2645   */\n      tag_99\n        /* \"#utility.yul\":2641:2644   */\n      dup9\n        /* \"#utility.yul\":2629:2639   */\n      dup3\n        /* \"#utility.yul\":2608:2645   */\n      tag_60\n      jump\t// in\n    tag_99:\n        /* \"#utility.yul\":2603:2606   */\n      dup5\n        /* \"#utility.yul\":2596:2646   */\n      mstore\n        /* \"#utility.yul\":2675:2679   */\n      0x20\n        /* \"#utility.yul\":2670:2673   */\n      dup5\n        /* \"#utility.yul\":2666:2680   */\n      add\n        /* \"#utility.yul\":2659:2680   */\n      swap4\n      pop\n        /* \"#utility.yul\":2546:2690   */\n      pop\n        /* \"#utility.yul\":2530:2534   */\n      0x20\n        /* \"#utility.yul\":2525:2528   */\n      dup2\n        /* \"#utility.yul\":2521:2535   */\n      add\n        /* \"#utility.yul\":2514:2535   */\n      swap1\n      pop\n        /* \"#utility.yul\":2470:2690   */\n      jump(tag_96)\n    tag_98:\n        /* \"#utility.yul\":2474:2495   */\n      pop\n        /* \"#utility.yul\":2088:2696   */\n      pop\n      pop\n        /* \"#utility.yul\":1986:2696   */\n      swap4\n      swap3\n      pop\n      pop\n      pop\n      jump\t// out\n        /* \"#utility.yul\":2719:3089   */\n    tag_62:\n        /* \"#utility.yul\":2790:2795   */\n      0x00\n        /* \"#utility.yul\":2839:2842   */\n      dup3\n        /* \"#utility.yul\":2832:2836   */\n      0x1f\n        /* \"#utility.yul\":2824:2830   */\n      dup4\n        /* \"#utility.yul\":2820:2837   */\n      add\n        /* \"#utility.yul\":2816:2843   */\n      slt\n        /* \"#utility.yul\":2806:2928   */\n      tag_101\n      jumpi\n        /* \"#utility.yul\":2847:2926   */\n      tag_102\n      tag_52\n      jump\t// in\n    tag_102:\n        /* \"#utility.yul\":2806:2928   */\n    tag_101:\n        /* \"#utility.yul\":2964:2970   */\n      dup2\n        /* \"#utility.yul\":2951:2971   */\n      calldataload\n        /* \"#utility.yul\":2989:3083   */\n      tag_103\n        /* \"#utility.yul\":3079:3082   */\n      dup5\n        /* \"#utility.yul\":3071:3077   */\n      dup3\n        /* \"#utility.yul\":3064:3068   */\n      0x20\n        /* \"#utility.yul\":3056:3062   */\n      dup7\n        /* \"#utility.yul\":3052:3069   */\n      add\n        /* \"#utility.yul\":2989:3083   */\n      tag_61\n      jump\t// in\n    tag_103:\n        /* \"#utility.yul\":2980:3083   */\n      swap2\n      pop\n        /* \"#utility.yul\":2796:3089   */\n      pop\n        /* \"#utility.yul\":2719:3089   */\n      swap3\n      swap2\n      pop\n      pop\n      jump\t// out\n        /* \"#utility.yul\":3095:3779   */\n    tag_7:\n        /* \"#utility.yul\":3188:3194   */\n      0x00\n        /* \"#utility.yul\":3196:3202   */\n      0x00\n        /* \"#utility.yul\":3245:3247   */\n      0x40\n        /* \"#utility.yul\":3233:3242   */\n      dup4\n        /* \"#utility.yul\":3224:3231   */\n      dup6\n        /* \"#utility.yul\":3220:3243   */\n      sub\n        /* \"#utility.yul\":3216:3248   */\n      slt\n        /* \"#utility.yul\":3213:3332   */\n      iszero\n      tag_105\n      jumpi\n        /* \"#utility.yul\":3251:3330   */\n      tag_106\n      tag_50\n      jump\t// in\n    tag_106:\n        /* \"#utility.yul\":3213:3332   */\n    tag_105:\n        /* \"#utility.yul\":3399:3400   */\n      0x00\n        /* \"#utility.yul\":3388:3397   */\n      dup4\n        /* \"#utility.yul\":3384:3401   */\n      add\n        /* \"#utility.yul\":3371:3402   */\n      calldataload\n        /* \"#utility.yul\":3429:3447   */\n      0xffffffffffffffff\n        /* \"#utility.yul\":3421:3427   */\n      dup2\n        /* \"#utility.yul\":3418:3448   */\n      gt\n        /* \"#utility.yul\":3415:3532   */\n      iszero\n      tag_107\n      jumpi\n        /* \"#utility.yul\":3451:3530   */\n      tag_108\n      tag_51\n      jump\t// in\n    tag_108:\n        /* \"#utility.yul\":3415:3532   */\n    tag_107:\n        /* \"#utility.yul\":3556:3634   */\n      tag_109\n        /* \"#utility.yul\":3626:3633   */\n      dup6\n        /* \"#utility.yul\":3617:3623   */\n      dup3\n        /* \"#utility.yul\":3606:3615   */\n      dup7\n        /* \"#utility.yul\":3602:3624   */\n      add\n        /* \"#utility.yul\":3556:3634   */\n      tag_62\n      jump\t// in\n    tag_109:\n        /* \"#utility.yul\":3546:3634   */\n      swap3\n      pop\n        /* \"#utility.yul\":3342:3644   */\n      pop\n        /* \"#utility.yul\":3683:3685   */\n      0x20\n        /* \"#utility.yul\":3709:3762   */\n      tag_110\n        /* \"#utility.yul\":3754:3761   */\n      dup6\n        /* \"#utility.yul\":3745:3751   */\n      dup3\n        /* \"#utility.yul\":3734:3743   */\n      dup7\n        /* \"#utility.yul\":3730:3752   */\n      add\n        /* \"#utility.yul\":3709:3762   */\n      tag_60\n      jump\t// in\n    tag_110:\n        /* \"#utility.yul\":3699:3762   */\n      swap2\n      pop\n        /* \"#utility.yul\":3654:3772   */\n      pop\n        /* \"#utility.yul\":3095:3779   */\n      swap3\n      pop\n      swap3\n      swap1\n      pop\n      jump\t// out\n        /* \"#utility.yul\":3785:3861   */\n    tag_63:\n        /* \"#utility.yul\":3821:3828   */\n      0x00\n        /* \"#utility.yul\":3850:3855   */\n      dup2\n        /* \"#utility.yul\":3839:3855   */\n      swap1\n      pop\n        /* \"#utility.yul\":3785:3861   */\n      swap2\n      swap1\n      pop\n      jump\t// out\n        /* \"#utility.yul\":3867:3982   */\n    tag_64:\n        /* \"#utility.yul\":3952:3975   */\n      tag_113\n        /* \"#utility.yul\":3969:3974   */\n      dup2\n        /* \"#utility.yul\":3952:3975   */\n      tag_63\n      jump\t// in\n    tag_113:\n        /* \"#utility.yul\":3947:3950   */\n      dup3\n        /* \"#utility.yul\":3940:3976   */\n      mstore\n        /* \"#utility.yul\":3867:3982   */\n      pop\n      pop\n      jump\t// out\n        /* \"#utility.yul\":3988:4206   */\n    tag_10:\n        /* \"#utility.yul\":4079:4083   */\n      0x00\n        /* \"#utility.yul\":4117:4119   */\n      0x20\n        /* \"#utility.yul\":4106:4115   */\n      dup3\n        /* \"#utility.yul\":4102:4120   */\n      add\n        /* \"#utility.yul\":4094:4120   */\n      swap1\n      pop\n        /* \"#utility.yul\":4130:4199   */\n      tag_115\n        /* \"#utility.yul\":4196:4197   */\n      0x00\n        /* \"#utility.yul\":4185:4194   */\n      dup4\n        /* \"#utility.yul\":4181:4198   */\n      add\n        /* \"#utility.yul\":4172:4178   */\n      dup5\n        /* \"#utility.yul\":4130:4199   */\n      tag_64\n      jump\t// in\n    tag_115:\n        /* \"#utility.yul\":3988:4206   */\n      swap3\n      swap2\n      pop\n      pop\n      jump\t// out\n        /* \"#utility.yul\":4212:4392   */\n    tag_65:\n        /* \"#utility.yul\":4260:4337   */\n      0x4e487b7100000000000000000000000000000000000000000000000000000000\n        /* \"#utility.yul\":4257:4258   */\n      0x00\n        /* \"#utility.yul\":4250:4338   */\n      mstore\n        /* \"#utility.yul\":4357:4361   */\n      0x11\n        /* \"#utility.yul\":4354:4355   */\n      0x04\n        /* \"#utility.yul\":4347:4362   */\n      mstore\n        /* \"#utility.yul\":4381:4385   */\n      0x24\n        /* \"#utility.yul\":4378:4379   */\n      0x00\n        /* \"#utility.yul\":4371:4386   */\n      revert\n        /* \"#utility.yul\":4398:4592   */\n    tag_18:\n        /* \"#utility.yul\":4438:4442   */\n      0x00\n        /* \"#utility.yul\":4458:4478   */\n      tag_118\n        /* \"#utility.yul\":4476:4477   */\n      dup3\n        /* \"#utility.yul\":4458:4478   */\n      tag_58\n      jump\t// in\n    tag_118:\n        /* \"#utility.yul\":4453:4478   */\n      swap2\n      pop\n        /* \"#utility.yul\":4492:4512   */\n      tag_119\n        /* \"#utility.yul\":4510:4511   */\n      dup4\n        /* \"#utility.yul\":4492:4512   */\n      tag_58\n      jump\t// in\n    tag_119:\n        /* \"#utility.yul\":4487:4512   */\n      swap3\n      pop\n        /* \"#utility.yul\":4536:4537   */\n      dup3\n        /* \"#utility.yul\":4533:4534   */\n      dup3\n        /* \"#utility.yul\":4529:4538   */\n      sub\n        /* \"#utility.yul\":4521:4538   */\n      swap1\n      pop\n        /* \"#utility.yul\":4560:4561   */\n      dup2\n        /* \"#utility.yul\":4554:4558   */\n      dup2\n        /* \"#utility.yul\":4551:4562   */\n      gt\n        /* \"#utility.yul\":4548:4585   */\n      iszero\n      tag_120\n      jumpi\n        /* \"#utility.yul\":4565:4583   */\n      tag_121\n      tag_65\n      jump\t// in\n    tag_121:\n        /* \"#utility.yul\":4548:4585   */\n    tag_120:\n        /* \"#utility.yul\":4398:4592   */\n      swap3\n      swap2\n      pop\n      pop\n      jump\t// out\n        /* \"#utility.yul\":4598:4778   */\n    tag_66:\n        /* \"#utility.yul\":4646:4723   */\n      0x4e487b7100000000000000000000000000000000000000000000000000000000\n        /* \"#utility.yul\":4643:4644   */\n      0x00\n        /* \"#utility.yul\":4636:4724   */\n      mstore\n        /* \"#utility.yul\":4743:4747   */\n      0x12\n        /* \"#utility.yul\":4740:4741   */\n      0x04\n        /* \"#utility.yul\":4733:4748   */\n      mstore\n        /* \"#utility.yul\":4767:4771   */\n      0x24\n        /* \"#utility.yul\":4764:4765   */\n      0x00\n        /* \"#utility.yul\":4757:4772   */\n      revert\n        /* \"#utility.yul\":4784:4969   */\n    tag_20:\n        /* \"#utility.yul\":4824:4825   */\n      0x00\n        /* \"#utility.yul\":4841:4861   */\n      tag_124\n        /* \"#utility.yul\":4859:4860   */\n      dup3\n        /* \"#utility.yul\":4841:4861   */\n      tag_58\n      jump\t// in\n    tag_124:\n        /* \"#utility.yul\":4836:4861   */\n      swap2\n      pop\n        /* \"#utility.yul\":4875:4895   */\n      tag_125\n        /* \"#utility.yul\":4893:4894   */\n      dup4\n        /* \"#utility.yul\":4875:4895   */\n      tag_58\n      jump\t// in\n    tag_125:\n        /* \"#utility.yul\":4870:4895   */\n      swap3\n      pop\n        /* \"#utility.yul\":4914:4915   */\n      dup3\n        /* \"#utility.yul\":4904:4939   */\n      tag_126\n      jumpi\n        /* \"#utility.yul\":4919:4937   */\n      tag_127\n      tag_66\n      jump\t// in\n    tag_127:\n        /* \"#utility.yul\":4904:4939   */\n    tag_126:\n        /* \"#utility.yul\":4961:4962   */\n      dup3\n        /* \"#utility.yul\":4958:4959   */\n      dup3\n        /* \"#utility.yul\":4954:4963   */\n      div\n        /* \"#utility.yul\":4949:4963   */\n      swap1\n      pop\n        /* \"#utility.yul\":4784:4969   */\n      swap3\n      swap2\n      pop\n      pop\n      jump\t// out\n        /* \"#utility.yul\":4975:5166   */\n    tag_22:\n        /* \"#utility.yul\":5015:5018   */\n      0x00\n        /* \"#utility.yul\":5034:5054   */\n      tag_129\n        /* \"#utility.yul\":5052:5053   */\n      dup3\n        /* \"#utility.yul\":5034:5054   */\n      tag_58\n      jump\t// in\n    tag_129:\n        /* \"#utility.yul\":5029:5054   */\n      swap2\n      pop\n        /* \"#utility.yul\":5068:5088   */\n      tag_130\n        /* \"#utility.yul\":5086:5087   */\n      dup4\n        /* \"#utility.yul\":5068:5088   */\n      tag_58\n      jump\t// in\n    tag_130:\n        /* \"#utility.yul\":5063:5088   */\n      swap3\n      pop\n        /* \"#utility.yul\":5111:5112   */\n      dup3\n        /* \"#utility.yul\":5108:5109   */\n      dup3\n        /* \"#utility.yul\":5104:5113   */\n      add\n        /* \"#utility.yul\":5097:5113   */\n      swap1\n      pop\n        /* \"#utility.yul\":5132:5135   */\n      dup1\n        /* \"#utility.yul\":5129:5130   */\n      dup3\n        /* \"#utility.yul\":5126:5136   */\n      gt\n        /* \"#utility.yul\":5123:5159   */\n      iszero\n      tag_131\n      jumpi\n        /* \"#utility.yul\":5139:5157   */\n      tag_132\n      tag_65\n      jump\t// in\n    tag_132:\n        /* \"#utility.yul\":5123:5159   */\n    tag_131:\n        /* \"#utility.yul\":4975:5166   */\n      swap3\n      swap2\n      pop\n      pop\n      jump\t// out\n        /* \"#utility.yul\":5172:5352   */\n    tag_25:\n        /* \"#utility.yul\":5220:5297   */\n      0x4e487b7100000000000000000000000000000000000000000000000000000000\n        /* \"#utility.yul\":5217:5218   */\n      0x00\n        /* \"#utility.yul\":5210:5298   */\n      mstore\n        /* \"#utility.yul\":5317:5321   */\n      0x32\n        /* \"#utility.yul\":5314:5315   */\n      0x04\n        /* \"#utility.yul\":5307:5322   */\n      mstore\n        /* \"#utility.yul\":5341:5345   */\n      0x24\n        /* \"#utility.yul\":5338:5339   */\n      0x00\n        /* \"#utility.yul\":5331:5346   */\n      revert\n\n    auxdata: 0xa2646970667358221220af030995db437bcc4b2c1841f7a761718be362221165039aff6df22dc76e553e64736f6c634300081e0033\n}\n",
				"bytecode": {
					"linkReferences": {},
					"object": "6080604052348015600e575f5ffd5b506105d18061001c5f395ff3fe608060405234801561000f575f5ffd5b5060043610610034575f3560e01c806321352d8a1461003857806323e973e414610068575b5f5ffd5b610052600480360381019061004d91906103f3565b610086565b60405161005f9190610465565b60405180910390f35b610070610157565b60405161007d9190610465565b60405180910390f35b5f5f5f90505f845190505b8082101561012b575f600283836100a891906104ab565b6100b2919061050b565b836100bd919061053b565b9050848682815181106100d3576100d261056e565b5b6020026020010151036100eb57809350505050610151565b848682815181106100ff576100fe61056e565b5b602002602001015110156101215760018161011a919061053b565b9250610125565b8091505b50610091565b7fffffffffffffffffffffffffffffffffffffffffffffffffffffffffffffffff925050505b92915050565b5f5f600567ffffffffffffffff81111561017457610173610284565b5b6040519080825280602002602001820160405280156101a25781602001602082028036833780820191505090505b5090506002815f815181106101ba576101b961056e565b5b6020026020010181815250506003816001815181106101dc576101db61056e565b5b6020026020010181815250506004816002815181106101fe576101fd61056e565b5b6020026020010181815250506006816003815181106102205761021f61056e565b5b6020026020010181815250506007816004815181106102425761024161056e565b5b602002602001018181525050610259816006610086565b91505090565b5f604051905090565b5f5ffd5b5f5ffd5b5f5ffd5b5f601f19601f8301169050919050565b7f4e487b71000000000000000000000000000000000000000000000000000000005f52604160045260245ffd5b6102ba82610274565b810181811067ffffffffffffffff821117156102d9576102d8610284565b5b80604052505050565b5f6102eb61025f565b90506102f782826102b1565b919050565b5f67ffffffffffffffff82111561031657610315610284565b5b602082029050602081019050919050565b5f5ffd5b5f819050919050565b61033d8161032b565b8114610347575f5ffd5b50565b5f8135905061035881610334565b92915050565b5f61037061036b846102fc565b6102e2565b9050808382526020820190506020840283018581111561039357610392610327565b5b835b818110156103bc57806103a8888261034a565b845260208401935050602081019050610395565b5050509392505050565b5f82601f8301126103da576103d9610270565b5b81356103ea84826020860161035e565b91505092915050565b5f5f6040838503121561040957610408610268565b5b5f83013567ffffffffffffffff8111156104265761042561026c565b5b610432858286016103c6565b92505060206104438582860161034a565b9150509250929050565b5f819050919050565b61045f8161044d565b82525050565b5f6020820190506104785f830184610456565b92915050565b7f4e487b71000000000000000000000000000000000000000000000000000000005f52601160045260245ffd5b5f6104b58261032b565b91506104c08361032b565b92508282039050818111156104d8576104d761047e565b5b92915050565b7f4e487b71000000000000000000000000000000000000000000000000000000005f52601260045260245ffd5b5f6105158261032b565b91506105208361032b565b9250826105305761052f6104de565b5b828204905092915050565b5f6105458261032b565b91506105508361032b565b92508282019050808211156105685761056761047e565b5b92915050565b7f4e487b71000000000000000000000000000000000000000000000000000000005f52603260045260245ffdfea2646970667358221220af030995db437bcc4b2c1841f7a761718be362221165039aff6df22dc76e553e64736f6c634300081e0033",
					"opcodes": "PUSH1 0x80 PUSH1 0x40 MSTORE CALLVALUE DUP1 ISZERO PUSH1 0xE JUMPI PUSH0 PUSH0 REVERT JUMPDEST POP PUSH2 0x5D1 DUP1 PUSH2 0x1C PUSH0 CODECOPY PUSH0 RETURN INVALID PUSH1 0x80 PUSH1 0x40 MSTORE CALLVALUE DUP1 ISZERO PUSH2 0xF JUMPI PUSH0 PUSH0 REVERT JUMPDEST POP PUSH1 0x4 CALLDATASIZE LT PUSH2 0x34 JUMPI PUSH0 CALLDATALOAD PUSH1 0xE0 SHR DUP1 PUSH4 0x21352D8A EQ PUSH2 0x38 JUMPI DUP1 PUSH4 0x23E973E4 EQ PUSH2 0x68 JUMPI JUMPDEST PUSH0 PUSH0 REVERT JUMPDEST PUSH2 0x52 PUSH1 0x4 DUP1 CALLDATASIZE SUB DUP2 ADD SWAP1 PUSH2 0x4D SWAP2 SWAP1 PUSH2 0x3F3 JUMP JUMPDEST PUSH2 0x86 JUMP JUMPDEST PUSH1 0x40 MLOAD PUSH2 0x5F SWAP2 SWAP1 PUSH2 0x465 JUMP JUMPDEST PUSH1 0x40 MLOAD DUP1 SWAP2 SUB SWAP1 RETURN JUMPDEST PUSH2 0x70 PUSH2 0x157 JUMP JUMPDEST PUSH1 0x40 MLOAD PUSH2 0x7D SWAP2 SWAP1 PUSH2 0x465 JUMP JUMPDEST PUSH1 0x40 MLOAD DUP1 SWAP2 SUB SWAP1 RETURN JUMPDEST PUSH0 PUSH0 PUSH0 SWAP1 POP PUSH0 DUP5 MLOAD SWAP1 POP JUMPDEST DUP1 DUP3 LT ISZERO PUSH2 0x12B JUMPI PUSH0 PUSH1 0x2 DUP4 DUP4 PUSH2 0xA8 SWAP2 SWAP1 PUSH2 0x4AB JUMP JUMPDEST PUSH2 0xB2 SWAP2 SWAP1 PUSH2 0x50B JUMP JUMPDEST DUP4 PUSH2 0xBD SWAP2 SWAP1 PUSH2 0x53B JUMP JUMPDEST SWAP1 POP DUP5 DUP7 DUP3 DUP2 MLOAD DUP2 LT PUSH2 0xD3 JUMPI PUSH2 0xD2 PUSH2 0x56E JUMP JUMPDEST JUMPDEST PUSH1 0x20 MUL PUSH1 0x20 ADD ADD MLOAD SUB PUSH2 0xEB JUMPI DUP1 SWAP4 POP POP POP POP PUSH2 0x151 JUMP JUMPDEST DUP5 DUP7 DUP3 DUP2 MLOAD DUP2 LT PUSH2 0xFF JUMPI PUSH2 0xFE PUSH2 0x56E JUMP JUMPDEST JUMPDEST PUSH1 0x20 MUL PUSH1 0x20 ADD ADD MLOAD LT ISZERO PUSH2 0x121 JUMPI PUSH1 0x1 DUP2 PUSH2 0x11A SWAP2 SWAP1 PUSH2 0x53B JUMP JUMPDEST SWAP3 POP PUSH2 0x125 JUMP JUMPDEST DUP1 SWAP2 POP JUMPDEST POP PUSH2 0x91 JUMP JUMPDEST PUSH32 0xFFFFFFFFFFFFFFFFFFFFFFFFFFFFFFFFFFFFFFFFFFFFFFFFFFFFFFFFFFFFFFFF SWAP3 POP POP POP JUMPDEST SWAP3 SWAP2 POP POP JUMP JUMPDEST PUSH0 PUSH0 PUSH1 0x5 PUSH8 0xFFFFFFFFFFFFFFFF DUP2 GT ISZERO PUSH2 0x174 JUMPI PUSH2 0x173 PUSH2 0x284 JUMP JUMPDEST JUMPDEST PUSH1 0x40 MLOAD SWAP1 DUP1 DUP3 MSTORE DUP1 PUSH1 0x20 MUL PUSH1 0x20 ADD DUP3 ADD PUSH1 0x40 MSTORE DUP1 ISZERO PUSH2 0x1A2 JUMPI DUP2 PUSH1 0x20 ADD PUSH1 0x20 DUP3 MUL DUP1 CALLDATASIZE DUP4 CALLDATACOPY DUP1 DUP3 ADD SWAP2 POP POP SWAP1 POP JUMPDEST POP SWAP1 POP PUSH1 0x2 DUP2 PUSH0 DUP2 MLOAD DUP2 LT PUSH2 0x1BA JUMPI PUSH2 0x1B9 PUSH2 0x56E JUMP JUMPDEST JUMPDEST PUSH1 0x20 MUL PUSH1 0x20 ADD ADD DUP2 DUP2 MSTORE POP POP PUSH1 0x3 DUP2 PUSH1 0x1 DUP2 MLOAD DUP2 LT PUSH2 0x1DC JUMPI PUSH2 0x1DB PUSH2 0x56E JUMP JUMPDEST JUMPDEST PUSH1 0x20 MUL PUSH1 0x20 ADD ADD DUP2 DUP2 MSTORE POP POP PUSH1 0x4 DUP2 PUSH1 0x2 DUP2 MLOAD DUP2 LT PUSH2 0x1FE JUMPI PUSH2 0x1FD PUSH2 0x56E JUMP JUMPDEST JUMPDEST PUSH1 0x20 MUL PUSH1 0x20 ADD ADD DUP2 DUP2 MSTORE POP POP PUSH1 0x6 DUP2 PUSH1 0x3 DUP2 MLOAD DUP2 LT PUSH2 0x220 JUMPI PUSH2 0x21F PUSH2 0x56E JUMP JUMPDEST JUMPDEST PUSH1 0x20 MUL PUSH1 0x20 ADD ADD DUP2 DUP2 MSTORE POP POP PUSH1 0x7 DUP2 PUSH1 0x4 DUP2 MLOAD DUP2 LT PUSH2 0x242 JUMPI PUSH2 0x241 PUSH2 0x56E JUMP JUMPDEST JUMPDEST PUSH1 0x20 MUL PUSH1 0x20 ADD ADD DUP2 DUP2 MSTORE POP POP PUSH2 0x259 DUP2 PUSH1 0x6 PUSH2 0x86 JUMP JUMPDEST SWAP2 POP POP SWAP1 JUMP JUMPDEST PUSH0 PUSH1 0x40 MLOAD SWAP1 POP SWAP1 JUMP JUMPDEST PUSH0 PUSH0 REVERT JUMPDEST PUSH0 PUSH0 REVERT JUMPDEST PUSH0 PUSH0 REVERT JUMPDEST PUSH0 PUSH1 0x1F NOT PUSH1 0x1F DUP4 ADD AND SWAP1 POP SWAP2 SWAP1 POP JUMP JUMPDEST PUSH32 0x4E487B7100000000000000000000000000000000000000000000000000000000 PUSH0 MSTORE PUSH1 0x41 PUSH1 0x4 MSTORE PUSH1 0x24 PUSH0 REVERT JUMPDEST PUSH2 0x2BA DUP3 PUSH2 0x274 JUMP JUMPDEST DUP2 ADD DUP2 DUP2 LT PUSH8 0xFFFFFFFFFFFFFFFF DUP3 GT OR ISZERO PUSH2 0x2D9 JUMPI PUSH2 0x2D8 PUSH2 0x284 JUMP JUMPDEST JUMPDEST DUP1 PUSH1 0x40 MSTORE POP POP POP JUMP JUMPDEST PUSH0 PUSH2 0x2EB PUSH2 0x25F JUMP JUMPDEST SWAP1 POP PUSH2 0x2F7 DUP3 DUP3 PUSH2 0x2B1 JUMP JUMPDEST SWAP2 SWAP1 POP JUMP JUMPDEST PUSH0 PUSH8 0xFFFFFFFFFFFFFFFF DUP3 GT ISZERO PUSH2 0x316 JUMPI PUSH2 0x315 PUSH2 0x284 JUMP JUMPDEST JUMPDEST PUSH1 0x20 DUP3 MUL SWAP1 POP PUSH1 0x20 DUP2 ADD SWAP1 POP SWAP2 SWAP1 POP JUMP JUMPDEST PUSH0 PUSH0 REVERT JUMPDEST PUSH0 DUP2 SWAP1 POP SWAP2 SWAP1 POP JUMP JUMPDEST PUSH2 0x33D DUP2 PUSH2 0x32B JUMP JUMPDEST DUP2 EQ PUSH2 0x347 JUMPI PUSH0 PUSH0 REVERT JUMPDEST POP JUMP JUMPDEST PUSH0 DUP2 CALLDATALOAD SWAP1 POP PUSH2 0x358 DUP2 PUSH2 0x334 JUMP JUMPDEST SWAP3 SWAP2 POP POP JUMP JUMPDEST PUSH0 PUSH2 0x370 PUSH2 0x36B DUP5 PUSH2 0x2FC JUMP JUMPDEST PUSH2 0x2E2 JUMP JUMPDEST SWAP1 POP DUP1 DUP4 DUP3 MSTORE PUSH1 0x20 DUP3 ADD SWAP1 POP PUSH1 0x20 DUP5 MUL DUP4 ADD DUP6 DUP2 GT ISZERO PUSH2 0x393 JUMPI PUSH2 0x392 PUSH2 0x327 JUMP JUMPDEST JUMPDEST DUP4 JUMPDEST DUP2 DUP2 LT ISZERO PUSH2 0x3BC JUMPI DUP1 PUSH2 0x3A8 DUP9 DUP3 PUSH2 0x34A JUMP JUMPDEST DUP5 MSTORE PUSH1 0x20 DUP5 ADD SWAP4 POP POP PUSH1 0x20 DUP2 ADD SWAP1 POP PUSH2 0x395 JUMP JUMPDEST POP POP POP SWAP4 SWAP3 POP POP POP JUMP JUMPDEST PUSH0 DUP3 PUSH1 0x1F DUP4 ADD SLT PUSH2 0x3DA JUMPI PUSH2 0x3D9 PUSH2 0x270 JUMP JUMPDEST JUMPDEST DUP2 CALLDATALOAD PUSH2 0x3EA DUP5 DUP3 PUSH1 0x20 DUP7 ADD PUSH2 0x35E JUMP JUMPDEST SWAP2 POP POP SWAP3 SWAP2 POP POP JUMP JUMPDEST PUSH0 PUSH0 PUSH1 0x40 DUP4 DUP6 SUB SLT ISZERO PUSH2 0x409 JUMPI PUSH2 0x408 PUSH2 0x268 JUMP JUMPDEST JUMPDEST PUSH0 DUP4 ADD CALLDATALOAD PUSH8 0xFFFFFFFFFFFFFFFF DUP2 GT ISZERO PUSH2 0x426 JUMPI PUSH2 0x425 PUSH2 0x26C JUMP JUMPDEST JUMPDEST PUSH2 0x432 DUP6 DUP3 DUP7 ADD PUSH2 0x3C6 JUMP JUMPDEST SWAP3 POP POP PUSH1 0x20 PUSH2 0x443 DUP6 DUP3 DUP7 ADD PUSH2 0x34A JUMP JUMPDEST SWAP2 POP POP SWAP3 POP SWAP3 SWAP1 POP JUMP JUMPDEST PUSH0 DUP2 SWAP1 POP SWAP2 SWAP1 POP JUMP JUMPDEST PUSH2 0x45F DUP2 PUSH2 0x44D JUMP JUMPDEST DUP3 MSTORE POP POP JUMP JUMPDEST PUSH0 PUSH1 0x20 DUP3 ADD SWAP1 POP PUSH2 0x478 PUSH0 DUP4 ADD DUP5 PUSH2 0x456 JUMP JUMPDEST SWAP3 SWAP2 POP POP JUMP JUMPDEST PUSH32 0x4E487B7100000000000000000000000000000000000000000000000000000000 PUSH0 MSTORE PUSH1 0x11 PUSH1 0x4 MSTORE PUSH1 0x24 PUSH0 REVERT JUMPDEST PUSH0 PUSH2 0x4B5 DUP3 PUSH2 0x32B JUMP JUMPDEST SWAP2 POP PUSH2 0x4C0 DUP4 PUSH2 0x32B JUMP JUMPDEST SWAP3 POP DUP3 DUP3 SUB SWAP1 POP DUP2 DUP2 GT ISZERO PUSH2 0x4D8 JUMPI PUSH2 0x4D7 PUSH2 0x47E JUMP JUMPDEST JUMPDEST SWAP3 SWAP2 POP POP JUMP JUMPDEST PUSH32 0x4E487B7100000000000000000000000000000000000000000000000000000000 PUSH0 MSTORE PUSH1 0x12 PUSH1 0x4 MSTORE PUSH1 0x24 PUSH0 REVERT JUMPDEST PUSH0 PUSH2 0x515 DUP3 PUSH2 0x32B JUMP JUMPDEST SWAP2 POP PUSH2 0x520 DUP4 PUSH2 0x32B JUMP JUMPDEST SWAP3 POP DUP3 PUSH2 0x530 JUMPI PUSH2 0x52F PUSH2 0x4DE JUMP JUMPDEST JUMPDEST DUP3 DUP3 DIV SWAP1 POP SWAP3 SWAP2 POP POP JUMP JUMPDEST PUSH0 PUSH2 0x545 DUP3 PUSH2 0x32B JUMP JUMPDEST SWAP2 POP PUSH2 0x550 DUP4 PUSH2 0x32B JUMP JUMPDEST SWAP3 POP DUP3 DUP3 ADD SWAP1 POP DUP1 DUP3 GT ISZERO PUSH2 0x568 JUMPI PUSH2 0x567 PUSH2 0x47E JUMP JUMPDEST JUMPDEST SWAP3 SWAP2 POP POP JUMP JUMPDEST PUSH32 0x4E487B7100000000000000000000000000000000000000000000000000000000 PUSH0 MSTORE PUSH1 0x32 PUSH1 0x4 MSTORE PUSH1 0x24 PUSH0 REVERT INVALID LOG2 PUSH5 0x6970667358 0x22 SLT KECCAK256 0xAF SUB MULMOD SWAP6 0xDB NUMBER PUSH28 0xCC4B2C1841F7A761718BE362221165039AFF6DF22DC76E553E64736F PUSH13 0x634300081E0033000000000000 "
				},
				"gasEstimates": {
					"creation": {
						"codeDepositCost": "297800",
						"executionCost": "335",
						"totalCost": "298135"
					},
					"external": {
						"binarySearchWithIndex(uint256[],uint256)": "infinite",
						"demonstrate()": "infinite"
					}
				},
				"methodIdentifiers": {
					"binarySearchWithIndex(uint256[],uint256)": "21352d8a",
					"demonstrate()": "23e973e4"
				}
			},
			"storageLayout": {
				"storage": [],
				"types": null
			},
			"userdoc": {
				"kind": "user",
				"methods": {},
				"version": 1
			}
		}
	}
}