{
	"solTask1/codeRoman.sol": {
		"RomanToInteger": {
			"abi": [
				{
					"inputs": [],
					"stateMutability": "nonpayable",
					"type": "constructor"
				},
				{
					"inputs": [
						{
							"internalType": "string",
							"name": "s",
							"type": "string"
						}
					],
					"name": "romanToInt",
					"outputs": [
						{
							"internalType": "uint256",
							"name": "",
							"type": "uint256"
						}
					],
					"stateMutability": "view",
					"type": "function"
				}
			],
			"devdoc": {
				"kind": "dev",
				"methods": {},
				"version": 1
			},
			"evm": {
				"assembly": "    /* \"solTask1/codeRoman.sol\":1492:4201  contract RomanToInteger {... */\n  mstore(0x40, 0x80)\n    /* \"solTask1/codeRoman.sol\":1624:1921  constructor() {... */\n  callvalue\n  dup1\n  iszero\n  tag_1\n  jumpi\n  revert(0x00, 0x00)\ntag_1:\n  pop\n    /* \"solTask1/codeRoman.sol\":1717:1718  1 */\n  0x01\n    /* \"solTask1/codeRoman.sol\":1698:1709  romanValues */\n  0x00\n    /* \"solTask1/codeRoman.sol\":1698:1714  romanValues['I'] */\n  0x00\n  and(not(0xffffffffffffffffffffffffffffffffffffffffffffffffffffffffffffff), 0x4900000000000000000000000000000000000000000000000000000000000000)\n  dup2\n  mstore\n  0x20\n  add\n  swap1\n  dup2\n  mstore\n  0x20\n  add\n  0x00\n  keccak256\n    /* \"solTask1/codeRoman.sol\":1698:1718  romanValues['I'] = 1 */\n  dup2\n  swap1\n  sstore\n  pop\n    /* \"solTask1/codeRoman.sol\":1748:1749  5 */\n  0x05\n    /* \"solTask1/codeRoman.sol\":1729:1740  romanValues */\n  0x00\n    /* \"solTask1/codeRoman.sol\":1729:1745  romanValues['V'] */\n  0x00\n  and(not(0xffffffffffffffffffffffffffffffffffffffffffffffffffffffffffffff), 0x5600000000000000000000000000000000000000000000000000000000000000)\n  dup2\n  mstore\n  0x20\n  add\n  swap1\n  dup2\n  mstore\n  0x20\n  add\n  0x00\n  keccak256\n    /* \"solTask1/codeRoman.sol\":1729:1749  romanValues['V'] = 5 */\n  dup2\n  swap1\n  sstore\n  pop\n    /* \"solTask1/codeRoman.sol\":1779:1781  10 */\n  0x0a\n    /* \"solTask1/codeRoman.sol\":1760:1771  romanValues */\n  0x00\n    /* \"solTask1/codeRoman.sol\":1760:1776  romanValues['X'] */\n  0x00\n  and(not(0xffffffffffffffffffffffffffffffffffffffffffffffffffffffffffffff), 0x5800000000000000000000000000000000000000000000000000000000000000)\n  dup2\n  mstore\n  0x20\n  add\n  swap1\n  dup2\n  mstore\n  0x20\n  add\n  0x00\n  keccak256\n    /* \"solTask1/codeRoman.sol\":1760:1781  romanValues['X'] = 10 */\n  dup2\n  swap1\n  sstore\n  pop\n    /* \"solTask1/codeRoman.sol\":1811:1813  50 */\n  0x32\n    /* \"solTask1/codeRoman.sol\":1792:1803  romanValues */\n  0x00\n    /* \"solTask1/codeRoman.sol\":1792:1808  romanValues['L'] */\n  0x00\n  and(not(0xffffffffffffffffffffffffffffffffffffffffffffffffffffffffffffff), 0x4c00000000000000000000000000000000000000000000000000000000000000)\n  dup2\n  mstore\n  0x20\n  add\n  swap1\n  dup2\n  mstore\n  0x20\n  add\n  0x00\n  keccak256\n    /* \"solTask1/codeRoman.sol\":1792:1813  romanValues['L'] = 50 */\n  dup2\n  swap1\n  sstore\n  pop\n    /* \"solTask1/codeRoman.sol\":1843:1846  100 */\n  0x64\n    /* \"solTask1/codeRoman.sol\":1824:1835  romanValues */\n  0x00\n    /* \"solTask1/codeRoman.sol\":1824:1840  romanValues['C'] */\n  0x00\n  and(not(0xffffffffffffffffffffffffffffffffffffffffffffffffffffffffffffff), 0x4300000000000000000000000000000000000000000000000000000000000000)\n  dup2\n  mstore\n  0x20\n  add\n  swap1\n  dup2\n  mstore\n  0x20\n  add\n  0x00\n  keccak256\n    /* \"solTask1/codeRoman.sol\":1824:1846  romanValues['C'] = 100 */\n  dup2\n  swap1\n  sstore\n  pop\n    /* \"solTask1/codeRoman.sol\":1876:1879  500 */\n  0x01f4\n    /* \"solTask1/codeRoman.sol\":1857:1868  romanValues */\n  0x00\n    /* \"solTask1/codeRoman.sol\":1857:1873  romanValues['D'] */\n  0x00\n  and(not(0xffffffffffffffffffffffffffffffffffffffffffffffffffffffffffffff), 0x4400000000000000000000000000000000000000000000000000000000000000)\n  dup2\n  mstore\n  0x20\n  add\n  swap1\n  dup2\n  mstore\n  0x20\n  add\n  0x00\n  keccak256\n    /* \"solTask1/codeRoman.sol\":1857:1879  romanValues['D'] = 500 */\n  dup2\n  swap1\n  sstore\n  pop\n    /* \"solTask1/codeRoman.sol\":1909:1913  1000 */\n  0x03e8\n    /* \"solTask1/codeRoman.sol\":1890:1901  romanValues */\n  0x00\n    /* \"solTask1/codeRoman.sol\":1890:1906  romanValues['M'] */\n  0x00\n  and(not(0xffffffffffffffffffffffffffffffffffffffffffffffffffffffffffffff), 0x4d00000000000000000000000000000000000000000000000000000000000000)\n  dup2\n  mstore\n  0x20\n  add\n  swap1\n  dup2\n  mstore\n  0x20\n  add\n  0x00\n  keccak256\n    /* \"solTask1/codeRoman.sol\":1890:1913  romanValues['M'] = 1000 */\n  dup2\n  swap1\n  sstore\n  pop\n    /* \"solTask1/codeRoman.sol\":1492:4201  contract RomanToInteger {... */\n  dataSize(sub_0)\n  dup1\n  dataOffset(sub_0)\n  0x00\n  codecopy\n  0x00\n  return\nstop\n\nsub_0: assembly {\n        /* \"solTask1/codeRoman.sol\":1492:4201  contract RomanToInteger {... */\n      mstore(0x40, 0x80)\n      callvalue\n      dup1\n      iszero\n      tag_1\n      jumpi\n      revert(0x00, 0x00)\n    tag_1:\n      pop\n      jumpi(tag_2, lt(calldatasize, 0x04))\n      shr(0xe0, calldataload(0x00))\n      dup1\n      0xcb159dfe\n      eq\n      tag_3\n      jumpi\n    tag_2:\n      revert(0x00, 0x00)\n        /* \"solTask1/codeRoman.sol\":1981:2969  function romanToInt(string memory s) public view returns (uint) {... */\n    tag_3:\n      tag_4\n      0x04\n      dup1\n      calldatasize\n      sub\n      dup2\n      add\n      swap1\n      tag_5\n      swap2\n      swap1\n      tag_6\n      jump\t// in\n    tag_5:\n      tag_7\n      jump\t// in\n    tag_4:\n      mload(0x40)\n      tag_8\n      swap2\n      swap1\n      tag_9\n      jump\t// in\n    tag_8:\n      mload(0x40)\n      dup1\n      swap2\n      sub\n      swap1\n      return\n    tag_7:\n        /* \"solTask1/codeRoman.sol\":2039:2043  uint */\n      0x00\n        /* \"solTask1/codeRoman.sol\":2056:2074  bytes memory roman */\n      0x00\n        /* \"solTask1/codeRoman.sol\":2083:2084  s */\n      dup3\n        /* \"solTask1/codeRoman.sol\":2056:2085  bytes memory roman = bytes(s) */\n      swap1\n      pop\n        /* \"solTask1/codeRoman.sol\":2096:2106  uint total */\n      0x00\n        /* \"solTask1/codeRoman.sol\":2109:2110  0 */\n      0x00\n        /* \"solTask1/codeRoman.sol\":2096:2110  uint total = 0 */\n      swap1\n      pop\n        /* \"solTask1/codeRoman.sol\":2121:2135  uint prevValue */\n      0x00\n        /* \"solTask1/codeRoman.sol\":2138:2139  0 */\n      0x00\n        /* \"solTask1/codeRoman.sol\":2121:2139  uint prevValue = 0 */\n      swap1\n      pop\n        /* \"solTask1/codeRoman.sol\":2165:2171  uint i */\n      0x00\n        /* \"solTask1/codeRoman.sol\":2174:2175  0 */\n      0x00\n        /* \"solTask1/codeRoman.sol\":2165:2175  uint i = 0 */\n      swap1\n      pop\n        /* \"solTask1/codeRoman.sol\":2160:2796  for (uint i = 0; i < roman.length; i++) {... */\n    tag_11:\n        /* \"solTask1/codeRoman.sol\":2181:2186  roman */\n      dup4\n        /* \"solTask1/codeRoman.sol\":2181:2193  roman.length */\n      mload\n        /* \"solTask1/codeRoman.sol\":2177:2178  i */\n      dup2\n        /* \"solTask1/codeRoman.sol\":2177:2193  i < roman.length */\n      lt\n        /* \"solTask1/codeRoman.sol\":2160:2796  for (uint i = 0; i < roman.length; i++) {... */\n      iszero\n      tag_12\n      jumpi\n        /* \"solTask1/codeRoman.sol\":2215:2233  bytes1 currentChar */\n      0x00\n        /* \"solTask1/codeRoman.sol\":2236:2241  roman */\n      dup5\n        /* \"solTask1/codeRoman.sol\":2242:2243  i */\n      dup3\n        /* \"solTask1/codeRoman.sol\":2236:2244  roman[i] */\n      dup2\n      mload\n      dup2\n      lt\n      tag_14\n      jumpi\n      tag_15\n      tag_16\n      jump\t// in\n    tag_15:\n    tag_14:\n      0x20\n      add\n      add\n      mload\n      0xf8\n      shr\n      0xf8\n      shl\n        /* \"solTask1/codeRoman.sol\":2215:2244  bytes1 currentChar = roman[i] */\n      swap1\n      pop\n        /* \"solTask1/codeRoman.sol\":2294:2295  0 */\n      0x00\n        /* \"solTask1/codeRoman.sol\":2267:2278  romanValues */\n      0x00\n        /* \"solTask1/codeRoman.sol\":2267:2291  romanValues[currentChar] */\n      0x00\n        /* \"solTask1/codeRoman.sol\":2279:2290  currentChar */\n      dup4\n        /* \"solTask1/codeRoman.sol\":2267:2291  romanValues[currentChar] */\n      not(0xffffffffffffffffffffffffffffffffffffffffffffffffffffffffffffff)\n      and\n      not(0xffffffffffffffffffffffffffffffffffffffffffffffffffffffffffffff)\n      and\n      dup2\n      mstore\n      0x20\n      add\n      swap1\n      dup2\n      mstore\n      0x20\n      add\n      0x00\n      keccak256\n      sload\n        /* \"solTask1/codeRoman.sol\":2267:2295  romanValues[currentChar] > 0 */\n      gt\n        /* \"solTask1/codeRoman.sol\":2259:2331  require(romanValues[currentChar] > 0, \"Invalid Roman numeral character\") */\n      tag_17\n      jumpi\n      mload(0x40)\n      0x08c379a000000000000000000000000000000000000000000000000000000000\n      dup2\n      mstore\n      0x04\n      add\n      tag_18\n      swap1\n      tag_19\n      jump\t// in\n    tag_18:\n      mload(0x40)\n      dup1\n      swap2\n      sub\n      swap1\n      revert\n    tag_17:\n        /* \"solTask1/codeRoman.sol\":2360:2377  uint currentValue */\n      0x00\n        /* \"solTask1/codeRoman.sol\":2380:2391  romanValues */\n      0x00\n        /* \"solTask1/codeRoman.sol\":2380:2404  romanValues[currentChar] */\n      0x00\n        /* \"solTask1/codeRoman.sol\":2392:2403  currentChar */\n      dup4\n        /* \"solTask1/codeRoman.sol\":2380:2404  romanValues[currentChar] */\n      not(0xffffffffffffffffffffffffffffffffffffffffffffffffffffffffffffff)\n      and\n      not(0xffffffffffffffffffffffffffffffffffffffffffffffffffffffffffffff)\n      and\n      dup2\n      mstore\n      0x20\n      add\n      swap1\n      dup2\n      mstore\n      0x20\n      add\n      0x00\n      keccak256\n      sload\n        /* \"solTask1/codeRoman.sol\":2360:2404  uint currentValue = romanValues[currentChar] */\n      swap1\n      pop\n        /* \"solTask1/codeRoman.sol\":2584:2596  currentValue */\n      dup1\n        /* \"solTask1/codeRoman.sol\":2572:2581  prevValue */\n      dup5\n        /* \"solTask1/codeRoman.sol\":2572:2596  prevValue < currentValue */\n      lt\n        /* \"solTask1/codeRoman.sol\":2568:2732  if (prevValue < currentValue) {... */\n      iszero\n      tag_20\n      jumpi\n        /* \"solTask1/codeRoman.sol\":2645:2654  prevValue */\n      dup4\n        /* \"solTask1/codeRoman.sol\":2641:2642  2 */\n      0x02\n        /* \"solTask1/codeRoman.sol\":2641:2654  2 * prevValue */\n      tag_21\n      swap2\n      swap1\n      tag_22\n      jump\t// in\n    tag_21:\n        /* \"solTask1/codeRoman.sol\":2626:2638  currentValue */\n      dup2\n        /* \"solTask1/codeRoman.sol\":2626:2654  currentValue - 2 * prevValue */\n      tag_23\n      swap2\n      swap1\n      tag_24\n      jump\t// in\n    tag_23:\n        /* \"solTask1/codeRoman.sol\":2617:2654  total += currentValue - 2 * prevValue */\n      dup6\n      tag_25\n      swap2\n      swap1\n      tag_26\n      jump\t// in\n    tag_25:\n      swap5\n      pop\n        /* \"solTask1/codeRoman.sol\":2568:2732  if (prevValue < currentValue) {... */\n      jump(tag_27)\n    tag_20:\n        /* \"solTask1/codeRoman.sol\":2704:2716  currentValue */\n      dup1\n        /* \"solTask1/codeRoman.sol\":2695:2716  total += currentValue */\n      dup6\n      tag_28\n      swap2\n      swap1\n      tag_26\n      jump\t// in\n    tag_28:\n      swap5\n      pop\n        /* \"solTask1/codeRoman.sol\":2568:2732  if (prevValue < currentValue) {... */\n    tag_27:\n        /* \"solTask1/codeRoman.sol\":2772:2784  currentValue */\n      dup1\n        /* \"solTask1/codeRoman.sol\":2760:2784  prevValue = currentValue */\n      swap4\n      pop\n        /* \"solTask1/codeRoman.sol\":2200:2796  {... */\n      pop\n      pop\n        /* \"solTask1/codeRoman.sol\":2195:2198  i++ */\n      dup1\n      dup1\n      0x01\n      add\n      swap2\n      pop\n      pop\n        /* \"solTask1/codeRoman.sol\":2160:2796  for (uint i = 0; i < roman.length; i++) {... */\n      jump(tag_11)\n    tag_12:\n      pop\n        /* \"solTask1/codeRoman.sol\":2879:2895  validateRoman(s) */\n      tag_29\n        /* \"solTask1/codeRoman.sol\":2893:2894  s */\n      dup6\n        /* \"solTask1/codeRoman.sol\":2879:2892  validateRoman */\n      tag_30\n        /* \"solTask1/codeRoman.sol\":2879:2895  validateRoman(s) */\n      jump\t// in\n    tag_29:\n        /* \"solTask1/codeRoman.sol\":2871:2928  require(validateRoman(s), \"Invalid Roman numeral format\") */\n      tag_31\n      jumpi\n      mload(0x40)\n      0x08c379a000000000000000000000000000000000000000000000000000000000\n      dup2\n      mstore\n      0x04\n      add\n      tag_32\n      swap1\n      tag_33\n      jump\t// in\n    tag_32:\n      mload(0x40)\n      dup1\n      swap2\n      sub\n      swap1\n      revert\n    tag_31:\n        /* \"solTask1/codeRoman.sol\":2956:2961  total */\n      dup2\n        /* \"solTask1/codeRoman.sol\":2949:2961  return total */\n      swap4\n      pop\n      pop\n      pop\n      pop\n        /* \"solTask1/codeRoman.sol\":1981:2969  function romanToInt(string memory s) public view returns (uint) {... */\n      swap2\n      swap1\n      pop\n      jump\t// out\n        /* \"solTask1/codeRoman.sol\":3026:4198  function validateRoman(string memory s) private view returns (bool) {... */\n    tag_30:\n        /* \"solTask1/codeRoman.sol\":3088:3092  bool */\n      0x00\n        /* \"solTask1/codeRoman.sol\":3105:3123  bytes memory roman */\n      0x00\n        /* \"solTask1/codeRoman.sol\":3132:3133  s */\n      dup3\n        /* \"solTask1/codeRoman.sol\":3105:3134  bytes memory roman = bytes(s) */\n      swap1\n      pop\n        /* \"solTask1/codeRoman.sol\":3197:3203  uint i */\n      0x00\n        /* \"solTask1/codeRoman.sol\":3206:3207  0 */\n      0x00\n        /* \"solTask1/codeRoman.sol\":3197:3207  uint i = 0 */\n      swap1\n      pop\n        /* \"solTask1/codeRoman.sol\":3192:3337  for (uint i = 0; i < roman.length; i++) {... */\n    tag_35:\n        /* \"solTask1/codeRoman.sol\":3213:3218  roman */\n      dup2\n        /* \"solTask1/codeRoman.sol\":3213:3225  roman.length */\n      mload\n        /* \"solTask1/codeRoman.sol\":3209:3210  i */\n      dup2\n        /* \"solTask1/codeRoman.sol\":3209:3225  i < roman.length */\n      lt\n        /* \"solTask1/codeRoman.sol\":3192:3337  for (uint i = 0; i < roman.length; i++) {... */\n      iszero\n      tag_36\n      jumpi\n        /* \"solTask1/codeRoman.sol\":3276:3277  0 */\n      0x00\n        /* \"solTask1/codeRoman.sol\":3251:3262  romanValues */\n      0x00\n        /* \"solTask1/codeRoman.sol\":3251:3272  romanValues[roman[i]] */\n      0x00\n        /* \"solTask1/codeRoman.sol\":3263:3268  roman */\n      dup5\n        /* \"solTask1/codeRoman.sol\":3269:3270  i */\n      dup5\n        /* \"solTask1/codeRoman.sol\":3263:3271  roman[i] */\n      dup2\n      mload\n      dup2\n      lt\n      tag_38\n      jumpi\n      tag_39\n      tag_16\n      jump\t// in\n    tag_39:\n    tag_38:\n      0x20\n      add\n      add\n      mload\n      0xf8\n      shr\n      0xf8\n      shl\n        /* \"solTask1/codeRoman.sol\":3251:3272  romanValues[roman[i]] */\n      not(0xffffffffffffffffffffffffffffffffffffffffffffffffffffffffffffff)\n      and\n      not(0xffffffffffffffffffffffffffffffffffffffffffffffffffffffffffffff)\n      and\n      dup2\n      mstore\n      0x20\n      add\n      swap1\n      dup2\n      mstore\n      0x20\n      add\n      0x00\n      keccak256\n      sload\n        /* \"solTask1/codeRoman.sol\":3251:3277  romanValues[roman[i]] == 0 */\n      sub\n        /* \"solTask1/codeRoman.sol\":3247:3326  if (romanValues[roman[i]] == 0) {... */\n      tag_40\n      jumpi\n        /* \"solTask1/codeRoman.sol\":3305:3310  false */\n      0x00\n        /* \"solTask1/codeRoman.sol\":3298:3310  return false */\n      swap3\n      pop\n      pop\n      pop\n      jump(tag_34)\n        /* \"solTask1/codeRoman.sol\":3247:3326  if (romanValues[roman[i]] == 0) {... */\n    tag_40:\n        /* \"solTask1/codeRoman.sol\":3227:3230  i++ */\n      dup1\n      dup1\n      0x01\n      add\n      swap2\n      pop\n      pop\n        /* \"solTask1/codeRoman.sol\":3192:3337  for (uint i = 0; i < roman.length; i++) {... */\n      jump(tag_35)\n    tag_36:\n      pop\n        /* \"solTask1/codeRoman.sol\":3411:3417  uint i */\n      0x00\n        /* \"solTask1/codeRoman.sol\":3420:3421  0 */\n      0x00\n        /* \"solTask1/codeRoman.sol\":3411:3421  uint i = 0 */\n      swap1\n      pop\n        /* \"solTask1/codeRoman.sol\":3406:4159  for (uint i = 0; i < roman.length - 1; i++) {... */\n    tag_41:\n        /* \"solTask1/codeRoman.sol\":3442:3443  1 */\n      0x01\n        /* \"solTask1/codeRoman.sol\":3427:3432  roman */\n      dup3\n        /* \"solTask1/codeRoman.sol\":3427:3439  roman.length */\n      mload\n        /* \"solTask1/codeRoman.sol\":3427:3443  roman.length - 1 */\n      tag_44\n      swap2\n      swap1\n      tag_24\n      jump\t// in\n    tag_44:\n        /* \"solTask1/codeRoman.sol\":3423:3424  i */\n      dup2\n        /* \"solTask1/codeRoman.sol\":3423:3443  i < roman.length - 1 */\n      lt\n        /* \"solTask1/codeRoman.sol\":3406:4159  for (uint i = 0; i < roman.length - 1; i++) {... */\n      iszero\n      tag_42\n      jumpi\n        /* \"solTask1/codeRoman.sol\":3465:3477  uint current */\n      0x00\n        /* \"solTask1/codeRoman.sol\":3480:3491  romanValues */\n      0x00\n        /* \"solTask1/codeRoman.sol\":3480:3501  romanValues[roman[i]] */\n      0x00\n        /* \"solTask1/codeRoman.sol\":3492:3497  roman */\n      dup5\n        /* \"solTask1/codeRoman.sol\":3498:3499  i */\n      dup5\n        /* \"solTask1/codeRoman.sol\":3492:3500  roman[i] */\n      dup2\n      mload\n      dup2\n      lt\n      tag_45\n      jumpi\n      tag_46\n      tag_16\n      jump\t// in\n    tag_46:\n    tag_45:\n      0x20\n      add\n      add\n      mload\n      0xf8\n      shr\n      0xf8\n      shl\n        /* \"solTask1/codeRoman.sol\":3480:3501  romanValues[roman[i]] */\n      not(0xffffffffffffffffffffffffffffffffffffffffffffffffffffffffffffff)\n      and\n      not(0xffffffffffffffffffffffffffffffffffffffffffffffffffffffffffffff)\n      and\n      dup2\n      mstore\n      0x20\n      add\n      swap1\n      dup2\n      mstore\n      0x20\n      add\n      0x00\n      keccak256\n      sload\n        /* \"solTask1/codeRoman.sol\":3465:3501  uint current = romanValues[roman[i]] */\n      swap1\n      pop\n        /* \"solTask1/codeRoman.sol\":3516:3525  uint next */\n      0x00\n        /* \"solTask1/codeRoman.sol\":3528:3539  romanValues */\n      0x00\n        /* \"solTask1/codeRoman.sol\":3528:3551  romanValues[roman[i+1]] */\n      0x00\n        /* \"solTask1/codeRoman.sol\":3540:3545  roman */\n      dup6\n        /* \"solTask1/codeRoman.sol\":3548:3549  1 */\n      0x01\n        /* \"solTask1/codeRoman.sol\":3546:3547  i */\n      dup7\n        /* \"solTask1/codeRoman.sol\":3546:3549  i+1 */\n      tag_47\n      swap2\n      swap1\n      tag_26\n      jump\t// in\n    tag_47:\n        /* \"solTask1/codeRoman.sol\":3540:3550  roman[i+1] */\n      dup2\n      mload\n      dup2\n      lt\n      tag_48\n      jumpi\n      tag_49\n      tag_16\n      jump\t// in\n    tag_49:\n    tag_48:\n      0x20\n      add\n      add\n      mload\n      0xf8\n      shr\n      0xf8\n      shl\n        /* \"solTask1/codeRoman.sol\":3528:3551  romanValues[roman[i+1]] */\n      not(0xffffffffffffffffffffffffffffffffffffffffffffffffffffffffffffff)\n      and\n      not(0xffffffffffffffffffffffffffffffffffffffffffffffffffffffffffffff)\n      and\n      dup2\n      mstore\n      0x20\n      add\n      swap1\n      dup2\n      mstore\n      0x20\n      add\n      0x00\n      keccak256\n      sload\n        /* \"solTask1/codeRoman.sol\":3516:3551  uint next = romanValues[roman[i+1]] */\n      swap1\n      pop\n        /* \"solTask1/codeRoman.sol\":3641:3645  next */\n      dup1\n        /* \"solTask1/codeRoman.sol\":3631:3638  current */\n      dup3\n        /* \"solTask1/codeRoman.sol\":3631:3645  current < next */\n      lt\n        /* \"solTask1/codeRoman.sol\":3627:4148  if (current < next) {... */\n      iszero\n      tag_50\n      jumpi\n        /* \"solTask1/codeRoman.sol\":3683:3684  1 */\n      0x01\n        /* \"solTask1/codeRoman.sol\":3672:3679  current */\n      dup3\n        /* \"solTask1/codeRoman.sol\":3672:3684  current == 1 */\n      eq\n        /* \"solTask1/codeRoman.sol\":3672:3713  current == 1 && (next == 5 || next == 10) */\n      dup1\n      iszero\n      tag_51\n      jumpi\n      pop\n        /* \"solTask1/codeRoman.sol\":3697:3698  5 */\n      0x05\n        /* \"solTask1/codeRoman.sol\":3689:3693  next */\n      dup2\n        /* \"solTask1/codeRoman.sol\":3689:3698  next == 5 */\n      eq\n        /* \"solTask1/codeRoman.sol\":3689:3712  next == 5 || next == 10 */\n      dup1\n      tag_52\n      jumpi\n      pop\n        /* \"solTask1/codeRoman.sol\":3710:3712  10 */\n      0x0a\n        /* \"solTask1/codeRoman.sol\":3702:3706  next */\n      dup2\n        /* \"solTask1/codeRoman.sol\":3702:3712  next == 10 */\n      eq\n        /* \"solTask1/codeRoman.sol\":3689:3712  next == 5 || next == 10 */\n    tag_52:\n        /* \"solTask1/codeRoman.sol\":3672:3713  current == 1 && (next == 5 || next == 10) */\n    tag_51:\n        /* \"solTask1/codeRoman.sol\":3670:3714  !(current == 1 && (next == 5 || next == 10)) */\n      iszero\n        /* \"solTask1/codeRoman.sol\":3670:3786  !(current == 1 && (next == 5 || next == 10)) &&... */\n      dup1\n      iszero\n      tag_53\n      jumpi\n      pop\n        /* \"solTask1/codeRoman.sol\":3752:3754  10 */\n      0x0a\n        /* \"solTask1/codeRoman.sol\":3741:3748  current */\n      dup3\n        /* \"solTask1/codeRoman.sol\":3741:3754  current == 10 */\n      eq\n        /* \"solTask1/codeRoman.sol\":3741:3785  current == 10 && (next == 50 || next == 100) */\n      dup1\n      iszero\n      tag_54\n      jumpi\n      pop\n        /* \"solTask1/codeRoman.sol\":3767:3769  50 */\n      0x32\n        /* \"solTask1/codeRoman.sol\":3759:3763  next */\n      dup2\n        /* \"solTask1/codeRoman.sol\":3759:3769  next == 50 */\n      eq\n        /* \"solTask1/codeRoman.sol\":3759:3784  next == 50 || next == 100 */\n      dup1\n      tag_55\n      jumpi\n      pop\n        /* \"solTask1/codeRoman.sol\":3781:3784  100 */\n      0x64\n        /* \"solTask1/codeRoman.sol\":3773:3777  next */\n      dup2\n        /* \"solTask1/codeRoman.sol\":3773:3784  next == 100 */\n      eq\n        /* \"solTask1/codeRoman.sol\":3759:3784  next == 50 || next == 100 */\n    tag_55:\n        /* \"solTask1/codeRoman.sol\":3741:3785  current == 10 && (next == 50 || next == 100) */\n    tag_54:\n        /* \"solTask1/codeRoman.sol\":3739:3786  !(current == 10 && (next == 50 || next == 100)) */\n      iszero\n        /* \"solTask1/codeRoman.sol\":3670:3786  !(current == 1 && (next == 5 || next == 10)) &&... */\n    tag_53:\n        /* \"solTask1/codeRoman.sol\":3670:3861  !(current == 1 && (next == 5 || next == 10)) &&... */\n      dup1\n      iszero\n      tag_56\n      jumpi\n      pop\n        /* \"solTask1/codeRoman.sol\":3824:3827  100 */\n      0x64\n        /* \"solTask1/codeRoman.sol\":3813:3820  current */\n      dup3\n        /* \"solTask1/codeRoman.sol\":3813:3827  current == 100 */\n      eq\n        /* \"solTask1/codeRoman.sol\":3813:3860  current == 100 && (next == 500 || next == 1000) */\n      dup1\n      iszero\n      tag_57\n      jumpi\n      pop\n        /* \"solTask1/codeRoman.sol\":3840:3843  500 */\n      0x01f4\n        /* \"solTask1/codeRoman.sol\":3832:3836  next */\n      dup2\n        /* \"solTask1/codeRoman.sol\":3832:3843  next == 500 */\n      eq\n        /* \"solTask1/codeRoman.sol\":3832:3859  next == 500 || next == 1000 */\n      dup1\n      tag_58\n      jumpi\n      pop\n        /* \"solTask1/codeRoman.sol\":3855:3859  1000 */\n      0x03e8\n        /* \"solTask1/codeRoman.sol\":3847:3851  next */\n      dup2\n        /* \"solTask1/codeRoman.sol\":3847:3859  next == 1000 */\n      eq\n        /* \"solTask1/codeRoman.sol\":3832:3859  next == 500 || next == 1000 */\n    tag_58:\n        /* \"solTask1/codeRoman.sol\":3813:3860  current == 100 && (next == 500 || next == 1000) */\n    tag_57:\n        /* \"solTask1/codeRoman.sol\":3811:3861  !(current == 100 && (next == 500 || next == 1000)) */\n      iszero\n        /* \"solTask1/codeRoman.sol\":3670:3861  !(current == 1 && (next == 5 || next == 10)) &&... */\n    tag_56:\n        /* \"solTask1/codeRoman.sol\":3666:3918  if (!(current == 1 && (next == 5 || next == 10)) &&... */\n      iszero\n      tag_59\n      jumpi\n        /* \"solTask1/codeRoman.sol\":3893:3898  false */\n      0x00\n        /* \"solTask1/codeRoman.sol\":3886:3898  return false */\n      swap5\n      pop\n      pop\n      pop\n      pop\n      pop\n      jump(tag_34)\n        /* \"solTask1/codeRoman.sol\":3666:3918  if (!(current == 1 && (next == 5 || next == 10)) &&... */\n    tag_59:\n        /* \"solTask1/codeRoman.sol\":4040:4041  0 */\n      0x00\n        /* \"solTask1/codeRoman.sol\":4036:4037  i */\n      dup4\n        /* \"solTask1/codeRoman.sol\":4036:4041  i > 0 */\n      gt\n        /* \"solTask1/codeRoman.sol\":4036:4076  i > 0 && romanValues[roman[i-1]] <= next */\n      dup1\n      iszero\n      tag_60\n      jumpi\n      pop\n        /* \"solTask1/codeRoman.sol\":4072:4076  next */\n      dup1\n        /* \"solTask1/codeRoman.sol\":4045:4056  romanValues */\n      0x00\n        /* \"solTask1/codeRoman.sol\":4045:4068  romanValues[roman[i-1]] */\n      0x00\n        /* \"solTask1/codeRoman.sol\":4057:4062  roman */\n      dup7\n        /* \"solTask1/codeRoman.sol\":4065:4066  1 */\n      0x01\n        /* \"solTask1/codeRoman.sol\":4063:4064  i */\n      dup8\n        /* \"solTask1/codeRoman.sol\":4063:4066  i-1 */\n      tag_61\n      swap2\n      swap1\n      tag_24\n      jump\t// in\n    tag_61:\n        /* \"solTask1/codeRoman.sol\":4057:4067  roman[i-1] */\n      dup2\n      mload\n      dup2\n      lt\n      tag_62\n      jumpi\n      tag_63\n      tag_16\n      jump\t// in\n    tag_63:\n    tag_62:\n      0x20\n      add\n      add\n      mload\n      0xf8\n      shr\n      0xf8\n      shl\n        /* \"solTask1/codeRoman.sol\":4045:4068  romanValues[roman[i-1]] */\n      not(0xffffffffffffffffffffffffffffffffffffffffffffffffffffffffffffff)\n      and\n      not(0xffffffffffffffffffffffffffffffffffffffffffffffffffffffffffffff)\n      and\n      dup2\n      mstore\n      0x20\n      add\n      swap1\n      dup2\n      mstore\n      0x20\n      add\n      0x00\n      keccak256\n      sload\n        /* \"solTask1/codeRoman.sol\":4045:4076  romanValues[roman[i-1]] <= next */\n      gt\n      iszero\n        /* \"solTask1/codeRoman.sol\":4036:4076  i > 0 && romanValues[roman[i-1]] <= next */\n    tag_60:\n        /* \"solTask1/codeRoman.sol\":4032:4133  if (i > 0 && romanValues[roman[i-1]] <= next) {... */\n      iszero\n      tag_64\n      jumpi\n        /* \"solTask1/codeRoman.sol\":4108:4113  false */\n      0x00\n        /* \"solTask1/codeRoman.sol\":4101:4113  return false */\n      swap5\n      pop\n      pop\n      pop\n      pop\n      pop\n      jump(tag_34)\n        /* \"solTask1/codeRoman.sol\":4032:4133  if (i > 0 && romanValues[roman[i-1]] <= next) {... */\n    tag_64:\n        /* \"solTask1/codeRoman.sol\":3627:4148  if (current < next) {... */\n    tag_50:\n        /* \"solTask1/codeRoman.sol\":3450:4159  {... */\n      pop\n      pop\n        /* \"solTask1/codeRoman.sol\":3445:3448  i++ */\n      dup1\n      dup1\n      0x01\n      add\n      swap2\n      pop\n      pop\n        /* \"solTask1/codeRoman.sol\":3406:4159  for (uint i = 0; i < roman.length - 1; i++) {... */\n      jump(tag_41)\n    tag_42:\n      pop\n        /* \"solTask1/codeRoman.sol\":4186:4190  true */\n      0x01\n        /* \"solTask1/codeRoman.sol\":4179:4190  return true */\n      swap2\n      pop\n      pop\n        /* \"solTask1/codeRoman.sol\":3026:4198  function validateRoman(string memory s) private view returns (bool) {... */\n    tag_34:\n      swap2\n      swap1\n      pop\n      jump\t// out\n        /* \"#utility.yul\":7:82   */\n    tag_65:\n        /* \"#utility.yul\":40:46   */\n      0x00\n        /* \"#utility.yul\":73:75   */\n      0x40\n        /* \"#utility.yul\":67:76   */\n      mload\n        /* \"#utility.yul\":57:76   */\n      swap1\n      pop\n        /* \"#utility.yul\":7:82   */\n      swap1\n      jump\t// out\n        /* \"#utility.yul\":88:205   */\n    tag_66:\n        /* \"#utility.yul\":197:198   */\n      0x00\n        /* \"#utility.yul\":194:195   */\n      0x00\n        /* \"#utility.yul\":187:199   */\n      revert\n        /* \"#utility.yul\":211:328   */\n    tag_67:\n        /* \"#utility.yul\":320:321   */\n      0x00\n        /* \"#utility.yul\":317:318   */\n      0x00\n        /* \"#utility.yul\":310:322   */\n      revert\n        /* \"#utility.yul\":334:451   */\n    tag_68:\n        /* \"#utility.yul\":443:444   */\n      0x00\n        /* \"#utility.yul\":440:441   */\n      0x00\n        /* \"#utility.yul\":433:445   */\n      revert\n        /* \"#utility.yul\":457:574   */\n    tag_69:\n        /* \"#utility.yul\":566:567   */\n      0x00\n        /* \"#utility.yul\":563:564   */\n      0x00\n        /* \"#utility.yul\":556:568   */\n      revert\n        /* \"#utility.yul\":580:682   */\n    tag_70:\n        /* \"#utility.yul\":621:627   */\n      0x00\n        /* \"#utility.yul\":672:674   */\n      0x1f\n        /* \"#utility.yul\":668:675   */\n      not\n        /* \"#utility.yul\":663:665   */\n      0x1f\n        /* \"#utility.yul\":656:661   */\n      dup4\n        /* \"#utility.yul\":652:666   */\n      add\n        /* \"#utility.yul\":648:676   */\n      and\n        /* \"#utility.yul\":638:676   */\n      swap1\n      pop\n        /* \"#utility.yul\":580:682   */\n      swap2\n      swap1\n      pop\n      jump\t// out\n        /* \"#utility.yul\":688:868   */\n    tag_71:\n        /* \"#utility.yul\":736:813   */\n      0x4e487b7100000000000000000000000000000000000000000000000000000000\n        /* \"#utility.yul\":733:734   */\n      0x00\n        /* \"#utility.yul\":726:814   */\n      mstore\n        /* \"#utility.yul\":833:837   */\n      0x41\n        /* \"#utility.yul\":830:831   */\n      0x04\n        /* \"#utility.yul\":823:838   */\n      mstore\n        /* \"#utility.yul\":857:861   */\n      0x24\n        /* \"#utility.yul\":854:855   */\n      0x00\n        /* \"#utility.yul\":847:862   */\n      revert\n        /* \"#utility.yul\":874:1155   */\n    tag_72:\n        /* \"#utility.yul\":957:984   */\n      tag_95\n        /* \"#utility.yul\":979:983   */\n      dup3\n        /* \"#utility.yul\":957:984   */\n      tag_70\n      jump\t// in\n    tag_95:\n        /* \"#utility.yul\":949:955   */\n      dup2\n        /* \"#utility.yul\":945:985   */\n      add\n        /* \"#utility.yul\":1087:1093   */\n      dup2\n        /* \"#utility.yul\":1075:1085   */\n      dup2\n        /* \"#utility.yul\":1072:1094   */\n      lt\n        /* \"#utility.yul\":1051:1069   */\n      0xffffffffffffffff\n        /* \"#utility.yul\":1039:1049   */\n      dup3\n        /* \"#utility.yul\":1036:1070   */\n      gt\n        /* \"#utility.yul\":1033:1095   */\n      or\n        /* \"#utility.yul\":1030:1118   */\n      iszero\n      tag_96\n      jumpi\n        /* \"#utility.yul\":1098:1116   */\n      tag_97\n      tag_71\n      jump\t// in\n    tag_97:\n        /* \"#utility.yul\":1030:1118   */\n    tag_96:\n        /* \"#utility.yul\":1138:1148   */\n      dup1\n        /* \"#utility.yul\":1134:1136   */\n      0x40\n        /* \"#utility.yul\":1127:1149   */\n      mstore\n        /* \"#utility.yul\":917:1155   */\n      pop\n        /* \"#utility.yul\":874:1155   */\n      pop\n      pop\n      jump\t// out\n        /* \"#utility.yul\":1161:1290   */\n    tag_73:\n        /* \"#utility.yul\":1195:1201   */\n      0x00\n        /* \"#utility.yul\":1222:1242   */\n      tag_99\n      tag_65\n      jump\t// in\n    tag_99:\n        /* \"#utility.yul\":1212:1242   */\n      swap1\n      pop\n        /* \"#utility.yul\":1251:1284   */\n      tag_100\n        /* \"#utility.yul\":1279:1283   */\n      dup3\n        /* \"#utility.yul\":1271:1277   */\n      dup3\n        /* \"#utility.yul\":1251:1284   */\n      tag_72\n      jump\t// in\n    tag_100:\n        /* \"#utility.yul\":1161:1290   */\n      swap2\n      swap1\n      pop\n      jump\t// out\n        /* \"#utility.yul\":1296:1604   */\n    tag_74:\n        /* \"#utility.yul\":1358:1362   */\n      0x00\n        /* \"#utility.yul\":1448:1466   */\n      0xffffffffffffffff\n        /* \"#utility.yul\":1440:1446   */\n      dup3\n        /* \"#utility.yul\":1437:1467   */\n      gt\n        /* \"#utility.yul\":1434:1490   */\n      iszero\n      tag_102\n      jumpi\n        /* \"#utility.yul\":1470:1488   */\n      tag_103\n      tag_71\n      jump\t// in\n    tag_103:\n        /* \"#utility.yul\":1434:1490   */\n    tag_102:\n        /* \"#utility.yul\":1508:1537   */\n      tag_104\n        /* \"#utility.yul\":1530:1536   */\n      dup3\n        /* \"#utility.yul\":1508:1537   */\n      tag_70\n      jump\t// in\n    tag_104:\n        /* \"#utility.yul\":1500:1537   */\n      swap1\n      pop\n        /* \"#utility.yul\":1592:1596   */\n      0x20\n        /* \"#utility.yul\":1586:1590   */\n      dup2\n        /* \"#utility.yul\":1582:1597   */\n      add\n        /* \"#utility.yul\":1574:1597   */\n      swap1\n      pop\n        /* \"#utility.yul\":1296:1604   */\n      swap2\n      swap1\n      pop\n      jump\t// out\n        /* \"#utility.yul\":1610:1758   */\n    tag_75:\n        /* \"#utility.yul\":1708:1714   */\n      dup3\n        /* \"#utility.yul\":1703:1706   */\n      dup2\n        /* \"#utility.yul\":1698:1701   */\n      dup4\n        /* \"#utility.yul\":1685:1715   */\n      calldatacopy\n        /* \"#utility.yul\":1749:1750   */\n      0x00\n        /* \"#utility.yul\":1740:1746   */\n      dup4\n        /* \"#utility.yul\":1735:1738   */\n      dup4\n        /* \"#utility.yul\":1731:1747   */\n      add\n        /* \"#utility.yul\":1724:1751   */\n      mstore\n        /* \"#utility.yul\":1610:1758   */\n      pop\n      pop\n      pop\n      jump\t// out\n        /* \"#utility.yul\":1764:2189   */\n    tag_76:\n        /* \"#utility.yul\":1842:1847   */\n      0x00\n        /* \"#utility.yul\":1867:1933   */\n      tag_107\n        /* \"#utility.yul\":1883:1932   */\n      tag_108\n        /* \"#utility.yul\":1925:1931   */\n      dup5\n        /* \"#utility.yul\":1883:1932   */\n      tag_74\n      jump\t// in\n    tag_108:\n        /* \"#utility.yul\":1867:1933   */\n      tag_73\n      jump\t// in\n    tag_107:\n        /* \"#utility.yul\":1858:1933   */\n      swap1\n      pop\n        /* \"#utility.yul\":1956:1962   */\n      dup3\n        /* \"#utility.yul\":1949:1954   */\n      dup2\n        /* \"#utility.yul\":1942:1963   */\n      mstore\n        /* \"#utility.yul\":1994:1998   */\n      0x20\n        /* \"#utility.yul\":1987:1992   */\n      dup2\n        /* \"#utility.yul\":1983:1999   */\n      add\n        /* \"#utility.yul\":2032:2035   */\n      dup5\n        /* \"#utility.yul\":2023:2029   */\n      dup5\n        /* \"#utility.yul\":2018:2021   */\n      dup5\n        /* \"#utility.yul\":2014:2030   */\n      add\n        /* \"#utility.yul\":2011:2036   */\n      gt\n        /* \"#utility.yul\":2008:2120   */\n      iszero\n      tag_109\n      jumpi\n        /* \"#utility.yul\":2039:2118   */\n      tag_110\n      tag_69\n      jump\t// in\n    tag_110:\n        /* \"#utility.yul\":2008:2120   */\n    tag_109:\n        /* \"#utility.yul\":2129:2183   */\n      tag_111\n        /* \"#utility.yul\":2176:2182   */\n      dup5\n        /* \"#utility.yul\":2171:2174   */\n      dup3\n        /* \"#utility.yul\":2166:2169   */\n      dup6\n        /* \"#utility.yul\":2129:2183   */\n      tag_75\n      jump\t// in\n    tag_111:\n        /* \"#utility.yul\":1848:2189   */\n      pop\n        /* \"#utility.yul\":1764:2189   */\n      swap4\n      swap3\n      pop\n      pop\n      pop\n      jump\t// out\n        /* \"#utility.yul\":2209:2549   */\n    tag_77:\n        /* \"#utility.yul\":2265:2270   */\n      0x00\n        /* \"#utility.yul\":2314:2317   */\n      dup3\n        /* \"#utility.yul\":2307:2311   */\n      0x1f\n        /* \"#utility.yul\":2299:2305   */\n      dup4\n        /* \"#utility.yul\":2295:2312   */\n      add\n        /* \"#utility.yul\":2291:2318   */\n      slt\n        /* \"#utility.yul\":2281:2403   */\n      tag_113\n      jumpi\n        /* \"#utility.yul\":2322:2401   */\n      tag_114\n      tag_68\n      jump\t// in\n    tag_114:\n        /* \"#utility.yul\":2281:2403   */\n    tag_113:\n        /* \"#utility.yul\":2439:2445   */\n      dup2\n        /* \"#utility.yul\":2426:2446   */\n      calldataload\n        /* \"#utility.yul\":2464:2543   */\n      tag_115\n        /* \"#utility.yul\":2539:2542   */\n      dup5\n        /* \"#utility.yul\":2531:2537   */\n      dup3\n        /* \"#utility.yul\":2524:2528   */\n      0x20\n        /* \"#utility.yul\":2516:2522   */\n      dup7\n        /* \"#utility.yul\":2512:2529   */\n      add\n        /* \"#utility.yul\":2464:2543   */\n      tag_76\n      jump\t// in\n    tag_115:\n        /* \"#utility.yul\":2455:2543   */\n      swap2\n      pop\n        /* \"#utility.yul\":2271:2549   */\n      pop\n        /* \"#utility.yul\":2209:2549   */\n      swap3\n      swap2\n      pop\n      pop\n      jump\t// out\n        /* \"#utility.yul\":2555:3064   */\n    tag_6:\n        /* \"#utility.yul\":2624:2630   */\n      0x00\n        /* \"#utility.yul\":2673:2675   */\n      0x20\n        /* \"#utility.yul\":2661:2670   */\n      dup3\n        /* \"#utility.yul\":2652:2659   */\n      dup5\n        /* \"#utility.yul\":2648:2671   */\n      sub\n        /* \"#utility.yul\":2644:2676   */\n      slt\n        /* \"#utility.yul\":2641:2760   */\n      iszero\n      tag_117\n      jumpi\n        /* \"#utility.yul\":2679:2758   */\n      tag_118\n      tag_66\n      jump\t// in\n    tag_118:\n        /* \"#utility.yul\":2641:2760   */\n    tag_117:\n        /* \"#utility.yul\":2827:2828   */\n      0x00\n        /* \"#utility.yul\":2816:2825   */\n      dup3\n        /* \"#utility.yul\":2812:2829   */\n      add\n        /* \"#utility.yul\":2799:2830   */\n      calldataload\n        /* \"#utility.yul\":2857:2875   */\n      0xffffffffffffffff\n        /* \"#utility.yul\":2849:2855   */\n      dup2\n        /* \"#utility.yul\":2846:2876   */\n      gt\n        /* \"#utility.yul\":2843:2960   */\n      iszero\n      tag_119\n      jumpi\n        /* \"#utility.yul\":2879:2958   */\n      tag_120\n      tag_67\n      jump\t// in\n    tag_120:\n        /* \"#utility.yul\":2843:2960   */\n    tag_119:\n        /* \"#utility.yul\":2984:3047   */\n      tag_121\n        /* \"#utility.yul\":3039:3046   */\n      dup5\n        /* \"#utility.yul\":3030:3036   */\n      dup3\n        /* \"#utility.yul\":3019:3028   */\n      dup6\n        /* \"#utility.yul\":3015:3037   */\n      add\n        /* \"#utility.yul\":2984:3047   */\n      tag_77\n      jump\t// in\n    tag_121:\n        /* \"#utility.yul\":2974:3047   */\n      swap2\n      pop\n        /* \"#utility.yul\":2770:3057   */\n      pop\n        /* \"#utility.yul\":2555:3064   */\n      swap3\n      swap2\n      pop\n      pop\n      jump\t// out\n        /* \"#utility.yul\":3070:3147   */\n    tag_78:\n        /* \"#utility.yul\":3107:3114   */\n      0x00\n        /* \"#utility.yul\":3136:3141   */\n      dup2\n        /* \"#utility.yul\":3125:3141   */\n      swap1\n      pop\n        /* \"#utility.yul\":3070:3147   */\n      swap2\n      swap1\n      pop\n      jump\t// out\n        /* \"#utility.yul\":3153:3271   */\n    tag_79:\n        /* \"#utility.yul\":3240:3264   */\n      tag_124\n        /* \"#utility.yul\":3258:3263   */\n      dup2\n        /* \"#utility.yul\":3240:3264   */\n      tag_78\n      jump\t// in\n    tag_124:\n        /* \"#utility.yul\":3235:3238   */\n      dup3\n        /* \"#utility.yul\":3228:3265   */\n      mstore\n        /* \"#utility.yul\":3153:3271   */\n      pop\n      pop\n      jump\t// out\n        /* \"#utility.yul\":3277:3499   */\n    tag_9:\n        /* \"#utility.yul\":3370:3374   */\n      0x00\n        /* \"#utility.yul\":3408:3410   */\n      0x20\n        /* \"#utility.yul\":3397:3406   */\n      dup3\n        /* \"#utility.yul\":3393:3411   */\n      add\n        /* \"#utility.yul\":3385:3411   */\n      swap1\n      pop\n        /* \"#utility.yul\":3421:3492   */\n      tag_126\n        /* \"#utility.yul\":3489:3490   */\n      0x00\n        /* \"#utility.yul\":3478:3487   */\n      dup4\n        /* \"#utility.yul\":3474:3491   */\n      add\n        /* \"#utility.yul\":3465:3471   */\n      dup5\n        /* \"#utility.yul\":3421:3492   */\n      tag_79\n      jump\t// in\n    tag_126:\n        /* \"#utility.yul\":3277:3499   */\n      swap3\n      swap2\n      pop\n      pop\n      jump\t// out\n        /* \"#utility.yul\":3505:3685   */\n    tag_16:\n        /* \"#utility.yul\":3553:3630   */\n      0x4e487b7100000000000000000000000000000000000000000000000000000000\n        /* \"#utility.yul\":3550:3551   */\n      0x00\n        /* \"#utility.yul\":3543:3631   */\n      mstore\n        /* \"#utility.yul\":3650:3654   */\n      0x32\n        /* \"#utility.yul\":3647:3648   */\n      0x04\n        /* \"#utility.yul\":3640:3655   */\n      mstore\n        /* \"#utility.yul\":3674:3678   */\n      0x24\n        /* \"#utility.yul\":3671:3672   */\n      0x00\n        /* \"#utility.yul\":3664:3679   */\n      revert\n        /* \"#utility.yul\":3691:3860   */\n    tag_80:\n        /* \"#utility.yul\":3775:3786   */\n      0x00\n        /* \"#utility.yul\":3809:3815   */\n      dup3\n        /* \"#utility.yul\":3804:3807   */\n      dup3\n        /* \"#utility.yul\":3797:3816   */\n      mstore\n        /* \"#utility.yul\":3849:3853   */\n      0x20\n        /* \"#utility.yul\":3844:3847   */\n      dup3\n        /* \"#utility.yul\":3840:3854   */\n      add\n        /* \"#utility.yul\":3825:3854   */\n      swap1\n      pop\n        /* \"#utility.yul\":3691:3860   */\n      swap3\n      swap2\n      pop\n      pop\n      jump\t// out\n        /* \"#utility.yul\":3866:4047   */\n    tag_81:\n        /* \"#utility.yul\":4006:4039   */\n      0x496e76616c696420526f6d616e206e756d6572616c2063686172616374657200\n        /* \"#utility.yul\":4002:4003   */\n      0x00\n        /* \"#utility.yul\":3994:4000   */\n      dup3\n        /* \"#utility.yul\":3990:4004   */\n      add\n        /* \"#utility.yul\":3983:4040   */\n      mstore\n        /* \"#utility.yul\":3866:4047   */\n      pop\n      jump\t// out\n        /* \"#utility.yul\":4053:4419   */\n    tag_82:\n        /* \"#utility.yul\":4195:4198   */\n      0x00\n        /* \"#utility.yul\":4216:4283   */\n      tag_131\n        /* \"#utility.yul\":4280:4282   */\n      0x1f\n        /* \"#utility.yul\":4275:4278   */\n      dup4\n        /* \"#utility.yul\":4216:4283   */\n      tag_80\n      jump\t// in\n    tag_131:\n        /* \"#utility.yul\":4209:4283   */\n      swap2\n      pop\n        /* \"#utility.yul\":4292:4385   */\n      tag_132\n        /* \"#utility.yul\":4381:4384   */\n      dup3\n        /* \"#utility.yul\":4292:4385   */\n      tag_81\n      jump\t// in\n    tag_132:\n        /* \"#utility.yul\":4410:4412   */\n      0x20\n        /* \"#utility.yul\":4405:4408   */\n      dup3\n        /* \"#utility.yul\":4401:4413   */\n      add\n        /* \"#utility.yul\":4394:4413   */\n      swap1\n      pop\n        /* \"#utility.yul\":4053:4419   */\n      swap2\n      swap1\n      pop\n      jump\t// out\n        /* \"#utility.yul\":4425:4844   */\n    tag_19:\n        /* \"#utility.yul\":4591:4595   */\n      0x00\n        /* \"#utility.yul\":4629:4631   */\n      0x20\n        /* \"#utility.yul\":4618:4627   */\n      dup3\n        /* \"#utility.yul\":4614:4632   */\n      add\n        /* \"#utility.yul\":4606:4632   */\n      swap1\n      pop\n        /* \"#utility.yul\":4678:4687   */\n      dup2\n        /* \"#utility.yul\":4672:4676   */\n      dup2\n        /* \"#utility.yul\":4668:4688   */\n      sub\n        /* \"#utility.yul\":4664:4665   */\n      0x00\n        /* \"#utility.yul\":4653:4662   */\n      dup4\n        /* \"#utility.yul\":4649:4666   */\n      add\n        /* \"#utility.yul\":4642:4689   */\n      mstore\n        /* \"#utility.yul\":4706:4837   */\n      tag_134\n        /* \"#utility.yul\":4832:4836   */\n      dup2\n        /* \"#utility.yul\":4706:4837   */\n      tag_82\n      jump\t// in\n    tag_134:\n        /* \"#utility.yul\":4698:4837   */\n      swap1\n      pop\n        /* \"#utility.yul\":4425:4844   */\n      swap2\n      swap1\n      pop\n      jump\t// out\n        /* \"#utility.yul\":4850:5030   */\n    tag_83:\n        /* \"#utility.yul\":4898:4975   */\n      0x4e487b7100000000000000000000000000000000000000000000000000000000\n        /* \"#utility.yul\":4895:4896   */\n      0x00\n        /* \"#utility.yul\":4888:4976   */\n      mstore\n        /* \"#utility.yul\":4995:4999   */\n      0x11\n        /* \"#utility.yul\":4992:4993   */\n      0x04\n        /* \"#utility.yul\":4985:5000   */\n      mstore\n        /* \"#utility.yul\":5019:5023   */\n      0x24\n        /* \"#utility.yul\":5016:5017   */\n      0x00\n        /* \"#utility.yul\":5009:5024   */\n      revert\n        /* \"#utility.yul\":5036:5446   */\n    tag_22:\n        /* \"#utility.yul\":5076:5083   */\n      0x00\n        /* \"#utility.yul\":5099:5119   */\n      tag_137\n        /* \"#utility.yul\":5117:5118   */\n      dup3\n        /* \"#utility.yul\":5099:5119   */\n      tag_78\n      jump\t// in\n    tag_137:\n        /* \"#utility.yul\":5094:5119   */\n      swap2\n      pop\n        /* \"#utility.yul\":5133:5153   */\n      tag_138\n        /* \"#utility.yul\":5151:5152   */\n      dup4\n        /* \"#utility.yul\":5133:5153   */\n      tag_78\n      jump\t// in\n    tag_138:\n        /* \"#utility.yul\":5128:5153   */\n      swap3\n      pop\n        /* \"#utility.yul\":5188:5189   */\n      dup3\n        /* \"#utility.yul\":5185:5186   */\n      dup3\n        /* \"#utility.yul\":5181:5190   */\n      mul\n        /* \"#utility.yul\":5210:5240   */\n      tag_139\n        /* \"#utility.yul\":5228:5239   */\n      dup2\n        /* \"#utility.yul\":5210:5240   */\n      tag_78\n      jump\t// in\n    tag_139:\n        /* \"#utility.yul\":5199:5240   */\n      swap2\n      pop\n        /* \"#utility.yul\":5389:5390   */\n      dup3\n        /* \"#utility.yul\":5380:5387   */\n      dup3\n        /* \"#utility.yul\":5376:5391   */\n      div\n        /* \"#utility.yul\":5373:5374   */\n      dup5\n        /* \"#utility.yul\":5370:5392   */\n      eq\n        /* \"#utility.yul\":5350:5351   */\n      dup4\n        /* \"#utility.yul\":5343:5352   */\n      iszero\n        /* \"#utility.yul\":5323:5406   */\n      or\n        /* \"#utility.yul\":5300:5439   */\n      tag_140\n      jumpi\n        /* \"#utility.yul\":5419:5437   */\n      tag_141\n      tag_83\n      jump\t// in\n    tag_141:\n        /* \"#utility.yul\":5300:5439   */\n    tag_140:\n        /* \"#utility.yul\":5084:5446   */\n      pop\n        /* \"#utility.yul\":5036:5446   */\n      swap3\n      swap2\n      pop\n      pop\n      jump\t// out\n        /* \"#utility.yul\":5452:5646   */\n    tag_24:\n        /* \"#utility.yul\":5492:5496   */\n      0x00\n        /* \"#utility.yul\":5512:5532   */\n      tag_143\n        /* \"#utility.yul\":5530:5531   */\n      dup3\n        /* \"#utility.yul\":5512:5532   */\n      tag_78\n      jump\t// in\n    tag_143:\n        /* \"#utility.yul\":5507:5532   */\n      swap2\n      pop\n        /* \"#utility.yul\":5546:5566   */\n      tag_144\n        /* \"#utility.yul\":5564:5565   */\n      dup4\n        /* \"#utility.yul\":5546:5566   */\n      tag_78\n      jump\t// in\n    tag_144:\n        /* \"#utility.yul\":5541:5566   */\n      swap3\n      pop\n        /* \"#utility.yul\":5590:5591   */\n      dup3\n        /* \"#utility.yul\":5587:5588   */\n      dup3\n        /* \"#utility.yul\":5583:5592   */\n      sub\n        /* \"#utility.yul\":5575:5592   */\n      swap1\n      pop\n        /* \"#utility.yul\":5614:5615   */\n      dup2\n        /* \"#utility.yul\":5608:5612   */\n      dup2\n        /* \"#utility.yul\":5605:5616   */\n      gt\n        /* \"#utility.yul\":5602:5639   */\n      iszero\n      tag_145\n      jumpi\n        /* \"#utility.yul\":5619:5637   */\n      tag_146\n      tag_83\n      jump\t// in\n    tag_146:\n        /* \"#utility.yul\":5602:5639   */\n    tag_145:\n        /* \"#utility.yul\":5452:5646   */\n      swap3\n      swap2\n      pop\n      pop\n      jump\t// out\n        /* \"#utility.yul\":5652:5843   */\n    tag_26:\n        /* \"#utility.yul\":5692:5695   */\n      0x00\n        /* \"#utility.yul\":5711:5731   */\n      tag_148\n        /* \"#utility.yul\":5729:5730   */\n      dup3\n        /* \"#utility.yul\":5711:5731   */\n      tag_78\n      jump\t// in\n    tag_148:\n        /* \"#utility.yul\":5706:5731   */\n      swap2\n      pop\n        /* \"#utility.yul\":5745:5765   */\n      tag_149\n        /* \"#utility.yul\":5763:5764   */\n      dup4\n        /* \"#utility.yul\":5745:5765   */\n      tag_78\n      jump\t// in\n    tag_149:\n        /* \"#utility.yul\":5740:5765   */\n      swap3\n      pop\n        /* \"#utility.yul\":5788:5789   */\n      dup3\n        /* \"#utility.yul\":5785:5786   */\n      dup3\n        /* \"#utility.yul\":5781:5790   */\n      add\n        /* \"#utility.yul\":5774:5790   */\n      swap1\n      pop\n        /* \"#utility.yul\":5809:5812   */\n      dup1\n        /* \"#utility.yul\":5806:5807   */\n      dup3\n        /* \"#utility.yul\":5803:5813   */\n      gt\n        /* \"#utility.yul\":5800:5836   */\n      iszero\n      tag_150\n      jumpi\n        /* \"#utility.yul\":5816:5834   */\n      tag_151\n      tag_83\n      jump\t// in\n    tag_151:\n        /* \"#utility.yul\":5800:5836   */\n    tag_150:\n        /* \"#utility.yul\":5652:5843   */\n      swap3\n      swap2\n      pop\n      pop\n      jump\t// out\n        /* \"#utility.yul\":5849:6027   */\n    tag_84:\n        /* \"#utility.yul\":5989:6019   */\n      0x496e76616c696420526f6d616e206e756d6572616c20666f726d617400000000\n        /* \"#utility.yul\":5985:5986   */\n      0x00\n        /* \"#utility.yul\":5977:5983   */\n      dup3\n        /* \"#utility.yul\":5973:5987   */\n      add\n        /* \"#utility.yul\":5966:6020   */\n      mstore\n        /* \"#utility.yul\":5849:6027   */\n      pop\n      jump\t// out\n        /* \"#utility.yul\":6033:6399   */\n    tag_85:\n        /* \"#utility.yul\":6175:6178   */\n      0x00\n        /* \"#utility.yul\":6196:6263   */\n      tag_154\n        /* \"#utility.yul\":6260:6262   */\n      0x1c\n        /* \"#utility.yul\":6255:6258   */\n      dup4\n        /* \"#utility.yul\":6196:6263   */\n      tag_80\n      jump\t// in\n    tag_154:\n        /* \"#utility.yul\":6189:6263   */\n      swap2\n      pop\n        /* \"#utility.yul\":6272:6365   */\n      tag_155\n        /* \"#utility.yul\":6361:6364   */\n      dup3\n        /* \"#utility.yul\":6272:6365   */\n      tag_84\n      jump\t// in\n    tag_155:\n        /* \"#utility.yul\":6390:6392   */\n      0x20\n        /* \"#utility.yul\":6385:6388   */\n      dup3\n        /* \"#utility.yul\":6381:6393   */\n      add\n        /* \"#utility.yul\":6374:6393   */\n      swap1\n      pop\n        /* \"#utility.yul\":6033:6399   */\n      swap2\n      swap1\n      pop\n      jump\t// out\n        /* \"#utility.yul\":6405:6824   */\n    tag_33:\n        /* \"#utility.yul\":6571:6575   */\n      0x00\n        /* \"#utility.yul\":6609:6611   */\n      0x20\n        /* \"#utility.yul\":6598:6607   */\n      dup3\n        /* \"#utility.yul\":6594:6612   */\n      add\n        /* \"#utility.yul\":6586:6612   */\n      swap1\n      pop\n        /* \"#utility.yul\":6658:6667   */\n      dup2\n        /* \"#utility.yul\":6652:6656   */\n      dup2\n        /* \"#utility.yul\":6648:6668   */\n      sub\n        /* \"#utility.yul\":6644:6645   */\n      0x00\n        /* \"#utility.yul\":6633:6642   */\n      dup4\n        /* \"#utility.yul\":6629:6646   */\n      add\n        /* \"#utility.yul\":6622:6669   */\n      mstore\n        /* \"#utility.yul\":6686:6817   */\n      tag_157\n        /* \"#utility.yul\":6812:6816   */\n      dup2\n        /* \"#utility.yul\":6686:6817   */\n      tag_85\n      jump\t// in\n    tag_157:\n        /* \"#utility.yul\":6678:6817   */\n      swap1\n      pop\n        /* \"#utility.yul\":6405:6824   */\n      swap2\n      swap1\n      pop\n      jump\t// out\n\n    auxdata: 0xa26469706673582212207287d6640d7403006b3b9f2189b0338ec2a773921f789444e27b653dc825abe164736f6c634300081e0033\n}\n",
				"bytecode": {
					"linkReferences": {},
					"object": "608060405234801561000f575f5ffd5b5060015f5f7f49000000000000000000000000000000000000000000000000000000000000007effffffffffffffffffffffffffffffffffffffffffffffffffffffffffffff191681526020019081526020015f208190555060055f5f7f56000000000000000000000000000000000000000000000000000000000000007effffffffffffffffffffffffffffffffffffffffffffffffffffffffffffff191681526020019081526020015f2081905550600a5f5f7f58000000000000000000000000000000000000000000000000000000000000007effffffffffffffffffffffffffffffffffffffffffffffffffffffffffffff191681526020019081526020015f208190555060325f5f7f4c000000000000000000000000000000000000000000000000000000000000007effffffffffffffffffffffffffffffffffffffffffffffffffffffffffffff191681526020019081526020015f208190555060645f5f7f43000000000000000000000000000000000000000000000000000000000000007effffffffffffffffffffffffffffffffffffffffffffffffffffffffffffff191681526020019081526020015f20819055506101f45f5f7f44000000000000000000000000000000000000000000000000000000000000007effffffffffffffffffffffffffffffffffffffffffffffffffffffffffffff191681526020019081526020015f20819055506103e85f5f7f4d000000000000000000000000000000000000000000000000000000000000007effffffffffffffffffffffffffffffffffffffffffffffffffffffffffffff191681526020019081526020015f20819055506108f5806102875f395ff3fe608060405234801561000f575f5ffd5b5060043610610029575f3560e01c8063cb159dfe1461002d575b5f5ffd5b61004760048036038101906100429190610666565b61005d565b60405161005491906106c5565b60405180910390f35b5f5f8290505f5f90505f5f90505f5f90505b83518110156101da575f84828151811061008c5761008b6106de565b5b602001015160f81c60f81b90505f5f5f837effffffffffffffffffffffffffffffffffffffffffffffffffffffffffffff19167effffffffffffffffffffffffffffffffffffffffffffffffffffffffffffff191681526020019081526020015f20541161012f576040517f08c379a000000000000000000000000000000000000000000000000000000000815260040161012690610765565b60405180910390fd5b5f5f5f837effffffffffffffffffffffffffffffffffffffffffffffffffffffffffffff19167effffffffffffffffffffffffffffffffffffffffffffffffffffffffffffff191681526020019081526020015f20549050808410156101b95783600261019c91906107b0565b816101a791906107f1565b856101b29190610824565b94506101c8565b80856101c59190610824565b94505b8093505050808060010191505061006f565b506101e48561022e565b610223576040517f08c379a000000000000000000000000000000000000000000000000000000000815260040161021a906108a1565b60405180910390fd5b819350505050919050565b5f5f8290505f5f90505b81518110156102d0575f5f5f848481518110610257576102566106de565b5b602001015160f81c60f81b7effffffffffffffffffffffffffffffffffffffffffffffffffffffffffffff19167effffffffffffffffffffffffffffffffffffffffffffffffffffffffffffff191681526020019081526020015f2054036102c3575f92505050610514565b8080600101915050610238565b505f5f90505b600182516102e491906107f1565b81101561050d575f5f5f848481518110610301576103006106de565b5b602001015160f81c60f81b7effffffffffffffffffffffffffffffffffffffffffffffffffffffffffffff19167effffffffffffffffffffffffffffffffffffffffffffffffffffffffffffff191681526020019081526020015f205490505f5f5f856001866103719190610824565b81518110610382576103816106de565b5b602001015160f81c60f81b7effffffffffffffffffffffffffffffffffffffffffffffffffffffffffffff19167effffffffffffffffffffffffffffffffffffffffffffffffffffffffffffff191681526020019081526020015f20549050808210156104fe57600182148015610404575060058114806104035750600a81145b5b1580156104295750600a82148015610427575060328114806104265750606481145b5b155b801561044f575060648214801561044d57506101f481148061044c57506103e881145b5b155b15610460575f945050505050610514565b5f831180156104ec5750805f5f8660018761047b91906107f1565b8151811061048c5761048b6106de565b5b602001015160f81c60f81b7effffffffffffffffffffffffffffffffffffffffffffffffffffffffffffff19167effffffffffffffffffffffffffffffffffffffffffffffffffffffffffffff191681526020019081526020015f205411155b156104fd575f945050505050610514565b5b505080806001019150506102d6565b5060019150505b919050565b5f604051905090565b5f5ffd5b5f5ffd5b5f5ffd5b5f5ffd5b5f601f19601f8301169050919050565b7f4e487b71000000000000000000000000000000000000000000000000000000005f52604160045260245ffd5b61057882610532565b810181811067ffffffffffffffff8211171561059757610596610542565b5b80604052505050565b5f6105a9610519565b90506105b5828261056f565b919050565b5f67ffffffffffffffff8211156105d4576105d3610542565b5b6105dd82610532565b9050602081019050919050565b828183375f83830152505050565b5f61060a610605846105ba565b6105a0565b9050828152602081018484840111156106265761062561052e565b5b6106318482856105ea565b509392505050565b5f82601f83011261064d5761064c61052a565b5b813561065d8482602086016105f8565b91505092915050565b5f6020828403121561067b5761067a610522565b5b5f82013567ffffffffffffffff81111561069857610697610526565b5b6106a484828501610639565b91505092915050565b5f819050919050565b6106bf816106ad565b82525050565b5f6020820190506106d85f8301846106b6565b92915050565b7f4e487b71000000000000000000000000000000000000000000000000000000005f52603260045260245ffd5b5f82825260208201905092915050565b7f496e76616c696420526f6d616e206e756d6572616c20636861726163746572005f82015250565b5f61074f601f8361070b565b915061075a8261071b565b602082019050919050565b5f6020820190508181035f83015261077c81610743565b9050919050565b7f4e487b71000000000000000000000000000000000000000000000000000000005f52601160045260245ffd5b5f6107ba826106ad565b91506107c5836106ad565b92508282026107d3816106ad565b915082820484148315176107ea576107e9610783565b5b5092915050565b5f6107fb826106ad565b9150610806836106ad565b925082820390508181111561081e5761081d610783565b5b92915050565b5f61082e826106ad565b9150610839836106ad565b925082820190508082111561085157610850610783565b5b92915050565b7f496e76616c696420526f6d616e206e756d6572616c20666f726d6174000000005f82015250565b5f61088b601c8361070b565b915061089682610857565b602082019050919050565b5f6020820190508181035f8301526108b88161087f565b905091905056fea26469706673582212207287d6640d7403006b3b9f2189b0338ec2a773921f789444e27b653dc825abe164736f6c634300081e0033",
					"opcodes": "PUSH1 0x80 PUSH1 0x40 MSTORE CALLVALUE DUP1 ISZERO PUSH2 0xF JUMPI PUSH0 PUSH0 REVERT JUMPDEST POP PUSH1 0x1 PUSH0 PUSH0 PUSH32 0x4900000000000000000000000000000000000000000000000000000000000000 PUSH31 0xFFFFFFFFFFFFFFFFFFFFFFFFFFFFFFFFFFFFFFFFFFFFFFFFFFFFFFFFFFFFFF NOT AND DUP2 MSTORE PUSH1 0x20 ADD SWAP1 DUP2 MSTORE PUSH1 0x20 ADD PUSH0 KECCAK256 DUP2 SWAP1 SSTORE POP PUSH1 0x5 PUSH0 PUSH0 PUSH32 0x5600000000000000000000000000000000000000000000000000000000000000 PUSH31 0xFFFFFFFFFFFFFFFFFFFFFFFFFFFFFFFFFFFFFFFFFFFFFFFFFFFFFFFFFFFFFF NOT AND DUP2 MSTORE PUSH1 0x20 ADD SWAP1 DUP2 MSTORE PUSH1 0x20 ADD PUSH0 KECCAK256 DUP2 SWAP1 SSTORE POP PUSH1 0xA PUSH0 PUSH0 PUSH32 0x5800000000000000000000000000000000000000000000000000000000000000 PUSH31 0xFFFFFFFFFFFFFFFFFFFFFFFFFFFFFFFFFFFFFFFFFFFFFFFFFFFFFFFFFFFFFF NOT AND DUP2 MSTORE PUSH1 0x20 ADD SWAP1 DUP2 MSTORE PUSH1 0x20 ADD PUSH0 KECCAK256 DUP2 SWAP1 SSTORE POP PUSH1 0x32 PUSH0 PUSH0 PUSH32 0x4C00000000000000000000000000000000000000000000000000000000000000 PUSH31 0xFFFFFFFFFFFFFFFFFFFFFFFFFFFFFFFFFFFFFFFFFFFFFFFFFFFFFFFFFFFFFF NOT AND DUP2 MSTORE PUSH1 0x20 ADD SWAP1 DUP2 MSTORE PUSH1 0x20 ADD PUSH0 KECCAK256 DUP2 SWAP1 SSTORE POP PUSH1 0x64 PUSH0 PUSH0 PUSH32 0x4300000000000000000000000000000000000000000000000000000000000000 PUSH31 0xFFFFFFFFFFFFFFFFFFFFFFFFFFFFFFFFFFFFFFFFFFFFFFFFFFFFFFFFFFFFFF NOT AND DUP2 MSTORE PUSH1 0x20 ADD SWAP1 DUP2 MSTORE PUSH1 0x20 ADD PUSH0 KECCAK256 DUP2 SWAP1 SSTORE POP PUSH2 0x1F4 PUSH0 PUSH0 PUSH32 0x4400000000000000000000000000000000000000000000000000000000000000 PUSH31 0xFFFFFFFFFFFFFFFFFFFFFFFFFFFFFFFFFFFFFFFFFFFFFFFFFFFFFFFFFFFFFF NOT AND DUP2 MSTORE PUSH1 0x20 ADD SWAP1 DUP2 MSTORE PUSH1 0x20 ADD PUSH0 KECCAK256 DUP2 SWAP1 SSTORE POP PUSH2 0x3E8 PUSH0 PUSH0 PUSH32 0x4D00000000000000000000000000000000000000000000000000000000000000 PUSH31 0xFFFFFFFFFFFFFFFFFFFFFFFFFFFFFFFFFFFFFFFFFFFFFFFFFFFFFFFFFFFFFF NOT AND DUP2 MSTORE PUSH1 0x20 ADD SWAP1 DUP2 MSTORE PUSH1 0x20 ADD PUSH0 KECCAK256 DUP2 SWAP1 SSTORE POP PUSH2 0x8F5 DUP1 PUSH2 0x287 PUSH0 CODECOPY PUSH0 RETURN INVALID PUSH1 0x80 PUSH1 0x40 MSTORE CALLVALUE DUP1 ISZERO PUSH2 0xF JUMPI PUSH0 PUSH0 REVERT JUMPDEST POP PUSH1 0x4 CALLDATASIZE LT PUSH2 0x29 JUMPI PUSH0 CALLDATALOAD PUSH1 0xE0 SHR DUP1 PUSH4 0xCB159DFE EQ PUSH2 0x2D JUMPI JUMPDEST PUSH0 PUSH0 REVERT JUMPDEST PUSH2 0x47 PUSH1 0x4 DUP1 CALLDATASIZE SUB DUP2 ADD SWAP1 PUSH2 0x42 SWAP2 SWAP1 PUSH2 0x666 JUMP JUMPDEST PUSH2 0x5D JUMP JUMPDEST PUSH1 0x40 MLOAD PUSH2 0x54 SWAP2 SWAP1 PUSH2 0x6C5 JUMP JUMPDEST PUSH1 0x40 MLOAD DUP1 SWAP2 SUB SWAP1 RETURN JUMPDEST PUSH0 PUSH0 DUP3 SWAP1 POP PUSH0 PUSH0 SWAP1 POP PUSH0 PUSH0 SWAP1 POP PUSH0 PUSH0 SWAP1 POP JUMPDEST DUP4 MLOAD DUP2 LT ISZERO PUSH2 0x1DA JUMPI PUSH0 DUP5 DUP3 DUP2 MLOAD DUP2 LT PUSH2 0x8C JUMPI PUSH2 0x8B PUSH2 0x6DE JUMP JUMPDEST JUMPDEST PUSH1 0x20 ADD ADD MLOAD PUSH1 0xF8 SHR PUSH1 0xF8 SHL SWAP1 POP PUSH0 PUSH0 PUSH0 DUP4 PUSH31 0xFFFFFFFFFFFFFFFFFFFFFFFFFFFFFFFFFFFFFFFFFFFFFFFFFFFFFFFFFFFFFF NOT AND PUSH31 0xFFFFFFFFFFFFFFFFFFFFFFFFFFFFFFFFFFFFFFFFFFFFFFFFFFFFFFFFFFFFFF NOT AND DUP2 MSTORE PUSH1 0x20 ADD SWAP1 DUP2 MSTORE PUSH1 0x20 ADD PUSH0 KECCAK256 SLOAD GT PUSH2 0x12F JUMPI PUSH1 0x40 MLOAD PUSH32 0x8C379A000000000000000000000000000000000000000000000000000000000 DUP2 MSTORE PUSH1 0x4 ADD PUSH2 0x126 SWAP1 PUSH2 0x765 JUMP JUMPDEST PUSH1 0x40 MLOAD DUP1 SWAP2 SUB SWAP1 REVERT JUMPDEST PUSH0 PUSH0 PUSH0 DUP4 PUSH31 0xFFFFFFFFFFFFFFFFFFFFFFFFFFFFFFFFFFFFFFFFFFFFFFFFFFFFFFFFFFFFFF NOT AND PUSH31 0xFFFFFFFFFFFFFFFFFFFFFFFFFFFFFFFFFFFFFFFFFFFFFFFFFFFFFFFFFFFFFF NOT AND DUP2 MSTORE PUSH1 0x20 ADD SWAP1 DUP2 MSTORE PUSH1 0x20 ADD PUSH0 KECCAK256 SLOAD SWAP1 POP DUP1 DUP5 LT ISZERO PUSH2 0x1B9 JUMPI DUP4 PUSH1 0x2 PUSH2 0x19C SWAP2 SWAP1 PUSH2 0x7B0 JUMP JUMPDEST DUP2 PUSH2 0x1A7 SWAP2 SWAP1 PUSH2 0x7F1 JUMP JUMPDEST DUP6 PUSH2 0x1B2 SWAP2 SWAP1 PUSH2 0x824 JUMP JUMPDEST SWAP5 POP PUSH2 0x1C8 JUMP JUMPDEST DUP1 DUP6 PUSH2 0x1C5 SWAP2 SWAP1 PUSH2 0x824 JUMP JUMPDEST SWAP5 POP JUMPDEST DUP1 SWAP4 POP POP POP DUP1 DUP1 PUSH1 0x1 ADD SWAP2 POP POP PUSH2 0x6F JUMP JUMPDEST POP PUSH2 0x1E4 DUP6 PUSH2 0x22E JUMP JUMPDEST PUSH2 0x223 JUMPI PUSH1 0x40 MLOAD PUSH32 0x8C379A000000000000000000000000000000000000000000000000000000000 DUP2 MSTORE PUSH1 0x4 ADD PUSH2 0x21A SWAP1 PUSH2 0x8A1 JUMP JUMPDEST PUSH1 0x40 MLOAD DUP1 SWAP2 SUB SWAP1 REVERT JUMPDEST DUP2 SWAP4 POP POP POP POP SWAP2 SWAP1 POP JUMP JUMPDEST PUSH0 PUSH0 DUP3 SWAP1 POP PUSH0 PUSH0 SWAP1 POP JUMPDEST DUP2 MLOAD DUP2 LT ISZERO PUSH2 0x2D0 JUMPI PUSH0 PUSH0 PUSH0 DUP5 DUP5 DUP2 MLOAD DUP2 LT PUSH2 0x257 JUMPI PUSH2 0x256 PUSH2 0x6DE JUMP JUMPDEST JUMPDEST PUSH1 0x20 ADD ADD MLOAD PUSH1 0xF8 SHR PUSH1 0xF8 SHL PUSH31 0xFFFFFFFFFFFFFFFFFFFFFFFFFFFFFFFFFFFFFFFFFFFFFFFFFFFFFFFFFFFFFF NOT AND PUSH31 0xFFFFFFFFFFFFFFFFFFFFFFFFFFFFFFFFFFFFFFFFFFFFFFFFFFFFFFFFFFFFFF NOT AND DUP2 MSTORE PUSH1 0x20 ADD SWAP1 DUP2 MSTORE PUSH1 0x20 ADD PUSH0 KECCAK256 SLOAD SUB PUSH2 0x2C3 JUMPI PUSH0 SWAP3 POP POP POP PUSH2 0x514 JUMP JUMPDEST DUP1 DUP1 PUSH1 0x1 ADD SWAP2 POP POP PUSH2 0x238 JUMP JUMPDEST POP PUSH0 PUSH0 SWAP1 POP JUMPDEST PUSH1 0x1 DUP3 MLOAD PUSH2 0x2E4 SWAP2 SWAP1 PUSH2 0x7F1 JUMP JUMPDEST DUP2 LT ISZERO PUSH2 0x50D JUMPI PUSH0 PUSH0 PUSH0 DUP5 DUP5 DUP2 MLOAD DUP2 LT PUSH2 0x301 JUMPI PUSH2 0x300 PUSH2 0x6DE JUMP JUMPDEST JUMPDEST PUSH1 0x20 ADD ADD MLOAD PUSH1 0xF8 SHR PUSH1 0xF8 SHL PUSH31 0xFFFFFFFFFFFFFFFFFFFFFFFFFFFFFFFFFFFFFFFFFFFFFFFFFFFFFFFFFFFFFF NOT AND PUSH31 0xFFFFFFFFFFFFFFFFFFFFFFFFFFFFFFFFFFFFFFFFFFFFFFFFFFFFFFFFFFFFFF NOT AND DUP2 MSTORE PUSH1 0x20 ADD SWAP1 DUP2 MSTORE PUSH1 0x20 ADD PUSH0 KECCAK256 SLOAD SWAP1 POP PUSH0 PUSH0 PUSH0 DUP6 PUSH1 0x1 DUP7 PUSH2 0x371 SWAP2 SWAP1 PUSH2 0x824 JUMP JUMPDEST DUP2 MLOAD DUP2 LT PUSH2 0x382 JUMPI PUSH2 0x381 PUSH2 0x6DE JUMP JUMPDEST JUMPDEST PUSH1 0x20 ADD ADD MLOAD PUSH1 0xF8 SHR PUSH1 0xF8 SHL PUSH31 0xFFFFFFFFFFFFFFFFFFFFFFFFFFFFFFFFFFFFFFFFFFFFFFFFFFFFFFFFFFFFFF NOT AND PUSH31 0xFFFFFFFFFFFFFFFFFFFFFFFFFFFFFFFFFFFFFFFFFFFFFFFFFFFFFFFFFFFFFF NOT AND DUP2 MSTORE PUSH1 0x20 ADD SWAP1 DUP2 MSTORE PUSH1 0x20 ADD PUSH0 KECCAK256 SLOAD SWAP1 POP DUP1 DUP3 LT ISZERO PUSH2 0x4FE JUMPI PUSH1 0x1 DUP3 EQ DUP1 ISZERO PUSH2 0x404 JUMPI POP PUSH1 0x5 DUP2 EQ DUP1 PUSH2 0x403 JUMPI POP PUSH1 0xA DUP2 EQ JUMPDEST JUMPDEST ISZERO DUP1 ISZERO PUSH2 0x429 JUMPI POP PUSH1 0xA DUP3 EQ DUP1 ISZERO PUSH2 0x427 JUMPI POP PUSH1 0x32 DUP2 EQ DUP1 PUSH2 0x426 JUMPI POP PUSH1 0x64 DUP2 EQ JUMPDEST JUMPDEST ISZERO JUMPDEST DUP1 ISZERO PUSH2 0x44F JUMPI POP PUSH1 0x64 DUP3 EQ DUP1 ISZERO PUSH2 0x44D JUMPI POP PUSH2 0x1F4 DUP2 EQ DUP1 PUSH2 0x44C JUMPI POP PUSH2 0x3E8 DUP2 EQ JUMPDEST JUMPDEST ISZERO JUMPDEST ISZERO PUSH2 0x460 JUMPI PUSH0 SWAP5 POP POP POP POP POP PUSH2 0x514 JUMP JUMPDEST PUSH0 DUP4 GT DUP1 ISZERO PUSH2 0x4EC JUMPI POP DUP1 PUSH0 PUSH0 DUP7 PUSH1 0x1 DUP8 PUSH2 0x47B SWAP2 SWAP1 PUSH2 0x7F1 JUMP JUMPDEST DUP2 MLOAD DUP2 LT PUSH2 0x48C JUMPI PUSH2 0x48B PUSH2 0x6DE JUMP JUMPDEST JUMPDEST PUSH1 0x20 ADD ADD MLOAD PUSH1 0xF8 SHR PUSH1 0xF8 SHL PUSH31 0xFFFFFFFFFFFFFFFFFFFFFFFFFFFFFFFFFFFFFFFFFFFFFFFFFFFFFFFFFFFFFF NOT AND PUSH31 0xFFFFFFFFFFFFFFFFFFFFFFFFFFFFFFFFFFFFFFFFFFFFFFFFFFFFFFFFFFFFFF NOT AND DUP2 MSTORE PUSH1 0x20 ADD SWAP1 DUP2 MSTORE PUSH1 0x20 ADD PUSH0 KECCAK256 SLOAD GT ISZERO JUMPDEST ISZERO PUSH2 0x4FD JUMPI PUSH0 SWAP5 POP POP POP POP POP PUSH2 0x514 JUMP JUMPDEST JUMPDEST POP POP DUP1 DUP1 PUSH1 0x1 ADD SWAP2 POP POP PUSH2 0x2D6 JUMP JUMPDEST POP PUSH1 0x1 SWAP2 POP POP JUMPDEST SWAP2 SWAP1 POP JUMP JUMPDEST PUSH0 PUSH1 0x40 MLOAD SWAP1 POP SWAP1 JUMP JUMPDEST PUSH0 PUSH0 REVERT JUMPDEST PUSH0 PUSH0 REVERT JUMPDEST PUSH0 PUSH0 REVERT JUMPDEST PUSH0 PUSH0 REVERT JUMPDEST PUSH0 PUSH1 0x1F NOT PUSH1 0x1F DUP4 ADD AND SWAP1 POP SWAP2 SWAP1 POP JUMP JUMPDEST PUSH32 0x4E487B7100000000000000000000000000000000000000000000000000000000 PUSH0 MSTORE PUSH1 0x41 PUSH1 0x4 MSTORE PUSH1 0x24 PUSH0 REVERT JUMPDEST PUSH2 0x578 DUP3 PUSH2 0x532 JUMP JUMPDEST DUP2 ADD DUP2 DUP2 LT PUSH8 0xFFFFFFFFFFFFFFFF DUP3 GT OR ISZERO PUSH2 0x597 JUMPI PUSH2 0x596 PUSH2 0x542 JUMP JUMPDEST JUMPDEST DUP1 PUSH1 0x40 MSTORE POP POP POP JUMP JUMPDEST PUSH0 PUSH2 0x5A9 PUSH2 0x519 JUMP JUMPDEST SWAP1 POP PUSH2 0x5B5 DUP3 DUP3 PUSH2 0x56F JUMP JUMPDEST SWAP2 SWAP1 POP JUMP JUMPDEST PUSH0 PUSH8 0xFFFFFFFFFFFFFFFF DUP3 GT ISZERO PUSH2 0x5D4 JUMPI PUSH2 0x5D3 PUSH2 0x542 JUMP JUMPDEST JUMPDEST PUSH2 0x5DD DUP3 PUSH2 0x532 JUMP JUMPDEST SWAP1 POP PUSH1 0x20 DUP2 ADD SWAP1 POP SWAP2 SWAP1 POP JUMP JUMPDEST DUP3 DUP2 DUP4 CALLDATACOPY PUSH0 DUP4 DUP4 ADD MSTORE POP POP POP JUMP JUMPDEST PUSH0 PUSH2 0x60A PUSH2 0x605 DUP5 PUSH2 0x5BA JUMP JUMPDEST PUSH2 0x5A0 JUMP JUMPDEST SWAP1 POP DUP3 DUP2 MSTORE PUSH1 0x20 DUP2 ADD DUP5 DUP5 DUP5 ADD GT ISZERO PUSH2 0x626 JUMPI PUSH2 0x625 PUSH2 0x52E JUMP JUMPDEST JUMPDEST PUSH2 0x631 DUP5 DUP3 DUP6 PUSH2 0x5EA JUMP JUMPDEST POP SWAP4 SWAP3 POP POP POP JUMP JUMPDEST PUSH0 DUP3 PUSH1 0x1F DUP4 ADD SLT PUSH2 0x64D JUMPI PUSH2 0x64C PUSH2 0x52A JUMP JUMPDEST JUMPDEST DUP2 CALLDATALOAD PUSH2 0x65D DUP5 DUP3 PUSH1 0x20 DUP7 ADD PUSH2 0x5F8 JUMP JUMPDEST SWAP2 POP POP SWAP3 SWAP2 POP POP JUMP JUMPDEST PUSH0 PUSH1 0x20 DUP3 DUP5 SUB SLT ISZERO PUSH2 0x67B JUMPI PUSH2 0x67A PUSH2 0x522 JUMP JUMPDEST JUMPDEST PUSH0 DUP3 ADD CALLDATALOAD PUSH8 0xFFFFFFFFFFFFFFFF DUP2 GT ISZERO PUSH2 0x698 JUMPI PUSH2 0x697 PUSH2 0x526 JUMP JUMPDEST JUMPDEST PUSH2 0x6A4 DUP5 DUP3 DUP6 ADD PUSH2 0x639 JUMP JUMPDEST SWAP2 POP POP SWAP3 SWAP2 POP POP JUMP JUMPDEST PUSH0 DUP2 SWAP1 POP SWAP2 SWAP1 POP JUMP JUMPDEST PUSH2 0x6BF DUP2 PUSH2 0x6AD JUMP JUMPDEST DUP3 MSTORE POP POP JUMP JUMPDEST PUSH0 PUSH1 0x20 DUP3 ADD SWAP1 POP PUSH2 0x6D8 PUSH0 DUP4 ADD DUP5 PUSH2 0x6B6 JUMP JUMPDEST SWAP3 SWAP2 POP POP JUMP JUMPDEST PUSH32 0x4E487B7100000000000000000000000000000000000000000000000000000000 PUSH0 MSTORE PUSH1 0x32 PUSH1 0x4 MSTORE PUSH1 0x24 PUSH0 REVERT JUMPDEST PUSH0 DUP3 DUP3 MSTORE PUSH1 0x20 DUP3 ADD SWAP1 POP SWAP3 SWAP2 POP POP JUMP JUMPDEST PUSH32 0x496E76616C696420526F6D616E206E756D6572616C2063686172616374657200 PUSH0 DUP3 ADD MSTORE POP JUMP JUMPDEST PUSH0 PUSH2 0x74F PUSH1 0x1F DUP4 PUSH2 0x70B JUMP JUMPDEST SWAP2 POP PUSH2 0x75A DUP3 PUSH2 0x71B JUMP JUMPDEST PUSH1 0x20 DUP3 ADD SWAP1 POP SWAP2 SWAP1 POP JUMP JUMPDEST PUSH0 PUSH1 0x20 DUP3 ADD SWAP1 POP DUP2 DUP2 SUB PUSH0 DUP4 ADD MSTORE PUSH2 0x77C DUP2 PUSH2 0x743 JUMP JUMPDEST SWAP1 POP SWAP2 SWAP1 POP JUMP JUMPDEST PUSH32 0x4E487B7100000000000000000000000000000000000000000000000000000000 PUSH0 MSTORE PUSH1 0x11 PUSH1 0x4 MSTORE PUSH1 0x24 PUSH0 REVERT JUMPDEST PUSH0 PUSH2 0x7BA DUP3 PUSH2 0x6AD JUMP JUMPDEST SWAP2 POP PUSH2 0x7C5 DUP4 PUSH2 0x6AD JUMP JUMPDEST SWAP3 POP DUP3 DUP3 MUL PUSH2 0x7D3 DUP2 PUSH2 0x6AD JUMP JUMPDEST SWAP2 POP DUP3 DUP3 DIV DUP5 EQ DUP4 ISZERO OR PUSH2 0x7EA JUMPI PUSH2 0x7E9 PUSH2 0x783 JUMP JUMPDEST JUMPDEST POP SWAP3 SWAP2 POP POP JUMP JUMPDEST PUSH0 PUSH2 0x7FB DUP3 PUSH2 0x6AD JUMP JUMPDEST SWAP2 POP PUSH2 0x806 DUP4 PUSH2 0x6AD JUMP JUMPDEST SWAP3 POP DUP3 DUP3 SUB SWAP1 POP DUP2 DUP2 GT ISZERO PUSH2 0x81E JUMPI PUSH2 0x81D PUSH2 0x783 JUMP JUMPDEST JUMPDEST SWAP3 SWAP2 POP POP JUMP JUMPDEST PUSH0 PUSH2 0x82E DUP3 PUSH2 0x6AD JUMP JUMPDEST SWAP2 POP PUSH2 0x839 DUP4 PUSH2 0x6AD JUMP JUMPDEST SWAP3 POP DUP3 DUP3 ADD SWAP1 POP DUP1 DUP3 GT ISZERO PUSH2 0x851 JUMPI PUSH2 0x850 PUSH2 0x783 JUMP JUMPDEST JUMPDEST SWAP3 SWAP2 POP POP JUMP JUMPDEST PUSH32 0x496E76616C696420526F6D616E206E756D6572616C20666F726D617400000000 PUSH0 DUP3 ADD MSTORE POP JUMP JUMPDEST PUSH0 PUSH2 0x88B PUSH1 0x1C DUP4 PUSH2 0x70B JUMP JUMPDEST SWAP2 POP PUSH2 0x896 DUP3 PUSH2 0x857 JUMP JUMPDEST PUSH1 0x20 DUP3 ADD SWAP1 POP SWAP2 SWAP1 POP JUMP JUMPDEST PUSH0 PUSH1 0x20 DUP3 ADD SWAP1 POP DUP2 DUP2 SUB PUSH0 DUP4 ADD MSTORE PUSH2 0x8B8 DUP2 PUSH2 0x87F JUMP JUMPDEST SWAP1 POP SWAP2 SWAP1 POP JUMP INVALID LOG2 PUSH5 0x6970667358 0x22 SLT KECCAK256 PUSH19 0x87D6640D7403006B3B9F2189B0338EC2A77392 0x1F PUSH25 0x9444E27B653DC825ABE164736F6C634300081E003300000000 "
				},
				"gasEstimates": {
					"creation": {
						"codeDepositCost": "458600",
						"executionCost": "155877",
						"totalCost": "614477"
					},
					"external": {
						"romanToInt(string)": "infinite"
					},
					"internal": {
						"validateRoman(string memory)": "infinite"
					}
				},
				"methodIdentifiers": {
					"romanToInt(string)": "cb159dfe"
				}
			},
			"storageLayout": {
				"storage": [
					{
						"astId": 207,
						"contract": "solTask1/codeRoman.sol:RomanToInteger",
						"label": "romanValues",
						"offset": 0,
						"slot": "0",
						"type": "t_mapping(t_bytes1,t_uint256)"
					}
				],
				"types": {
					"t_bytes1": {
						"encoding": "inplace",
						"label": "bytes1",
						"numberOfBytes": "1"
					},
					"t_mapping(t_bytes1,t_uint256)": {
						"encoding": "mapping",
						"key": "t_bytes1",
						"label": "mapping(bytes1 => uint256)",
						"numberOfBytes": "32",
						"value": "t_uint256"
					},
					"t_uint256": {
						"encoding": "inplace",
						"label": "uint256",
						"numberOfBytes": "32"
					}
				}
			},
			"userdoc": {
				"kind": "user",
				"methods": {},
				"version": 1
			}
		}
	}
}