{
	"data": {
		"bytecode": {
			"linkReferences": {},
			"object": "6080604052348015600e575f5ffd5b506106f18061001c5f395ff3fe608060405234801561000f575f5ffd5b5060043610610029575f3560e01c8063a20f0a791461002d575b5f5ffd5b610047600480360381019061004291906103e9565b61005d565b604051610054919061053c565b60405180910390f35b6060818461006b9190610589565b855110156100ae576040517f08c379a00000000000000000000000000000000000000000000000000000000081526004016100a590610616565b60405180910390fd5b5f6001856100bc9190610634565b90505f6001846100cc9190610634565b90505f600185886100dd9190610589565b6100e79190610634565b90505b5f83101580156100fa57505f8210155b156101e45785828151811061011257610111610667565b5b602002602001015188848151811061012d5761012c610667565b5b602002602001015111156101885787838151811061014e5761014d610667565b5b602002602001015188828151811061016957610168610667565b5b602002602001018181525050828061018090610694565b9350506101d1565b85828151811061019b5761019a610667565b5b60200260200101518882815181106101b6576101b5610667565b5b60200260200101818152505081806101cd90610694565b9250505b80806101dc90610694565b9150506100ea565b5b5f8210610247578582815181106101ff576101fe610667565b5b602002602001015188828151811061021a57610219610667565b5b602002602001018181525050818061023190610694565b925050808061023f90610694565b9150506101e5565b879350505050949350505050565b5f604051905090565b5f5ffd5b5f5ffd5b5f5ffd5b5f601f19601f8301169050919050565b7f4e487b71000000000000000000000000000000000000000000000000000000005f52604160045260245ffd5b6102b08261026a565b810181811067ffffffffffffffff821117156102cf576102ce61027a565b5b80604052505050565b5f6102e1610255565b90506102ed82826102a7565b919050565b5f67ffffffffffffffff82111561030c5761030b61027a565b5b602082029050602081019050919050565b5f5ffd5b5f819050919050565b61033381610321565b811461033d575f5ffd5b50565b5f8135905061034e8161032a565b92915050565b5f610366610361846102f2565b6102d8565b905080838252602082019050602084028301858111156103895761038861031d565b5b835b818110156103b2578061039e8882610340565b84526020840193505060208101905061038b565b5050509392505050565b5f82601f8301126103d0576103cf610266565b5b81356103e0848260208601610354565b91505092915050565b5f5f5f5f608085870312156104015761040061025e565b5b5f85013567ffffffffffffffff81111561041e5761041d610262565b5b61042a878288016103bc565b945050602061043b87828801610340565b935050604085013567ffffffffffffffff81111561045c5761045b610262565b5b610468878288016103bc565b925050606061047987828801610340565b91505092959194509250565b5f81519050919050565b5f82825260208201905092915050565b5f819050602082019050919050565b6104b781610321565b82525050565b5f6104c883836104ae565b60208301905092915050565b5f602082019050919050565b5f6104ea82610485565b6104f4818561048f565b93506104ff8361049f565b805f5b8381101561052f57815161051688826104bd565b9750610521836104d4565b925050600181019050610502565b5085935050505092915050565b5f6020820190508181035f83015261055481846104e0565b905092915050565b7f4e487b71000000000000000000000000000000000000000000000000000000005f52601160045260245ffd5b5f61059382610321565b915061059e83610321565b92508282019050808211156105b6576105b561055c565b5b92915050565b5f82825260208201905092915050565b7f41727261793120746f6f20736d616c6c20666f72206d657267650000000000005f82015250565b5f610600601a836105bc565b915061060b826105cc565b602082019050919050565b5f6020820190508181035f83015261062d816105f4565b9050919050565b5f61063e82610321565b915061064983610321565b92508282039050818111156106615761066061055c565b5b92915050565b7f4e487b71000000000000000000000000000000000000000000000000000000005f52603260045260245ffd5b5f61069e82610321565b91505f82036106b0576106af61055c565b5b60018203905091905056fea26469706673582212205945014b38f59f56840f9c03852005b26aa226f872e00652a235613a4b82589764736f6c634300081e0033",
			"opcodes": "PUSH1 0x80 PUSH1 0x40 MSTORE CALLVALUE DUP1 ISZERO PUSH1 0xE JUMPI PUSH0 PUSH0 REVERT JUMPDEST POP PUSH2 0x6F1 DUP1 PUSH2 0x1C PUSH0 CODECOPY PUSH0 RETURN INVALID PUSH1 0x80 PUSH1 0x40 MSTORE CALLVALUE DUP1 ISZERO PUSH2 0xF JUMPI PUSH0 PUSH0 REVERT JUMPDEST POP PUSH1 0x4 CALLDATASIZE LT PUSH2 0x29 JUMPI PUSH0 CALLDATALOAD PUSH1 0xE0 SHR DUP1 PUSH4 0xA20F0A79 EQ PUSH2 0x2D JUMPI JUMPDEST PUSH0 PUSH0 REVERT JUMPDEST PUSH2 0x47 PUSH1 0x4 DUP1 CALLDATASIZE SUB DUP2 ADD SWAP1 PUSH2 0x42 SWAP2 SWAP1 PUSH2 0x3E9 JUMP JUMPDEST PUSH2 0x5D JUMP JUMPDEST PUSH1 0x40 MLOAD PUSH2 0x54 SWAP2 SWAP1 PUSH2 0x53C JUMP JUMPDEST PUSH1 0x40 MLOAD DUP1 SWAP2 SUB SWAP1 RETURN JUMPDEST PUSH1 0x60 DUP2 DUP5 PUSH2 0x6B SWAP2 SWAP1 PUSH2 0x589 JUMP JUMPDEST DUP6 MLOAD LT ISZERO PUSH2 0xAE JUMPI PUSH1 0x40 MLOAD PUSH32 0x8C379A000000000000000000000000000000000000000000000000000000000 DUP2 MSTORE PUSH1 0x4 ADD PUSH2 0xA5 SWAP1 PUSH2 0x616 JUMP JUMPDEST PUSH1 0x40 MLOAD DUP1 SWAP2 SUB SWAP1 REVERT JUMPDEST PUSH0 PUSH1 0x1 DUP6 PUSH2 0xBC SWAP2 SWAP1 PUSH2 0x634 JUMP JUMPDEST SWAP1 POP PUSH0 PUSH1 0x1 DUP5 PUSH2 0xCC SWAP2 SWAP1 PUSH2 0x634 JUMP JUMPDEST SWAP1 POP PUSH0 PUSH1 0x1 DUP6 DUP9 PUSH2 0xDD SWAP2 SWAP1 PUSH2 0x589 JUMP JUMPDEST PUSH2 0xE7 SWAP2 SWAP1 PUSH2 0x634 JUMP JUMPDEST SWAP1 POP JUMPDEST PUSH0 DUP4 LT ISZERO DUP1 ISZERO PUSH2 0xFA JUMPI POP PUSH0 DUP3 LT ISZERO JUMPDEST ISZERO PUSH2 0x1E4 JUMPI DUP6 DUP3 DUP2 MLOAD DUP2 LT PUSH2 0x112 JUMPI PUSH2 0x111 PUSH2 0x667 JUMP JUMPDEST JUMPDEST PUSH1 0x20 MUL PUSH1 0x20 ADD ADD MLOAD DUP9 DUP5 DUP2 MLOAD DUP2 LT PUSH2 0x12D JUMPI PUSH2 0x12C PUSH2 0x667 JUMP JUMPDEST JUMPDEST PUSH1 0x20 MUL PUSH1 0x20 ADD ADD MLOAD GT ISZERO PUSH2 0x188 JUMPI DUP8 DUP4 DUP2 MLOAD DUP2 LT PUSH2 0x14E JUMPI PUSH2 0x14D PUSH2 0x667 JUMP JUMPDEST JUMPDEST PUSH1 0x20 MUL PUSH1 0x20 ADD ADD MLOAD DUP9 DUP3 DUP2 MLOAD DUP2 LT PUSH2 0x169 JUMPI PUSH2 0x168 PUSH2 0x667 JUMP JUMPDEST JUMPDEST PUSH1 0x20 MUL PUSH1 0x20 ADD ADD DUP2 DUP2 MSTORE POP POP DUP3 DUP1 PUSH2 0x180 SWAP1 PUSH2 0x694 JUMP JUMPDEST SWAP4 POP POP PUSH2 0x1D1 JUMP JUMPDEST DUP6 DUP3 DUP2 MLOAD DUP2 LT PUSH2 0x19B JUMPI PUSH2 0x19A PUSH2 0x667 JUMP JUMPDEST JUMPDEST PUSH1 0x20 MUL PUSH1 0x20 ADD ADD MLOAD DUP9 DUP3 DUP2 MLOAD DUP2 LT PUSH2 0x1B6 JUMPI PUSH2 0x1B5 PUSH2 0x667 JUMP JUMPDEST JUMPDEST PUSH1 0x20 MUL PUSH1 0x20 ADD ADD DUP2 DUP2 MSTORE POP POP DUP2 DUP1 PUSH2 0x1CD SWAP1 PUSH2 0x694 JUMP JUMPDEST SWAP3 POP POP JUMPDEST DUP1 DUP1 PUSH2 0x1DC SWAP1 PUSH2 0x694 JUMP JUMPDEST SWAP2 POP POP PUSH2 0xEA JUMP JUMPDEST JUMPDEST PUSH0 DUP3 LT PUSH2 0x247 JUMPI DUP6 DUP3 DUP2 MLOAD DUP2 LT PUSH2 0x1FF JUMPI PUSH2 0x1FE PUSH2 0x667 JUMP JUMPDEST JUMPDEST PUSH1 0x20 MUL PUSH1 0x20 ADD ADD MLOAD DUP9 DUP3 DUP2 MLOAD DUP2 LT PUSH2 0x21A JUMPI PUSH2 0x219 PUSH2 0x667 JUMP JUMPDEST JUMPDEST PUSH1 0x20 MUL PUSH1 0x20 ADD ADD DUP2 DUP2 MSTORE POP POP DUP2 DUP1 PUSH2 0x231 SWAP1 PUSH2 0x694 JUMP JUMPDEST SWAP3 POP POP DUP1 DUP1 PUSH2 0x23F SWAP1 PUSH2 0x694 JUMP JUMPDEST SWAP2 POP POP PUSH2 0x1E5 JUMP JUMPDEST DUP8 SWAP4 POP POP POP POP SWAP5 SWAP4 POP POP POP POP JUMP JUMPDEST PUSH0 PUSH1 0x40 MLOAD SWAP1 POP SWAP1 JUMP JUMPDEST PUSH0 PUSH0 REVERT JUMPDEST PUSH0 PUSH0 REVERT JUMPDEST PUSH0 PUSH0 REVERT JUMPDEST PUSH0 PUSH1 0x1F NOT PUSH1 0x1F DUP4 ADD AND SWAP1 POP SWAP2 SWAP1 POP JUMP JUMPDEST PUSH32 0x4E487B7100000000000000000000000000000000000000000000000000000000 PUSH0 MSTORE PUSH1 0x41 PUSH1 0x4 MSTORE PUSH1 0x24 PUSH0 REVERT JUMPDEST PUSH2 0x2B0 DUP3 PUSH2 0x26A JUMP JUMPDEST DUP2 ADD DUP2 DUP2 LT PUSH8 0xFFFFFFFFFFFFFFFF DUP3 GT OR ISZERO PUSH2 0x2CF JUMPI PUSH2 0x2CE PUSH2 0x27A JUMP JUMPDEST JUMPDEST DUP1 PUSH1 0x40 MSTORE POP POP POP JUMP JUMPDEST PUSH0 PUSH2 0x2E1 PUSH2 0x255 JUMP JUMPDEST SWAP1 POP PUSH2 0x2ED DUP3 DUP3 PUSH2 0x2A7 JUMP JUMPDEST SWAP2 SWAP1 POP JUMP JUMPDEST PUSH0 PUSH8 0xFFFFFFFFFFFFFFFF DUP3 GT ISZERO PUSH2 0x30C JUMPI PUSH2 0x30B PUSH2 0x27A JUMP JUMPDEST JUMPDEST PUSH1 0x20 DUP3 MUL SWAP1 POP PUSH1 0x20 DUP2 ADD SWAP1 POP SWAP2 SWAP1 POP JUMP JUMPDEST PUSH0 PUSH0 REVERT JUMPDEST PUSH0 DUP2 SWAP1 POP SWAP2 SWAP1 POP JUMP JUMPDEST PUSH2 0x333 DUP2 PUSH2 0x321 JUMP JUMPDEST DUP2 EQ PUSH2 0x33D JUMPI PUSH0 PUSH0 REVERT JUMPDEST POP JUMP JUMPDEST PUSH0 DUP2 CALLDATALOAD SWAP1 POP PUSH2 0x34E DUP2 PUSH2 0x32A JUMP JUMPDEST SWAP3 SWAP2 POP POP JUMP JUMPDEST PUSH0 PUSH2 0x366 PUSH2 0x361 DUP5 PUSH2 0x2F2 JUMP JUMPDEST PUSH2 0x2D8 JUMP JUMPDEST SWAP1 POP DUP1 DUP4 DUP3 MSTORE PUSH1 0x20 DUP3 ADD SWAP1 POP PUSH1 0x20 DUP5 MUL DUP4 ADD DUP6 DUP2 GT ISZERO PUSH2 0x389 JUMPI PUSH2 0x388 PUSH2 0x31D JUMP JUMPDEST JUMPDEST DUP4 JUMPDEST DUP2 DUP2 LT ISZERO PUSH2 0x3B2 JUMPI DUP1 PUSH2 0x39E DUP9 DUP3 PUSH2 0x340 JUMP JUMPDEST DUP5 MSTORE PUSH1 0x20 DUP5 ADD SWAP4 POP POP PUSH1 0x20 DUP2 ADD SWAP1 POP PUSH2 0x38B JUMP JUMPDEST POP POP POP SWAP4 SWAP3 POP POP POP JUMP JUMPDEST PUSH0 DUP3 PUSH1 0x1F DUP4 ADD SLT PUSH2 0x3D0 JUMPI PUSH2 0x3CF PUSH2 0x266 JUMP JUMPDEST JUMPDEST DUP2 CALLDATALOAD PUSH2 0x3E0 DUP5 DUP3 PUSH1 0x20 DUP7 ADD PUSH2 0x354 JUMP JUMPDEST SWAP2 POP POP SWAP3 SWAP2 POP POP JUMP JUMPDEST PUSH0 PUSH0 PUSH0 PUSH0 PUSH1 0x80 DUP6 DUP8 SUB SLT ISZERO PUSH2 0x401 JUMPI PUSH2 0x400 PUSH2 0x25E JUMP JUMPDEST JUMPDEST PUSH0 DUP6 ADD CALLDATALOAD PUSH8 0xFFFFFFFFFFFFFFFF DUP2 GT ISZERO PUSH2 0x41E JUMPI PUSH2 0x41D PUSH2 0x262 JUMP JUMPDEST JUMPDEST PUSH2 0x42A DUP8 DUP3 DUP9 ADD PUSH2 0x3BC JUMP JUMPDEST SWAP5 POP POP PUSH1 0x20 PUSH2 0x43B DUP8 DUP3 DUP9 ADD PUSH2 0x340 JUMP JUMPDEST SWAP4 POP POP PUSH1 0x40 DUP6 ADD CALLDATALOAD PUSH8 0xFFFFFFFFFFFFFFFF DUP2 GT ISZERO PUSH2 0x45C JUMPI PUSH2 0x45B PUSH2 0x262 JUMP JUMPDEST JUMPDEST PUSH2 0x468 DUP8 DUP3 DUP9 ADD PUSH2 0x3BC JUMP JUMPDEST SWAP3 POP POP PUSH1 0x60 PUSH2 0x479 DUP8 DUP3 DUP9 ADD PUSH2 0x340 JUMP JUMPDEST SWAP2 POP POP SWAP3 SWAP6 SWAP2 SWAP5 POP SWAP3 POP JUMP JUMPDEST PUSH0 DUP2 MLOAD SWAP1 POP SWAP2 SWAP1 POP JUMP JUMPDEST PUSH0 DUP3 DUP3 MSTORE PUSH1 0x20 DUP3 ADD SWAP1 POP SWAP3 SWAP2 POP POP JUMP JUMPDEST PUSH0 DUP2 SWAP1 POP PUSH1 0x20 DUP3 ADD SWAP1 POP SWAP2 SWAP1 POP JUMP JUMPDEST PUSH2 0x4B7 DUP2 PUSH2 0x321 JUMP JUMPDEST DUP3 MSTORE POP POP JUMP JUMPDEST PUSH0 PUSH2 0x4C8 DUP4 DUP4 PUSH2 0x4AE JUMP JUMPDEST PUSH1 0x20 DUP4 ADD SWAP1 POP SWAP3 SWAP2 POP POP JUMP JUMPDEST PUSH0 PUSH1 0x20 DUP3 ADD SWAP1 POP SWAP2 SWAP1 POP JUMP JUMPDEST PUSH0 PUSH2 0x4EA DUP3 PUSH2 0x485 JUMP JUMPDEST PUSH2 0x4F4 DUP2 DUP6 PUSH2 0x48F JUMP JUMPDEST SWAP4 POP PUSH2 0x4FF DUP4 PUSH2 0x49F JUMP JUMPDEST DUP1 PUSH0 JUMPDEST DUP4 DUP2 LT ISZERO PUSH2 0x52F JUMPI DUP2 MLOAD PUSH2 0x516 DUP9 DUP3 PUSH2 0x4BD JUMP JUMPDEST SWAP8 POP PUSH2 0x521 DUP4 PUSH2 0x4D4 JUMP JUMPDEST SWAP3 POP POP PUSH1 0x1 DUP2 ADD SWAP1 POP PUSH2 0x502 JUMP JUMPDEST POP DUP6 SWAP4 POP POP POP POP SWAP3 SWAP2 POP POP JUMP JUMPDEST PUSH0 PUSH1 0x20 DUP3 ADD SWAP1 POP DUP2 DUP2 SUB PUSH0 DUP4 ADD MSTORE PUSH2 0x554 DUP2 DUP5 PUSH2 0x4E0 JUMP JUMPDEST SWAP1 POP SWAP3 SWAP2 POP POP JUMP JUMPDEST PUSH32 0x4E487B7100000000000000000000000000000000000000000000000000000000 PUSH0 MSTORE PUSH1 0x11 PUSH1 0x4 MSTORE PUSH1 0x24 PUSH0 REVERT JUMPDEST PUSH0 PUSH2 0x593 DUP3 PUSH2 0x321 JUMP JUMPDEST SWAP2 POP PUSH2 0x59E DUP4 PUSH2 0x321 JUMP JUMPDEST SWAP3 POP DUP3 DUP3 ADD SWAP1 POP DUP1 DUP3 GT ISZERO PUSH2 0x5B6 JUMPI PUSH2 0x5B5 PUSH2 0x55C JUMP JUMPDEST JUMPDEST SWAP3 SWAP2 POP POP JUMP JUMPDEST PUSH0 DUP3 DUP3 MSTORE PUSH1 0x20 DUP3 ADD SWAP1 POP SWAP3 SWAP2 POP POP JUMP JUMPDEST PUSH32 0x41727261793120746F6F20736D616C6C20666F72206D65726765000000000000 PUSH0 DUP3 ADD MSTORE POP JUMP JUMPDEST PUSH0 PUSH2 0x600 PUSH1 0x1A DUP4 PUSH2 0x5BC JUMP JUMPDEST SWAP2 POP PUSH2 0x60B DUP3 PUSH2 0x5CC JUMP JUMPDEST PUSH1 0x20 DUP3 ADD SWAP1 POP SWAP2 SWAP1 POP JUMP JUMPDEST PUSH0 PUSH1 0x20 DUP3 ADD SWAP1 POP DUP2 DUP2 SUB PUSH0 DUP4 ADD MSTORE PUSH2 0x62D DUP2 PUSH2 0x5F4 JUMP JUMPDEST SWAP1 POP SWAP2 SWAP1 POP JUMP JUMPDEST PUSH0 PUSH2 0x63E DUP3 PUSH2 0x321 JUMP JUMPDEST SWAP2 POP PUSH2 0x649 DUP4 PUSH2 0x321 JUMP JUMPDEST SWAP3 POP DUP3 DUP3 SUB SWAP1 POP DUP2 DUP2 GT ISZERO PUSH2 0x661 JUMPI PUSH2 0x660 PUSH2 0x55C JUMP JUMPDEST JUMPDEST SWAP3 SWAP2 POP POP JUMP JUMPDEST PUSH32 0x4E487B7100000000000000000000000000000000000000000000000000000000 PUSH0 MSTORE PUSH1 0x32 PUSH1 0x4 MSTORE PUSH1 0x24 PUSH0 REVERT JUMPDEST PUSH0 PUSH2 0x69E DUP3 PUSH2 0x321 JUMP JUMPDEST SWAP2 POP PUSH0 DUP3 SUB PUSH2 0x6B0 JUMPI PUSH2 0x6AF PUSH2 0x55C JUMP JUMPDEST JUMPDEST PUSH1 0x1 DUP3 SUB SWAP1 POP SWAP2 SWAP1 POP JUMP INVALID LOG2 PUSH5 0x6970667358 0x22 SLT KECCAK256 MSIZE GASLIMIT ADD 0x4B CODESIZE CREATE2 SWAP16 JUMP DUP5 0xF SWAP13 SUB DUP6 KECCAK256 SDIV 0xB2 PUSH11 0xA226F872E00652A235613A 0x4B DUP3 PC SWAP8 PUSH5 0x736F6C6343 STOP ADDMOD 0x1E STOP CALLER "
		},
		"gasEstimates": {
			"creation": {
				"codeDepositCost": "355400",
				"executionCost": "391",
				"totalCost": "355791"
			},
			"external": {
				"mergeMemoryArrays(uint256[],uint256,uint256[],uint256)": "infinite"
			}
		},
		"methodIdentifiers": {
			"mergeMemoryArrays(uint256[],uint256,uint256[],uint256)": "a20f0a79"
		}
	},
	"abi": [
		{
			"inputs": [
				{
					"internalType": "uint256[]",
					"name": "arr1",
					"type": "uint256[]"
				},
				{
					"internalType": "uint256",
					"name": "m",
					"type": "uint256"
				},
				{
					"internalType": "uint256[]",
					"name": "arr2",
					"type": "uint256[]"
				},
				{
					"internalType": "uint256",
					"name": "n",
					"type": "uint256"
				}
			],
			"name": "mergeMemoryArrays",
			"outputs": [
				{
					"internalType": "uint256[]",
					"name": "",
					"type": "uint256[]"
				}
			],
			"stateMutability": "pure",
			"type": "function"
		}
	]
}