{
	"data": {
		"bytecode": {
			"linkReferences": {},
			"object": "6080604052348015600e575f5ffd5b505f6001908060018154018082558091505060019003905f5260205f20015f90919091909150555f6003908060018154018082558091505060019003905f5260205f20015f90919091909150555f6005908060018154018082558091505060019003905f5260205f20015f90919091909150555f5f908060018154018082558091505060019003905f5260205f20015f90919091909150555f5f908060018154018082558091505060019003905f5260205f20015f9091909190915055610bd6806100d85f395ff3fe608060405234801561000f575f5ffd5b506004361061004a575f3560e01c80632e0bfcba1461004e578063a20f0a791461006c578063b70d134a1461009c578063d4a5c287146100cc575b5f5ffd5b6100566100d6565b60405161006391906107a7565b60405180910390f35b61008660048036038101906100819190610952565b610239565b60405161009391906107a7565b60405180910390f35b6100b660048036038101906100b191906109ee565b610431565b6040516100c39190610a28565b60405180910390f35b6100d4610450565b005b60605f600567ffffffffffffffff8111156100f4576100f36107ec565b5b6040519080825280602002602001820160405280156101225781602001602082028036833780820191505090505b5090506001815f8151811061013a57610139610a41565b5b60200260200101818152505060038160018151811061015c5761015b610a41565b5b60200260200101818152505060058160028151811061017e5761017d610a41565b5b6020026020010181815250505f600390505f600267ffffffffffffffff8111156101ab576101aa6107ec565b5b6040519080825280602002602001820160405280156101d95781602001602082028036833780820191505090505b5090506002815f815181106101f1576101f0610a41565b5b60200260200101818152505060048160018151811061021357610212610a41565b5b6020026020010181815250505f6002905061023084848484610239565b94505050505090565b606081846102479190610a9b565b8551101561028a576040517f08c379a000000000000000000000000000000000000000000000000000000000815260040161028190610b28565b60405180910390fd5b5f6001856102989190610b46565b90505f6001846102a89190610b46565b90505f600185886102b99190610a9b565b6102c39190610b46565b90505b5f83101580156102d657505f8210155b156103c0578582815181106102ee576102ed610a41565b5b602002602001015188848151811061030957610308610a41565b5b602002602001015111156103645787838151811061032a57610329610a41565b5b602002602001015188828151811061034557610344610a41565b5b602002602001018181525050828061035c90610b79565b9350506103ad565b85828151811061037757610376610a41565b5b602002602001015188828151811061039257610391610a41565b5b60200260200101818152505081806103a990610b79565b9250505b80806103b890610b79565b9150506102c6565b5b5f8210610423578582815181106103db576103da610a41565b5b60200260200101518882815181106103f6576103f5610a41565b5b602002602001018181525050818061040d90610b79565b925050808061041b90610b79565b9150506103c1565b879350505050949350505050565b5f818154811061043f575f80fd5b905f5260205f20015f915090505481565b5f600267ffffffffffffffff81111561046c5761046b6107ec565b5b60405190808252806020026020018201604052801561049a5781602001602082028036833780820191505090505b5090506002815f815181106104b2576104b1610a41565b5b6020026020010181815250506004816001815181106104d4576104d3610a41565b5b6020026020010181815250506104ee5f60038360026104f1565b50565b80836104fd9190610a9b565b84805490501015610543576040517f08c379a000000000000000000000000000000000000000000000000000000000815260040161053a90610b28565b60405180910390fd5b5f6001846105519190610b46565b90505f6001836105619190610b46565b90505f600184876105729190610a9b565b61057c9190610b46565b90505b5f831015801561058f57505f8210155b1561067b578482815181106105a7576105a6610a41565b5b60200260200101518784815481106105c2576105c1610a41565b5b905f5260205f200154111561061f578683815481106105e4576105e3610a41565b5b905f5260205f200154878281548110610600576105ff610a41565b5b905f5260205f200181905550828061061790610b79565b935050610668565b84828151811061063257610631610a41565b5b602002602001015187828154811061064d5761064c610a41565b5b905f5260205f200181905550818061066490610b79565b9250505b808061067390610b79565b91505061057f565b5b5f82106106de5784828151811061069657610695610a41565b5b60200260200101518782815481106106b1576106b0610a41565b5b905f5260205f20018190555081806106c890610b79565b92505080806106d690610b79565b91505061067c565b50505050505050565b5f81519050919050565b5f82825260208201905092915050565b5f819050602082019050919050565b5f819050919050565b61072281610710565b82525050565b5f6107338383610719565b60208301905092915050565b5f602082019050919050565b5f610755826106e7565b61075f81856106f1565b935061076a83610701565b805f5b8381101561079a5781516107818882610728565b975061078c8361073f565b92505060018101905061076d565b5085935050505092915050565b5f6020820190508181035f8301526107bf818461074b565b905092915050565b5f604051905090565b5f5ffd5b5f5ffd5b5f5ffd5b5f601f19601f8301169050919050565b7f4e487b71000000000000000000000000000000000000000000000000000000005f52604160045260245ffd5b610822826107dc565b810181811067ffffffffffffffff82111715610841576108406107ec565b5b80604052505050565b5f6108536107c7565b905061085f8282610819565b919050565b5f67ffffffffffffffff82111561087e5761087d6107ec565b5b602082029050602081019050919050565b5f5ffd5b61089c81610710565b81146108a6575f5ffd5b50565b5f813590506108b781610893565b92915050565b5f6108cf6108ca84610864565b61084a565b905080838252602082019050602084028301858111156108f2576108f161088f565b5b835b8181101561091b578061090788826108a9565b8452602084019350506020810190506108f4565b5050509392505050565b5f82601f830112610939576109386107d8565b5b81356109498482602086016108bd565b91505092915050565b5f5f5f5f6080858703121561096a576109696107d0565b5b5f85013567ffffffffffffffff811115610987576109866107d4565b5b61099387828801610925565b94505060206109a4878288016108a9565b935050604085013567ffffffffffffffff8111156109c5576109c46107d4565b5b6109d187828801610925565b92505060606109e2878288016108a9565b91505092959194509250565b5f60208284031215610a0357610a026107d0565b5b5f610a10848285016108a9565b91505092915050565b610a2281610710565b82525050565b5f602082019050610a3b5f830184610a19565b92915050565b7f4e487b71000000000000000000000000000000000000000000000000000000005f52603260045260245ffd5b7f4e487b71000000000000000000000000000000000000000000000000000000005f52601160045260245ffd5b5f610aa582610710565b9150610ab083610710565b9250828201905080821115610ac857610ac7610a6e565b5b92915050565b5f82825260208201905092915050565b7f41727261793120746f6f20736d616c6c20666f72206d657267650000000000005f82015250565b5f610b12601a83610ace565b9150610b1d82610ade565b602082019050919050565b5f6020820190508181035f830152610b3f81610b06565b9050919050565b5f610b5082610710565b9150610b5b83610710565b9250828203905081811115610b7357610b72610a6e565b5b92915050565b5f610b8382610710565b91505f8203610b9557610b94610a6e565b5b60018203905091905056fea26469706673582212206b27f6e229a632b6f5a87ea3e62a8d732a347e3145caf36ea87e61348608cc7d64736f6c634300081e0033",
			"opcodes": "PUSH1 0x80 PUSH1 0x40 MSTORE CALLVALUE DUP1 ISZERO PUSH1 0xE JUMPI PUSH0 PUSH0 REVERT JUMPDEST POP PUSH0 PUSH1 0x1 SWAP1 DUP1 PUSH1 0x1 DUP2 SLOAD ADD DUP1 DUP3 SSTORE DUP1 SWAP2 POP POP PUSH1 0x1 SWAP1 SUB SWAP1 PUSH0 MSTORE PUSH1 0x20 PUSH0 KECCAK256 ADD PUSH0 SWAP1 SWAP2 SWAP1 SWAP2 SWAP1 SWAP2 POP SSTORE PUSH0 PUSH1 0x3 SWAP1 DUP1 PUSH1 0x1 DUP2 SLOAD ADD DUP1 DUP3 SSTORE DUP1 SWAP2 POP POP PUSH1 0x1 SWAP1 SUB SWAP1 PUSH0 MSTORE PUSH1 0x20 PUSH0 KECCAK256 ADD PUSH0 SWAP1 SWAP2 SWAP1 SWAP2 SWAP1 SWAP2 POP SSTORE PUSH0 PUSH1 0x5 SWAP1 DUP1 PUSH1 0x1 DUP2 SLOAD ADD DUP1 DUP3 SSTORE DUP1 SWAP2 POP POP PUSH1 0x1 SWAP1 SUB SWAP1 PUSH0 MSTORE PUSH1 0x20 PUSH0 KECCAK256 ADD PUSH0 SWAP1 SWAP2 SWAP1 SWAP2 SWAP1 SWAP2 POP SSTORE PUSH0 PUSH0 SWAP1 DUP1 PUSH1 0x1 DUP2 SLOAD ADD DUP1 DUP3 SSTORE DUP1 SWAP2 POP POP PUSH1 0x1 SWAP1 SUB SWAP1 PUSH0 MSTORE PUSH1 0x20 PUSH0 KECCAK256 ADD PUSH0 SWAP1 SWAP2 SWAP1 SWAP2 SWAP1 SWAP2 POP SSTORE PUSH0 PUSH0 SWAP1 DUP1 PUSH1 0x1 DUP2 SLOAD ADD DUP1 DUP3 SSTORE DUP1 SWAP2 POP POP PUSH1 0x1 SWAP1 SUB SWAP1 PUSH0 MSTORE PUSH1 0x20 PUSH0 KECCAK256 ADD PUSH0 SWAP1 SWAP2 SWAP1 SWAP2 SWAP1 SWAP2 POP SSTORE PUSH2 0xBD6 DUP1 PUSH2 0xD8 PUSH0 CODECOPY PUSH0 RETURN INVALID PUSH1 0x80 PUSH1 0x40 MSTORE CALLVALUE DUP1 ISZERO PUSH2 0xF JUMPI PUSH0 PUSH0 REVERT JUMPDEST POP PUSH1 0x4 CALLDATASIZE LT PUSH2 0x4A JUMPI PUSH0 CALLDATALOAD PUSH1 0xE0 SHR DUP1 PUSH4 0x2E0BFCBA EQ PUSH2 0x4E JUMPI DUP1 PUSH4 0xA20F0A79 EQ PUSH2 0x6C JUMPI DUP1 PUSH4 0xB70D134A EQ PUSH2 0x9C JUMPI DUP1 PUSH4 0xD4A5C287 EQ PUSH2 0xCC JUMPI JUMPDEST PUSH0 PUSH0 REVERT JUMPDEST PUSH2 0x56 PUSH2 0xD6 JUMP JUMPDEST PUSH1 0x40 MLOAD PUSH2 0x63 SWAP2 SWAP1 PUSH2 0x7A7 JUMP JUMPDEST PUSH1 0x40 MLOAD DUP1 SWAP2 SUB SWAP1 RETURN JUMPDEST PUSH2 0x86 PUSH1 0x4 DUP1 CALLDATASIZE SUB DUP2 ADD SWAP1 PUSH2 0x81 SWAP2 SWAP1 PUSH2 0x952 JUMP JUMPDEST PUSH2 0x239 JUMP JUMPDEST PUSH1 0x40 MLOAD PUSH2 0x93 SWAP2 SWAP1 PUSH2 0x7A7 JUMP JUMPDEST PUSH1 0x40 MLOAD DUP1 SWAP2 SUB SWAP1 RETURN JUMPDEST PUSH2 0xB6 PUSH1 0x4 DUP1 CALLDATASIZE SUB DUP2 ADD SWAP1 PUSH2 0xB1 SWAP2 SWAP1 PUSH2 0x9EE JUMP JUMPDEST PUSH2 0x431 JUMP JUMPDEST PUSH1 0x40 MLOAD PUSH2 0xC3 SWAP2 SWAP1 PUSH2 0xA28 JUMP JUMPDEST PUSH1 0x40 MLOAD DUP1 SWAP2 SUB SWAP1 RETURN JUMPDEST PUSH2 0xD4 PUSH2 0x450 JUMP JUMPDEST STOP JUMPDEST PUSH1 0x60 PUSH0 PUSH1 0x5 PUSH8 0xFFFFFFFFFFFFFFFF DUP2 GT ISZERO PUSH2 0xF4 JUMPI PUSH2 0xF3 PUSH2 0x7EC JUMP JUMPDEST JUMPDEST PUSH1 0x40 MLOAD SWAP1 DUP1 DUP3 MSTORE DUP1 PUSH1 0x20 MUL PUSH1 0x20 ADD DUP3 ADD PUSH1 0x40 MSTORE DUP1 ISZERO PUSH2 0x122 JUMPI DUP2 PUSH1 0x20 ADD PUSH1 0x20 DUP3 MUL DUP1 CALLDATASIZE DUP4 CALLDATACOPY DUP1 DUP3 ADD SWAP2 POP POP SWAP1 POP JUMPDEST POP SWAP1 POP PUSH1 0x1 DUP2 PUSH0 DUP2 MLOAD DUP2 LT PUSH2 0x13A JUMPI PUSH2 0x139 PUSH2 0xA41 JUMP JUMPDEST JUMPDEST PUSH1 0x20 MUL PUSH1 0x20 ADD ADD DUP2 DUP2 MSTORE POP POP PUSH1 0x3 DUP2 PUSH1 0x1 DUP2 MLOAD DUP2 LT PUSH2 0x15C JUMPI PUSH2 0x15B PUSH2 0xA41 JUMP JUMPDEST JUMPDEST PUSH1 0x20 MUL PUSH1 0x20 ADD ADD DUP2 DUP2 MSTORE POP POP PUSH1 0x5 DUP2 PUSH1 0x2 DUP2 MLOAD DUP2 LT PUSH2 0x17E JUMPI PUSH2 0x17D PUSH2 0xA41 JUMP JUMPDEST JUMPDEST PUSH1 0x20 MUL PUSH1 0x20 ADD ADD DUP2 DUP2 MSTORE POP POP PUSH0 PUSH1 0x3 SWAP1 POP PUSH0 PUSH1 0x2 PUSH8 0xFFFFFFFFFFFFFFFF DUP2 GT ISZERO PUSH2 0x1AB JUMPI PUSH2 0x1AA PUSH2 0x7EC JUMP JUMPDEST JUMPDEST PUSH1 0x40 MLOAD SWAP1 DUP1 DUP3 MSTORE DUP1 PUSH1 0x20 MUL PUSH1 0x20 ADD DUP3 ADD PUSH1 0x40 MSTORE DUP1 ISZERO PUSH2 0x1D9 JUMPI DUP2 PUSH1 0x20 ADD PUSH1 0x20 DUP3 MUL DUP1 CALLDATASIZE DUP4 CALLDATACOPY DUP1 DUP3 ADD SWAP2 POP POP SWAP1 POP JUMPDEST POP SWAP1 POP PUSH1 0x2 DUP2 PUSH0 DUP2 MLOAD DUP2 LT PUSH2 0x1F1 JUMPI PUSH2 0x1F0 PUSH2 0xA41 JUMP JUMPDEST JUMPDEST PUSH1 0x20 MUL PUSH1 0x20 ADD ADD DUP2 DUP2 MSTORE POP POP PUSH1 0x4 DUP2 PUSH1 0x1 DUP2 MLOAD DUP2 LT PUSH2 0x213 JUMPI PUSH2 0x212 PUSH2 0xA41 JUMP JUMPDEST JUMPDEST PUSH1 0x20 MUL PUSH1 0x20 ADD ADD DUP2 DUP2 MSTORE POP POP PUSH0 PUSH1 0x2 SWAP1 POP PUSH2 0x230 DUP5 DUP5 DUP5 DUP5 PUSH2 0x239 JUMP JUMPDEST SWAP5 POP POP POP POP POP SWAP1 JUMP JUMPDEST PUSH1 0x60 DUP2 DUP5 PUSH2 0x247 SWAP2 SWAP1 PUSH2 0xA9B JUMP JUMPDEST DUP6 MLOAD LT ISZERO PUSH2 0x28A JUMPI PUSH1 0x40 MLOAD PUSH32 0x8C379A000000000000000000000000000000000000000000000000000000000 DUP2 MSTORE PUSH1 0x4 ADD PUSH2 0x281 SWAP1 PUSH2 0xB28 JUMP JUMPDEST PUSH1 0x40 MLOAD DUP1 SWAP2 SUB SWAP1 REVERT JUMPDEST PUSH0 PUSH1 0x1 DUP6 PUSH2 0x298 SWAP2 SWAP1 PUSH2 0xB46 JUMP JUMPDEST SWAP1 POP PUSH0 PUSH1 0x1 DUP5 PUSH2 0x2A8 SWAP2 SWAP1 PUSH2 0xB46 JUMP JUMPDEST SWAP1 POP PUSH0 PUSH1 0x1 DUP6 DUP9 PUSH2 0x2B9 SWAP2 SWAP1 PUSH2 0xA9B JUMP JUMPDEST PUSH2 0x2C3 SWAP2 SWAP1 PUSH2 0xB46 JUMP JUMPDEST SWAP1 POP JUMPDEST PUSH0 DUP4 LT ISZERO DUP1 ISZERO PUSH2 0x2D6 JUMPI POP PUSH0 DUP3 LT ISZERO JUMPDEST ISZERO PUSH2 0x3C0 JUMPI DUP6 DUP3 DUP2 MLOAD DUP2 LT PUSH2 0x2EE JUMPI PUSH2 0x2ED PUSH2 0xA41 JUMP JUMPDEST JUMPDEST PUSH1 0x20 MUL PUSH1 0x20 ADD ADD MLOAD DUP9 DUP5 DUP2 MLOAD DUP2 LT PUSH2 0x309 JUMPI PUSH2 0x308 PUSH2 0xA41 JUMP JUMPDEST JUMPDEST PUSH1 0x20 MUL PUSH1 0x20 ADD ADD MLOAD GT ISZERO PUSH2 0x364 JUMPI DUP8 DUP4 DUP2 MLOAD DUP2 LT PUSH2 0x32A JUMPI PUSH2 0x329 PUSH2 0xA41 JUMP JUMPDEST JUMPDEST PUSH1 0x20 MUL PUSH1 0x20 ADD ADD MLOAD DUP9 DUP3 DUP2 MLOAD DUP2 LT PUSH2 0x345 JUMPI PUSH2 0x344 PUSH2 0xA41 JUMP JUMPDEST JUMPDEST PUSH1 0x20 MUL PUSH1 0x20 ADD ADD DUP2 DUP2 MSTORE POP POP DUP3 DUP1 PUSH2 0x35C SWAP1 PUSH2 0xB79 JUMP JUMPDEST SWAP4 POP POP PUSH2 0x3AD JUMP JUMPDEST DUP6 DUP3 DUP2 MLOAD DUP2 LT PUSH2 0x377 JUMPI PUSH2 0x376 PUSH2 0xA41 JUMP JUMPDEST JUMPDEST PUSH1 0x20 MUL PUSH1 0x20 ADD ADD MLOAD DUP9 DUP3 DUP2 MLOAD DUP2 LT PUSH2 0x392 JUMPI PUSH2 0x391 PUSH2 0xA41 JUMP JUMPDEST JUMPDEST PUSH1 0x20 MUL PUSH1 0x20 ADD ADD DUP2 DUP2 MSTORE POP POP DUP2 DUP1 PUSH2 0x3A9 SWAP1 PUSH2 0xB79 JUMP JUMPDEST SWAP3 POP POP JUMPDEST DUP1 DUP1 PUSH2 0x3B8 SWAP1 PUSH2 0xB79 JUMP JUMPDEST SWAP2 POP POP PUSH2 0x2C6 JUMP JUMPDEST JUMPDEST PUSH0 DUP3 LT PUSH2 0x423 JUMPI DUP6 DUP3 DUP2 MLOAD DUP2 LT PUSH2 0x3DB JUMPI PUSH2 0x3DA PUSH2 0xA41 JUMP JUMPDEST JUMPDEST PUSH1 0x20 MUL PUSH1 0x20 ADD ADD MLOAD DUP9 DUP3 DUP2 MLOAD DUP2 LT PUSH2 0x3F6 JUMPI PUSH2 0x3F5 PUSH2 0xA41 JUMP JUMPDEST JUMPDEST PUSH1 0x20 MUL PUSH1 0x20 ADD ADD DUP2 DUP2 MSTORE POP POP DUP2 DUP1 PUSH2 0x40D SWAP1 PUSH2 0xB79 JUMP JUMPDEST SWAP3 POP POP DUP1 DUP1 PUSH2 0x41B SWAP1 PUSH2 0xB79 JUMP JUMPDEST SWAP2 POP POP PUSH2 0x3C1 JUMP JUMPDEST DUP8 SWAP4 POP POP POP POP SWAP5 SWAP4 POP POP POP POP JUMP JUMPDEST PUSH0 DUP2 DUP2 SLOAD DUP2 LT PUSH2 0x43F JUMPI PUSH0 DUP1 REVERT JUMPDEST SWAP1 PUSH0 MSTORE PUSH1 0x20 PUSH0 KECCAK256 ADD PUSH0 SWAP2 POP SWAP1 POP SLOAD DUP2 JUMP JUMPDEST PUSH0 PUSH1 0x2 PUSH8 0xFFFFFFFFFFFFFFFF DUP2 GT ISZERO PUSH2 0x46C JUMPI PUSH2 0x46B PUSH2 0x7EC JUMP JUMPDEST JUMPDEST PUSH1 0x40 MLOAD SWAP1 DUP1 DUP3 MSTORE DUP1 PUSH1 0x20 MUL PUSH1 0x20 ADD DUP3 ADD PUSH1 0x40 MSTORE DUP1 ISZERO PUSH2 0x49A JUMPI DUP2 PUSH1 0x20 ADD PUSH1 0x20 DUP3 MUL DUP1 CALLDATASIZE DUP4 CALLDATACOPY DUP1 DUP3 ADD SWAP2 POP POP SWAP1 POP JUMPDEST POP SWAP1 POP PUSH1 0x2 DUP2 PUSH0 DUP2 MLOAD DUP2 LT PUSH2 0x4B2 JUMPI PUSH2 0x4B1 PUSH2 0xA41 JUMP JUMPDEST JUMPDEST PUSH1 0x20 MUL PUSH1 0x20 ADD ADD DUP2 DUP2 MSTORE POP POP PUSH1 0x4 DUP2 PUSH1 0x1 DUP2 MLOAD DUP2 LT PUSH2 0x4D4 JUMPI PUSH2 0x4D3 PUSH2 0xA41 JUMP JUMPDEST JUMPDEST PUSH1 0x20 MUL PUSH1 0x20 ADD ADD DUP2 DUP2 MSTORE POP POP PUSH2 0x4EE PUSH0 PUSH1 0x3 DUP4 PUSH1 0x2 PUSH2 0x4F1 JUMP JUMPDEST POP JUMP JUMPDEST DUP1 DUP4 PUSH2 0x4FD SWAP2 SWAP1 PUSH2 0xA9B JUMP JUMPDEST DUP5 DUP1 SLOAD SWAP1 POP LT ISZERO PUSH2 0x543 JUMPI PUSH1 0x40 MLOAD PUSH32 0x8C379A000000000000000000000000000000000000000000000000000000000 DUP2 MSTORE PUSH1 0x4 ADD PUSH2 0x53A SWAP1 PUSH2 0xB28 JUMP JUMPDEST PUSH1 0x40 MLOAD DUP1 SWAP2 SUB SWAP1 REVERT JUMPDEST PUSH0 PUSH1 0x1 DUP5 PUSH2 0x551 SWAP2 SWAP1 PUSH2 0xB46 JUMP JUMPDEST SWAP1 POP PUSH0 PUSH1 0x1 DUP4 PUSH2 0x561 SWAP2 SWAP1 PUSH2 0xB46 JUMP JUMPDEST SWAP1 POP PUSH0 PUSH1 0x1 DUP5 DUP8 PUSH2 0x572 SWAP2 SWAP1 PUSH2 0xA9B JUMP JUMPDEST PUSH2 0x57C SWAP2 SWAP1 PUSH2 0xB46 JUMP JUMPDEST SWAP1 POP JUMPDEST PUSH0 DUP4 LT ISZERO DUP1 ISZERO PUSH2 0x58F JUMPI POP PUSH0 DUP3 LT ISZERO JUMPDEST ISZERO PUSH2 0x67B JUMPI DUP5 DUP3 DUP2 MLOAD DUP2 LT PUSH2 0x5A7 JUMPI PUSH2 0x5A6 PUSH2 0xA41 JUMP JUMPDEST JUMPDEST PUSH1 0x20 MUL PUSH1 0x20 ADD ADD MLOAD DUP8 DUP5 DUP2 SLOAD DUP2 LT PUSH2 0x5C2 JUMPI PUSH2 0x5C1 PUSH2 0xA41 JUMP JUMPDEST JUMPDEST SWAP1 PUSH0 MSTORE PUSH1 0x20 PUSH0 KECCAK256 ADD SLOAD GT ISZERO PUSH2 0x61F JUMPI DUP7 DUP4 DUP2 SLOAD DUP2 LT PUSH2 0x5E4 JUMPI PUSH2 0x5E3 PUSH2 0xA41 JUMP JUMPDEST JUMPDEST SWAP1 PUSH0 MSTORE PUSH1 0x20 PUSH0 KECCAK256 ADD SLOAD DUP8 DUP3 DUP2 SLOAD DUP2 LT PUSH2 0x600 JUMPI PUSH2 0x5FF PUSH2 0xA41 JUMP JUMPDEST JUMPDEST SWAP1 PUSH0 MSTORE PUSH1 0x20 PUSH0 KECCAK256 ADD DUP2 SWAP1 SSTORE POP DUP3 DUP1 PUSH2 0x617 SWAP1 PUSH2 0xB79 JUMP JUMPDEST SWAP4 POP POP PUSH2 0x668 JUMP JUMPDEST DUP5 DUP3 DUP2 MLOAD DUP2 LT PUSH2 0x632 JUMPI PUSH2 0x631 PUSH2 0xA41 JUMP JUMPDEST JUMPDEST PUSH1 0x20 MUL PUSH1 0x20 ADD ADD MLOAD DUP8 DUP3 DUP2 SLOAD DUP2 LT PUSH2 0x64D JUMPI PUSH2 0x64C PUSH2 0xA41 JUMP JUMPDEST JUMPDEST SWAP1 PUSH0 MSTORE PUSH1 0x20 PUSH0 KECCAK256 ADD DUP2 SWAP1 SSTORE POP DUP2 DUP1 PUSH2 0x664 SWAP1 PUSH2 0xB79 JUMP JUMPDEST SWAP3 POP POP JUMPDEST DUP1 DUP1 PUSH2 0x673 SWAP1 PUSH2 0xB79 JUMP JUMPDEST SWAP2 POP POP PUSH2 0x57F JUMP JUMPDEST JUMPDEST PUSH0 DUP3 LT PUSH2 0x6DE JUMPI DUP5 DUP3 DUP2 MLOAD DUP2 LT PUSH2 0x696 JUMPI PUSH2 0x695 PUSH2 0xA41 JUMP JUMPDEST JUMPDEST PUSH1 0x20 MUL PUSH1 0x20 ADD ADD MLOAD DUP8 DUP3 DUP2 SLOAD DUP2 LT PUSH2 0x6B1 JUMPI PUSH2 0x6B0 PUSH2 0xA41 JUMP JUMPDEST JUMPDEST SWAP1 PUSH0 MSTORE PUSH1 0x20 PUSH0 KECCAK256 ADD DUP2 SWAP1 SSTORE POP DUP2 DUP1 PUSH2 0x6C8 SWAP1 PUSH2 0xB79 JUMP JUMPDEST SWAP3 POP POP DUP1 DUP1 PUSH2 0x6D6 SWAP1 PUSH2 0xB79 JUMP JUMPDEST SWAP2 POP POP PUSH2 0x67C JUMP JUMPDEST POP POP POP POP POP POP POP JUMP JUMPDEST PUSH0 DUP2 MLOAD SWAP1 POP SWAP2 SWAP1 POP JUMP JUMPDEST PUSH0 DUP3 DUP3 MSTORE PUSH1 0x20 DUP3 ADD SWAP1 POP SWAP3 SWAP2 POP POP JUMP JUMPDEST PUSH0 DUP2 SWAP1 POP PUSH1 0x20 DUP3 ADD SWAP1 POP SWAP2 SWAP1 POP JUMP JUMPDEST PUSH0 DUP2 SWAP1 POP SWAP2 SWAP1 POP JUMP JUMPDEST PUSH2 0x722 DUP2 PUSH2 0x710 JUMP JUMPDEST DUP3 MSTORE POP POP JUMP JUMPDEST PUSH0 PUSH2 0x733 DUP4 DUP4 PUSH2 0x719 JUMP JUMPDEST PUSH1 0x20 DUP4 ADD SWAP1 POP SWAP3 SWAP2 POP POP JUMP JUMPDEST PUSH0 PUSH1 0x20 DUP3 ADD SWAP1 POP SWAP2 SWAP1 POP JUMP JUMPDEST PUSH0 PUSH2 0x755 DUP3 PUSH2 0x6E7 JUMP JUMPDEST PUSH2 0x75F DUP2 DUP6 PUSH2 0x6F1 JUMP JUMPDEST SWAP4 POP PUSH2 0x76A DUP4 PUSH2 0x701 JUMP JUMPDEST DUP1 PUSH0 JUMPDEST DUP4 DUP2 LT ISZERO PUSH2 0x79A JUMPI DUP2 MLOAD PUSH2 0x781 DUP9 DUP3 PUSH2 0x728 JUMP JUMPDEST SWAP8 POP PUSH2 0x78C DUP4 PUSH2 0x73F JUMP JUMPDEST SWAP3 POP POP PUSH1 0x1 DUP2 ADD SWAP1 POP PUSH2 0x76D JUMP JUMPDEST POP DUP6 SWAP4 POP POP POP POP SWAP3 SWAP2 POP POP JUMP JUMPDEST PUSH0 PUSH1 0x20 DUP3 ADD SWAP1 POP DUP2 DUP2 SUB PUSH0 DUP4 ADD MSTORE PUSH2 0x7BF DUP2 DUP5 PUSH2 0x74B JUMP JUMPDEST SWAP1 POP SWAP3 SWAP2 POP POP JUMP JUMPDEST PUSH0 PUSH1 0x40 MLOAD SWAP1 POP SWAP1 JUMP JUMPDEST PUSH0 PUSH0 REVERT JUMPDEST PUSH0 PUSH0 REVERT JUMPDEST PUSH0 PUSH0 REVERT JUMPDEST PUSH0 PUSH1 0x1F NOT PUSH1 0x1F DUP4 ADD AND SWAP1 POP SWAP2 SWAP1 POP JUMP JUMPDEST PUSH32 0x4E487B7100000000000000000000000000000000000000000000000000000000 PUSH0 MSTORE PUSH1 0x41 PUSH1 0x4 MSTORE PUSH1 0x24 PUSH0 REVERT JUMPDEST PUSH2 0x822 DUP3 PUSH2 0x7DC JUMP JUMPDEST DUP2 ADD DUP2 DUP2 LT PUSH8 0xFFFFFFFFFFFFFFFF DUP3 GT OR ISZERO PUSH2 0x841 JUMPI PUSH2 0x840 PUSH2 0x7EC JUMP JUMPDEST JUMPDEST DUP1 PUSH1 0x40 MSTORE POP POP POP JUMP JUMPDEST PUSH0 PUSH2 0x853 PUSH2 0x7C7 JUMP JUMPDEST SWAP1 POP PUSH2 0x85F DUP3 DUP3 PUSH2 0x819 JUMP JUMPDEST SWAP2 SWAP1 POP JUMP JUMPDEST PUSH0 PUSH8 0xFFFFFFFFFFFFFFFF DUP3 GT ISZERO PUSH2 0x87E JUMPI PUSH2 0x87D PUSH2 0x7EC JUMP JUMPDEST JUMPDEST PUSH1 0x20 DUP3 MUL SWAP1 POP PUSH1 0x20 DUP2 ADD SWAP1 POP SWAP2 SWAP1 POP JUMP JUMPDEST PUSH0 PUSH0 REVERT JUMPDEST PUSH2 0x89C DUP2 PUSH2 0x710 JUMP JUMPDEST DUP2 EQ PUSH2 0x8A6 JUMPI PUSH0 PUSH0 REVERT JUMPDEST POP JUMP JUMPDEST PUSH0 DUP2 CALLDATALOAD SWAP1 POP PUSH2 0x8B7 DUP2 PUSH2 0x893 JUMP JUMPDEST SWAP3 SWAP2 POP POP JUMP JUMPDEST PUSH0 PUSH2 0x8CF PUSH2 0x8CA DUP5 PUSH2 0x864 JUMP JUMPDEST PUSH2 0x84A JUMP JUMPDEST SWAP1 POP DUP1 DUP4 DUP3 MSTORE PUSH1 0x20 DUP3 ADD SWAP1 POP PUSH1 0x20 DUP5 MUL DUP4 ADD DUP6 DUP2 GT ISZERO PUSH2 0x8F2 JUMPI PUSH2 0x8F1 PUSH2 0x88F JUMP JUMPDEST JUMPDEST DUP4 JUMPDEST DUP2 DUP2 LT ISZERO PUSH2 0x91B JUMPI DUP1 PUSH2 0x907 DUP9 DUP3 PUSH2 0x8A9 JUMP JUMPDEST DUP5 MSTORE PUSH1 0x20 DUP5 ADD SWAP4 POP POP PUSH1 0x20 DUP2 ADD SWAP1 POP PUSH2 0x8F4 JUMP JUMPDEST POP POP POP SWAP4 SWAP3 POP POP POP JUMP JUMPDEST PUSH0 DUP3 PUSH1 0x1F DUP4 ADD SLT PUSH2 0x939 JUMPI PUSH2 0x938 PUSH2 0x7D8 JUMP JUMPDEST JUMPDEST DUP2 CALLDATALOAD PUSH2 0x949 DUP5 DUP3 PUSH1 0x20 DUP7 ADD PUSH2 0x8BD JUMP JUMPDEST SWAP2 POP POP SWAP3 SWAP2 POP POP JUMP JUMPDEST PUSH0 PUSH0 PUSH0 PUSH0 PUSH1 0x80 DUP6 DUP8 SUB SLT ISZERO PUSH2 0x96A JUMPI PUSH2 0x969 PUSH2 0x7D0 JUMP JUMPDEST JUMPDEST PUSH0 DUP6 ADD CALLDATALOAD PUSH8 0xFFFFFFFFFFFFFFFF DUP2 GT ISZERO PUSH2 0x987 JUMPI PUSH2 0x986 PUSH2 0x7D4 JUMP JUMPDEST JUMPDEST PUSH2 0x993 DUP8 DUP3 DUP9 ADD PUSH2 0x925 JUMP JUMPDEST SWAP5 POP POP PUSH1 0x20 PUSH2 0x9A4 DUP8 DUP3 DUP9 ADD PUSH2 0x8A9 JUMP JUMPDEST SWAP4 POP POP PUSH1 0x40 DUP6 ADD CALLDATALOAD PUSH8 0xFFFFFFFFFFFFFFFF DUP2 GT ISZERO PUSH2 0x9C5 JUMPI PUSH2 0x9C4 PUSH2 0x7D4 JUMP JUMPDEST JUMPDEST PUSH2 0x9D1 DUP8 DUP3 DUP9 ADD PUSH2 0x925 JUMP JUMPDEST SWAP3 POP POP PUSH1 0x60 PUSH2 0x9E2 DUP8 DUP3 DUP9 ADD PUSH2 0x8A9 JUMP JUMPDEST SWAP2 POP POP SWAP3 SWAP6 SWAP2 SWAP5 POP SWAP3 POP JUMP JUMPDEST PUSH0 PUSH1 0x20 DUP3 DUP5 SUB SLT ISZERO PUSH2 0xA03 JUMPI PUSH2 0xA02 PUSH2 0x7D0 JUMP JUMPDEST JUMPDEST PUSH0 PUSH2 0xA10 DUP5 DUP3 DUP6 ADD PUSH2 0x8A9 JUMP JUMPDEST SWAP2 POP POP SWAP3 SWAP2 POP POP JUMP JUMPDEST PUSH2 0xA22 DUP2 PUSH2 0x710 JUMP JUMPDEST DUP3 MSTORE POP POP JUMP JUMPDEST PUSH0 PUSH1 0x20 DUP3 ADD SWAP1 POP PUSH2 0xA3B PUSH0 DUP4 ADD DUP5 PUSH2 0xA19 JUMP JUMPDEST SWAP3 SWAP2 POP POP JUMP JUMPDEST PUSH32 0x4E487B7100000000000000000000000000000000000000000000000000000000 PUSH0 MSTORE PUSH1 0x32 PUSH1 0x4 MSTORE PUSH1 0x24 PUSH0 REVERT JUMPDEST PUSH32 0x4E487B7100000000000000000000000000000000000000000000000000000000 PUSH0 MSTORE PUSH1 0x11 PUSH1 0x4 MSTORE PUSH1 0x24 PUSH0 REVERT JUMPDEST PUSH0 PUSH2 0xAA5 DUP3 PUSH2 0x710 JUMP JUMPDEST SWAP2 POP PUSH2 0xAB0 DUP4 PUSH2 0x710 JUMP JUMPDEST SWAP3 POP DUP3 DUP3 ADD SWAP1 POP DUP1 DUP3 GT ISZERO PUSH2 0xAC8 JUMPI PUSH2 0xAC7 PUSH2 0xA6E JUMP JUMPDEST JUMPDEST SWAP3 SWAP2 POP POP JUMP JUMPDEST PUSH0 DUP3 DUP3 MSTORE PUSH1 0x20 DUP3 ADD SWAP1 POP SWAP3 SWAP2 POP POP JUMP JUMPDEST PUSH32 0x41727261793120746F6F20736D616C6C20666F72206D65726765000000000000 PUSH0 DUP3 ADD MSTORE POP JUMP JUMPDEST PUSH0 PUSH2 0xB12 PUSH1 0x1A DUP4 PUSH2 0xACE JUMP JUMPDEST SWAP2 POP PUSH2 0xB1D DUP3 PUSH2 0xADE JUMP JUMPDEST PUSH1 0x20 DUP3 ADD SWAP1 POP SWAP2 SWAP1 POP JUMP JUMPDEST PUSH0 PUSH1 0x20 DUP3 ADD SWAP1 POP DUP2 DUP2 SUB PUSH0 DUP4 ADD MSTORE PUSH2 0xB3F DUP2 PUSH2 0xB06 JUMP JUMPDEST SWAP1 POP SWAP2 SWAP1 POP JUMP JUMPDEST PUSH0 PUSH2 0xB50 DUP3 PUSH2 0x710 JUMP JUMPDEST SWAP2 POP PUSH2 0xB5B DUP4 PUSH2 0x710 JUMP JUMPDEST SWAP3 POP DUP3 DUP3 SUB SWAP1 POP DUP2 DUP2 GT ISZERO PUSH2 0xB73 JUMPI PUSH2 0xB72 PUSH2 0xA6E JUMP JUMPDEST JUMPDEST SWAP3 SWAP2 POP POP JUMP JUMPDEST PUSH0 PUSH2 0xB83 DUP3 PUSH2 0x710 JUMP JUMPDEST SWAP2 POP PUSH0 DUP3 SUB PUSH2 0xB95 JUMPI PUSH2 0xB94 PUSH2 0xA6E JUMP JUMPDEST JUMPDEST PUSH1 0x1 DUP3 SUB SWAP1 POP SWAP2 SWAP1 POP JUMP INVALID LOG2 PUSH5 0x6970667358 0x22 SLT KECCAK256 PUSH12 0x27F6E229A632B6F5A87EA3E6 0x2A DUP14 PUSH20 0x2A347E3145CAF36EA87E61348608CC7D64736F6C PUSH4 0x4300081E STOP CALLER "
		},
		"gasEstimates": {
			"creation": {
				"codeDepositCost": "606000",
				"executionCost": "198529",
				"totalCost": "804529"
			},
			"external": {
				"mergeMemoryArrays(uint256[],uint256,uint256[],uint256)": "infinite",
				"storedArray(uint256)": "infinite",
				"testMemoryMerge()": "infinite",
				"testStorageMerge()": "infinite"
			}
		},
		"methodIdentifiers": {
			"mergeMemoryArrays(uint256[],uint256,uint256[],uint256)": "a20f0a79",
			"storedArray(uint256)": "b70d134a",
			"testMemoryMerge()": "2e0bfcba",
			"testStorageMerge()": "d4a5c287"
		}
	},
	"abi": [
		{
			"inputs": [],
			"stateMutability": "nonpayable",
			"type": "constructor"
		},
		{
			"inputs": [
				{
					"internalType": "uint256[]",
					"name": "arr1",
					"type": "uint256[]"
				},
				{
					"internalType": "uint256",
					"name": "m",
					"type": "uint256"
				},
				{
					"internalType": "uint256[]",
					"name": "arr2",
					"type": "uint256[]"
				},
				{
					"internalType": "uint256",
					"name": "n",
					"type": "uint256"
				}
			],
			"name": "mergeMemoryArrays",
			"outputs": [
				{
					"internalType": "uint256[]",
					"name": "",
					"type": "uint256[]"
				}
			],
			"stateMutability": "pure",
			"type": "function"
		},
		{
			"inputs": [
				{
					"internalType": "uint256",
					"name": "",
					"type": "uint256"
				}
			],
			"name": "storedArray",
			"outputs": [
				{
					"internalType": "uint256",
					"name": "",
					"type": "uint256"
				}
			],
			"stateMutability": "view",
			"type": "function"
		},
		{
			"inputs": [],
			"name": "testMemoryMerge",
			"outputs": [
				{
					"internalType": "uint256[]",
					"name": "",
					"type": "uint256[]"
				}
			],
			"stateMutability": "pure",
			"type": "function"
		},
		{
			"inputs": [],
			"name": "testStorageMerge",
			"outputs": [],
			"stateMutability": "nonpayable",
			"type": "function"
		}
	]
}